{
  "abi": [
    {
      "inputs": [],
      "stateMutability": "nonpayable",
      "type": "constructor"
    },
    {
      "inputs": [],
      "name": "BelowMinimumBurnAmount",
      "type": "error"
    },
    {
      "inputs": [],
      "name": "NotRedeemable",
      "type": "error"
    },
    {
      "anonymous": false,
      "inputs": [
        {
          "indexed": false,
          "internalType": "address",
          "name": "burner",
          "type": "address"
        },
        {
          "indexed": true,
          "internalType": "address",
          "name": "recipient",
          "type": "address"
        },
        {
          "indexed": true,
          "internalType": "uint256",
          "name": "amount",
          "type": "uint256"
        },
        {
          "indexed": true,
          "internalType": "uint256",
          "name": "burnId",
          "type": "uint256"
        }
      ],
      "name": "Burn",
      "type": "event"
    },
    {
      "anonymous": false,
      "inputs": [],
      "name": "DefaultAdminDelayChangeCanceled",
      "type": "event"
    },
    {
      "anonymous": false,
      "inputs": [
        {
          "indexed": false,
          "internalType": "uint48",
          "name": "newDelay",
          "type": "uint48"
        },
        {
          "indexed": false,
          "internalType": "uint48",
          "name": "effectSchedule",
          "type": "uint48"
        }
      ],
      "name": "DefaultAdminDelayChangeScheduled",
      "type": "event"
    },
    {
      "anonymous": false,
      "inputs": [],
      "name": "DefaultAdminTransferCanceled",
      "type": "event"
    },
    {
      "anonymous": false,
      "inputs": [
        {
          "indexed": true,
          "internalType": "address",
          "name": "newAdmin",
          "type": "address"
        },
        {
          "indexed": false,
          "internalType": "uint48",
          "name": "acceptSchedule",
          "type": "uint48"
        }
      ],
      "name": "DefaultAdminTransferScheduled",
      "type": "event"
    },
    {
      "anonymous": false,
      "inputs": [
        {
          "indexed": false,
          "internalType": "uint8",
          "name": "version",
          "type": "uint8"
        }
      ],
      "name": "Initialized",
      "type": "event"
    },
    {
      "anonymous": false,
      "inputs": [
        {
          "indexed": true,
          "internalType": "bytes32",
          "name": "role",
          "type": "bytes32"
        },
        {
          "indexed": true,
          "internalType": "bytes32",
          "name": "previousAdminRole",
          "type": "bytes32"
        },
        {
          "indexed": true,
          "internalType": "bytes32",
          "name": "newAdminRole",
          "type": "bytes32"
        }
      ],
      "name": "RoleAdminChanged",
      "type": "event"
    },
    {
      "anonymous": false,
      "inputs": [
        {
          "indexed": true,
          "internalType": "bytes32",
          "name": "role",
          "type": "bytes32"
        },
        {
          "indexed": true,
          "internalType": "address",
          "name": "account",
          "type": "address"
        },
        {
          "indexed": true,
          "internalType": "address",
          "name": "sender",
          "type": "address"
        }
      ],
      "name": "RoleGranted",
      "type": "event"
    },
    {
      "anonymous": false,
      "inputs": [
        {
          "indexed": true,
          "internalType": "bytes32",
          "name": "role",
          "type": "bytes32"
        },
        {
          "indexed": true,
          "internalType": "address",
          "name": "account",
          "type": "address"
        },
        {
          "indexed": true,
          "internalType": "address",
          "name": "sender",
          "type": "address"
        }
      ],
      "name": "RoleRevoked",
      "type": "event"
    },
    {
      "inputs": [],
      "name": "BURNER_ROLE",
      "outputs": [
        {
          "internalType": "bytes32",
          "name": "",
          "type": "bytes32"
        }
      ],
      "stateMutability": "view",
      "type": "function"
    },
    {
      "inputs": [],
      "name": "DEFAULT_ADMIN_ROLE",
      "outputs": [
        {
          "internalType": "bytes32",
          "name": "",
          "type": "bytes32"
        }
      ],
      "stateMutability": "view",
      "type": "function"
    },
    {
      "inputs": [],
      "name": "FEE_RECIPIENT_ROLE",
      "outputs": [
        {
          "internalType": "bytes32",
          "name": "",
          "type": "bytes32"
        }
      ],
      "stateMutability": "view",
      "type": "function"
    },
    {
      "inputs": [],
      "name": "GOVERNOR_ROLE",
      "outputs": [
        {
          "internalType": "bytes32",
          "name": "",
          "type": "bytes32"
        }
      ],
      "stateMutability": "view",
      "type": "function"
    },
    {
      "inputs": [],
      "name": "MANAGER_ROLE",
      "outputs": [
        {
          "internalType": "bytes32",
          "name": "",
          "type": "bytes32"
        }
      ],
      "stateMutability": "view",
      "type": "function"
    },
    {
      "inputs": [],
      "name": "MINTER_ROLE",
      "outputs": [
        {
          "internalType": "bytes32",
          "name": "",
          "type": "bytes32"
        }
      ],
      "stateMutability": "view",
      "type": "function"
    },
    {
      "inputs": [],
      "name": "PAUSER_ROLE",
      "outputs": [
        {
          "internalType": "bytes32",
          "name": "",
          "type": "bytes32"
        }
      ],
      "stateMutability": "view",
      "type": "function"
    },
    {
      "inputs": [],
      "name": "REBASER_ROLE",
      "outputs": [
        {
          "internalType": "bytes32",
          "name": "",
          "type": "bytes32"
        }
      ],
      "stateMutability": "view",
      "type": "function"
    },
    {
      "inputs": [],
      "name": "acceptDefaultAdminTransfer",
      "outputs": [],
      "stateMutability": "nonpayable",
      "type": "function"
    },
    {
      "inputs": [
        {
          "internalType": "address",
          "name": "newAdmin",
          "type": "address"
        }
      ],
      "name": "beginDefaultAdminTransfer",
      "outputs": [],
      "stateMutability": "nonpayable",
      "type": "function"
    },
    {
      "inputs": [
        {
          "internalType": "address",
          "name": "to",
          "type": "address"
        },
        {
          "internalType": "uint256",
          "name": "amount",
          "type": "uint256"
        }
      ],
      "name": "burn",
      "outputs": [
        {
          "internalType": "uint256",
          "name": "",
          "type": "uint256"
        }
      ],
      "stateMutability": "nonpayable",
      "type": "function"
    },
    {
      "inputs": [
        {
          "internalType": "uint256",
          "name": "",
          "type": "uint256"
        }
      ],
      "name": "burns",
      "outputs": [
        {
          "internalType": "uint88",
          "name": "amount",
          "type": "uint88"
        },
        {
          "internalType": "address",
          "name": "user",
          "type": "address"
        },
        {
          "internalType": "bool",
          "name": "completed",
          "type": "bool"
        }
      ],
      "stateMutability": "view",
      "type": "function"
    },
    {
      "inputs": [],
      "name": "cancelDefaultAdminTransfer",
      "outputs": [],
      "stateMutability": "nonpayable",
      "type": "function"
    },
    {
      "inputs": [
        {
          "internalType": "uint48",
          "name": "newDelay",
          "type": "uint48"
        }
      ],
      "name": "changeDefaultAdminDelay",
      "outputs": [],
      "stateMutability": "nonpayable",
      "type": "function"
    },
    {
      "inputs": [],
      "name": "defaultAdmin",
      "outputs": [
        {
          "internalType": "address",
          "name": "",
          "type": "address"
        }
      ],
      "stateMutability": "view",
      "type": "function"
    },
    {
      "inputs": [],
      "name": "defaultAdminDelay",
      "outputs": [
        {
          "internalType": "uint48",
          "name": "",
          "type": "uint48"
        }
      ],
      "stateMutability": "view",
      "type": "function"
    },
    {
      "inputs": [],
      "name": "defaultAdminDelayIncreaseWait",
      "outputs": [
        {
          "internalType": "uint48",
          "name": "",
          "type": "uint48"
        }
      ],
      "stateMutability": "view",
      "type": "function"
    },
    {
      "inputs": [],
      "name": "flip",
      "outputs": [
        {
          "internalType": "contract IERC20",
          "name": "",
          "type": "address"
        }
      ],
      "stateMutability": "view",
      "type": "function"
    },
    {
      "inputs": [],
      "name": "getAllBurns",
      "outputs": [
        {
          "components": [
            {
              "internalType": "uint88",
              "name": "amount",
              "type": "uint88"
            },
            {
              "internalType": "address",
              "name": "user",
              "type": "address"
            },
            {
              "internalType": "bool",
              "name": "completed",
              "type": "bool"
            }
          ],
          "internalType": "struct BurnerV1.burn_[]",
          "name": "",
          "type": "tuple[]"
        }
      ],
      "stateMutability": "view",
      "type": "function"
    },
    {
      "inputs": [
        {
          "internalType": "address",
          "name": "account",
          "type": "address"
        }
      ],
      "name": "getBurnIds",
      "outputs": [
        {
          "internalType": "uint256[]",
          "name": "",
          "type": "uint256[]"
        }
      ],
      "stateMutability": "view",
      "type": "function"
    },
    {
      "inputs": [
        {
          "internalType": "address",
          "name": "account",
          "type": "address"
        }
      ],
      "name": "getBurns",
      "outputs": [
        {
          "components": [
            {
              "internalType": "uint88",
              "name": "amount",
              "type": "uint88"
            },
            {
              "internalType": "address",
              "name": "user",
              "type": "address"
            },
            {
              "internalType": "bool",
              "name": "completed",
              "type": "bool"
            }
          ],
          "internalType": "struct BurnerV1.burn_[]",
          "name": "",
          "type": "tuple[]"
        },
        {
          "internalType": "uint256[]",
          "name": "",
          "type": "uint256[]"
        },
        {
          "internalType": "bool[]",
          "name": "",
          "type": "bool[]"
        }
      ],
      "stateMutability": "view",
      "type": "function"
    },
    {
      "inputs": [
        {
          "internalType": "bytes32",
          "name": "role",
          "type": "bytes32"
        }
      ],
      "name": "getRoleAdmin",
      "outputs": [
        {
          "internalType": "bytes32",
          "name": "",
          "type": "bytes32"
        }
      ],
      "stateMutability": "view",
      "type": "function"
    },
    {
      "inputs": [
        {
          "internalType": "bytes32",
          "name": "role",
          "type": "bytes32"
        },
        {
          "internalType": "address",
          "name": "account",
          "type": "address"
        }
      ],
      "name": "grantRole",
      "outputs": [],
      "stateMutability": "nonpayable",
      "type": "function"
    },
    {
      "inputs": [
        {
          "internalType": "bytes32",
          "name": "role",
          "type": "bytes32"
        },
        {
          "internalType": "address",
          "name": "account",
          "type": "address"
        }
      ],
      "name": "hasRole",
      "outputs": [
        {
          "internalType": "bool",
          "name": "",
          "type": "bool"
        }
      ],
      "stateMutability": "view",
      "type": "function"
    },
    {
      "inputs": [
        {
          "internalType": "address",
          "name": "stflip_",
          "type": "address"
        },
        {
          "internalType": "address",
          "name": "gov_",
          "type": "address"
        },
        {
          "internalType": "address",
          "name": "flip_",
          "type": "address"
        },
        {
          "internalType": "address",
          "name": "output_",
          "type": "address"
        }
      ],
      "name": "initialize",
      "outputs": [],
      "stateMutability": "nonpayable",
      "type": "function"
    },
    {
      "inputs": [],
      "name": "output",
      "outputs": [
        {
          "internalType": "address",
          "name": "",
          "type": "address"
        }
      ],
      "stateMutability": "view",
      "type": "function"
    },
    {
      "inputs": [],
      "name": "owner",
      "outputs": [
        {
          "internalType": "address",
          "name": "",
          "type": "address"
        }
      ],
      "stateMutability": "view",
      "type": "function"
    },
    {
      "inputs": [],
      "name": "pendingDefaultAdmin",
      "outputs": [
        {
          "internalType": "address",
          "name": "newAdmin",
          "type": "address"
        },
        {
          "internalType": "uint48",
          "name": "schedule",
          "type": "uint48"
        }
      ],
      "stateMutability": "view",
      "type": "function"
    },
    {
      "inputs": [],
      "name": "pendingDefaultAdminDelay",
      "outputs": [
        {
          "internalType": "uint48",
          "name": "newDelay",
          "type": "uint48"
        },
        {
          "internalType": "uint48",
          "name": "schedule",
          "type": "uint48"
        }
      ],
      "stateMutability": "view",
      "type": "function"
    },
    {
      "inputs": [
        {
          "internalType": "uint256",
          "name": "burnId",
          "type": "uint256"
        }
      ],
      "name": "redeem",
      "outputs": [],
      "stateMutability": "nonpayable",
      "type": "function"
    },
    {
      "inputs": [
        {
          "internalType": "uint256",
          "name": "burnId",
          "type": "uint256"
        }
      ],
      "name": "redeemable",
      "outputs": [
        {
          "internalType": "bool",
          "name": "",
          "type": "bool"
        }
      ],
      "stateMutability": "view",
      "type": "function"
    },
    {
      "inputs": [],
      "name": "redeemed",
      "outputs": [
        {
          "internalType": "uint256",
          "name": "",
          "type": "uint256"
        }
      ],
      "stateMutability": "view",
      "type": "function"
    },
    {
      "inputs": [
        {
          "internalType": "bytes32",
          "name": "role",
          "type": "bytes32"
        },
        {
          "internalType": "address",
          "name": "account",
          "type": "address"
        }
      ],
      "name": "renounceRole",
      "outputs": [],
      "stateMutability": "nonpayable",
      "type": "function"
    },
    {
      "inputs": [
        {
          "internalType": "bytes32",
          "name": "role",
          "type": "bytes32"
        },
        {
          "internalType": "address",
          "name": "account",
          "type": "address"
        }
      ],
      "name": "revokeRole",
      "outputs": [],
      "stateMutability": "nonpayable",
      "type": "function"
    },
    {
      "inputs": [],
      "name": "rollbackDefaultAdminDelay",
      "outputs": [],
      "stateMutability": "nonpayable",
      "type": "function"
    },
    {
      "inputs": [],
      "name": "stflip",
      "outputs": [
        {
          "internalType": "contract stFlip",
          "name": "",
          "type": "address"
        }
      ],
      "stateMutability": "view",
      "type": "function"
    },
    {
      "inputs": [
        {
          "internalType": "uint256",
          "name": "",
          "type": "uint256"
        }
      ],
      "name": "sums",
      "outputs": [
        {
          "internalType": "uint256",
          "name": "",
          "type": "uint256"
        }
      ],
      "stateMutability": "view",
      "type": "function"
    },
    {
      "inputs": [
        {
          "internalType": "bytes4",
          "name": "interfaceId",
          "type": "bytes4"
        }
      ],
      "name": "supportsInterface",
      "outputs": [
        {
          "internalType": "bool",
          "name": "",
          "type": "bool"
        }
      ],
      "stateMutability": "view",
      "type": "function"
    },
    {
      "inputs": [],
      "name": "totalPendingBurns",
      "outputs": [
        {
          "internalType": "uint256",
          "name": "",
          "type": "uint256"
        }
      ],
      "stateMutability": "view",
      "type": "function"
    }
  ],
  "bytecode": {
    "object": "0x608060405234801561000f575f80fd5b5061001861001d565b6100d9565b5f54610100900460ff16156100885760405162461bcd60e51b815260206004820152602760248201527f496e697469616c697a61626c653a20636f6e747261637420697320696e697469604482015266616c697a696e6760c81b606482015260840160405180910390fd5b5f5460ff908116146100d7575f805460ff191660ff9081179091556040519081527f7f26b83ff96e1f2b6a682f133852f6798a09c465da95921460cefb38474024989060200160405180910390a15b565b61239d80620000e75f395ff3fe608060405234801561000f575f80fd5b5060043610610234575f3560e01c80639dc29fac11610135578063d547741f116100b4578063e82748ca11610079578063e82748ca14610595578063ec87621c146105bc578063f025b209146105e3578063f20eaeb8146105f6578063f8c8765e14610609575f80fd5b8063d547741f14610537578063d602b9fd1461054a578063db006a7514610552578063e231bff014610565578063e63ab1e91461056e575f80fd5b8063ccc57490116100fa578063ccc57490146104a0578063cde4efa9146104c7578063cefc1429146104da578063cf6eefb7146104e2578063d539139314610510575f80fd5b80639dc29fac14610415578063a1eda53c14610428578063a217fddf1461044f578063a86eb29214610456578063cc8463c814610498575f80fd5b806336568abe116101c1578063825a926f11610186578063825a926f1461039b57806383eb70e5146103ae57806384ef8ffc146103d55780638da5cb5b146103fa57806391d1485414610402575f80fd5b806336568abe1461033a578063462126d71461034d5780635fc631021461036d578063634e93da14610375578063649a5ec714610388575f80fd5b80630aa6220b116102075780630aa6220b146102b35780631f564a45146102bd578063248a9ca3146102de578063282c51f3146103005780632f2ff15d14610327575f80fd5b806301ffc9a714610238578063022d63fb14610260578063039fa5de1461027c57806303b41f741461029e575b5f80fd5b61024b610246366004611edb565b61061c565b60405190151581526020015b60405180910390f35b620697805b60405165ffffffffffff9091168152602001610257565b61028f61028a366004611f1d565b610646565b60405161025793929190611fc7565b6102a6610810565b6040516102579190612030565b6102bb61089a565b005b6102d06102cb366004612042565b6108af565b604051908152602001610257565b6102d06102ec366004612042565b5f9081526065602052604090206001015490565b6102d07f3c11d16cbaffd01df69ce1c404f6340ee057498f5f00246190ea54220576a84881565b6102bb610335366004612059565b6108ce565b6102bb610348366004612059565b61094d565b61036061035b366004611f1d565b610a36565b6040516102579190612083565b6102d0610a41565b6102bb610383366004611f1d565b610a81565b6102bb610396366004612095565b610a94565b61024b6103a9366004612042565b610aa7565b6102d07f5fde63b561377d1441afa201ff619faac2ff8fed70a7fbdbe7a5cb07768c0b7581565b6098546001600160a01b03165b6040516001600160a01b039091168152602001610257565b6103e2610ab1565b61024b610410366004612059565b610ac4565b6102d06104233660046120ba565b610aee565b610430610ccb565b6040805165ffffffffffff938416815292909116602083015201610257565b6102d05f81565b610469610464366004612042565b610d1d565b604080516001600160581b0390941684526001600160a01b039092166020840152151590820152606001610257565b610265610d61565b6102d07f7935bd0ae54bc31f548c14dba4d37c5c64b3f8ca900cb468fb8abd54d5894f5581565b60ce546103e2906001600160a01b031681565b6102bb610dbf565b6104ea610e3c565b604080516001600160a01b03909316835265ffffffffffff909116602083015201610257565b6102d07f9f2df0fed2c77648de5860a4cc508cd0818c85b8b8a1ab4ceeef8d981c8956a681565b6102bb610545366004612059565b610e5d565b6102bb610eda565b6102bb610560366004612042565b610eec565b6102d060ca5481565b6102d07f65d7a28e3265b37a6474929f336521b332c1681b933f6cb9f3376673440d862a81565b6102d07fb6edeab710812f8917b946c63c63b900f456e6a1abea66a90b1f8277f035664b81565b6102d07f241ecf16d79d0f8dbfb92cbc07fe17840425976cf0667f022fe9877caa831b0881565b60cd546103e2906001600160a01b031681565b60c9546103e2906001600160a01b031681565b6102bb6106173660046120e2565b611072565b5f6001600160e01b031982166318a4c3c360e11b1480610640575061064082611294565b92915050565b60608060605f610655856112c8565b90505f815167ffffffffffffffff81111561067257610672612133565b6040519080825280602002602001820160405280156106bb57816020015b604080516060810182525f80825260208083018290529282015282525f199092019101816106905790505b5090505f825167ffffffffffffffff8111156106d9576106d9612133565b604051908082528060200260200182016040528015610702578160200160208202803683370190505b5083519091505f5b818110156108015760cb85828151811061072657610726612147565b60200260200101518154811061073e5761073e612147565b5f9182526020918290206040805160608101825291909201546001600160581b03811682526001600160a01b03600160581b8204169382019390935260ff600160f81b9093049290921615159082015284518590839081106107a2576107a2612147565b60200260200101819052506107cf8582815181106107c2576107c2612147565b602002602001015161143f565b8382815181106107e1576107e1612147565b911515602092830291909101909101526107fa8161216f565b905061070a565b50919792965094509092505050565b606060cb805480602002602001604051908101604052809291908181526020015f905b82821015610891575f84815260209081902060408051606081018252918501546001600160581b0381168352600160581b81046001600160a01b031683850152600160f81b900460ff16151590820152825260019092019101610833565b50505050905090565b5f6108a48161153d565b6108ac611547565b50565b60cc81815481106108be575f80fd5b5f91825260209091200154905081565b8161093f5760405162461bcd60e51b815260206004820152603660248201527f416363657373436f6e74726f6c3a2063616e2774206469726563746c79206772604482015275616e742064656661756c742061646d696e20726f6c6560501b60648201526084015b60405180910390fd5b6109498282611553565b5050565b8115801561096857506098546001600160a01b038281169116145b15610a2c575f80610977610e3c565b90925090506001600160a01b03821615801561099a575065ffffffffffff811615155b80156109ad57504265ffffffffffff8216105b610a175760405162461bcd60e51b815260206004820152603560248201527f416363657373436f6e74726f6c3a206f6e6c792063616e2072656e6f756e636560448201527420696e2074776f2064656c6179656420737465707360581b6064820152608401610936565b50506097805465ffffffffffff60a01b191690555b610949828261157c565b6060610640826112c8565b5f60ca5460cc600160cb80549050610a599190612187565b81548110610a6957610a69612147565b905f5260205f200154610a7c9190612187565b905090565b5f610a8b8161153d565b610949826115f6565b5f610a9e8161153d565b61094982611668565b5f6106408261143f565b5f610a7c6098546001600160a01b031690565b5f9182526065602090815260408084206001600160a01b0393909316845291905290205460ff1690565b5f6103e8821015610b1257604051630510c58960e11b815260040160405180910390fd5b60cd54604051633f34d4cf60e21b8152600481018490523360248201526001600160a01b039091169063fcd3533c906044016020604051808303815f875af1158015610b60573d5f803e3d5ffd5b505050506040513d601f19601f82011682018060405250810190610b84919061219a565b5060cb6040518060600160405280610b9b856116d7565b6001600160581b0390811682526001600160a01b038088166020808501919091525f6040948501819052865460018181018955978252908290208651910180549287015196909501511515600160f81b026001600160f81b0396909316600160581b026001600160f81b0319909216931692909217919091179290921691909117905560cc805490918291610c309190612187565b81548110610c4057610c40612147565b905f5260205f20015483610c5491906121b9565b8154600181810184555f9384526020909320015560cb54610c759190612187565b60405133815283906001600160a01b038616907f5d624aa9c148153ab3446c1b154f660ee7701e549fe9b62dab7171b1c80e6fa29060200160405180910390a460cb54610cc490600190612187565b9392505050565b6098545f90600160d01b900465ffffffffffff168015158015610cf657504265ffffffffffff821610155b610d01575f80610d15565b609854600160a01b900465ffffffffffff16815b915091509091565b60cb8181548110610d2c575f80fd5b5f918252602090912001546001600160581b0381169150600160581b81046001600160a01b031690600160f81b900460ff1683565b6098545f90600160d01b900465ffffffffffff168015158015610d8b57504265ffffffffffff8216105b610da657609754600160d01b900465ffffffffffff16610db9565b609854600160a01b900465ffffffffffff165b91505090565b5f610dc8610e3c565b509050336001600160a01b03821614610e345760405162461bcd60e51b815260206004820152602860248201527f416363657373436f6e74726f6c3a2070656e64696e672061646d696e206d75736044820152671d081858d8d95c1d60c21b6064820152608401610936565b6108ac611742565b6097546001600160a01b03811691600160a01b90910465ffffffffffff1690565b81610ed05760405162461bcd60e51b815260206004820152603760248201527f416363657373436f6e74726f6c3a2063616e2774206469726563746c7920726560448201527f766f6b652064656661756c742061646d696e20726f6c650000000000000000006064820152608401610936565b610949828261180a565b5f610ee48161153d565b6108ac61182e565b610ef58161143f565b15155f03610f1657604051630190a03160e71b815260040160405180910390fd5b600160cb8281548110610f2b57610f2b612147565b5f9182526020909120018054911515600160f81b026001600160f81b0390921691909117905560cb805482908110610f6557610f65612147565b5f9182526020909120015460ca54610f86916001600160581b0316906121b9565b60ca5560ce5460c95460cb80546001600160a01b03938416936323b872dd9316919085908110610fb857610fb8612147565b905f5260205f20015f01600b9054906101000a90046001600160a01b031660cb8581548110610fe957610fe9612147565b5f9182526020909120015460405160e085901b6001600160e01b03191681526001600160a01b0393841660048201529290911660248301526001600160581b031660448201526064016020604051808303815f875af115801561104e573d5f803e3d5ffd5b505050506040513d601f19601f82011682018060405250810190610949919061219a565b5f54610100900460ff161580801561109057505f54600160ff909116105b806110a95750303b1580156110a957505f5460ff166001145b61110c5760405162461bcd60e51b815260206004820152602e60248201527f496e697469616c697a61626c653a20636f6e747261637420697320616c72656160448201526d191e481a5b9a5d1a585b1a5e995960921b6064820152608401610936565b5f805460ff19166001179055801561112d575f805461ff0019166101001790555b60cd80546001600160a01b0319166001600160a01b0387161790556111525f85611838565b60ce80546001600160a01b038086166001600160a01b031992831617909255604080516060810182525f80825260208201818152600193830184815260cb8054808701825590845293517fa7ce836d032b2bf62b7e2097a8e0a6d8aeb35405ad15271e96d3b0188a1d06fb9094018054925191511515600160f81b026001600160f81b03928916600160581b026001600160f81b03199094166001600160581b03969096169590951792909217169290921790915560cc8054928301815581527f47197230e1e4b29fc0bd84d7d78966c0925452aff72a2a121538b102457e9ebe9091015560c9805492851692909116919091179055801561128d575f805461ff0019169055604051600181527f7f26b83ff96e1f2b6a682f133852f6798a09c465da95921460cefb38474024989060200160405180910390a15b5050505050565b5f6001600160e01b03198216637965db0b60e01b148061064057506301ffc9a760e01b6001600160e01b0319831614610640565b60cb546060905f9067ffffffffffffffff8111156112e8576112e8612133565b604051908082528060200260200182016040528015611311578160200160208202803683370190505b5060cb549091505f90815b8181101561139d57856001600160a01b031660cb828154811061134157611341612147565b5f91825260209091200154600160581b90046001600160a01b03160361138d578084848151811061137457611374612147565b6020908102919091010152826113898161216f565b9350505b6113968161216f565b905061131c565b505f8267ffffffffffffffff8111156113b8576113b8612133565b6040519080825280602002602001820160405280156113e1578160200160208202803683370190505b5090505f5b838110156114355784818151811061140057611400612147565b602002602001015182828151811061141a5761141a612147565b602090810291909101015261142e8161216f565b90506113e6565b5095945050505050565b5f8060ca5460cc848154811061145757611457612147565b905f5260205f200154106114935760ca5460cc848154811061147b5761147b612147565b905f5260205f20015461148e9190612187565b611495565b5f5b905060cb83815481106114aa576114aa612147565b5f91825260209091200154600160f81b900460ff16158015610cc4575060ce5460c9546040516370a0823160e01b81526001600160a01b0391821660048201529116906370a0823190602401602060405180830381865afa158015611511573d5f803e3d5ffd5b505050506040513d601f19601f8201168201806040525081019061153591906121cc565b101592915050565b6108ac8133611868565b6115515f806118c1565b565b5f8281526065602052604090206001015461156d8161153d565b6115778383611980565b505050565b6001600160a01b03811633146115ec5760405162461bcd60e51b815260206004820152602f60248201527f416363657373436f6e74726f6c3a2063616e206f6e6c792072656e6f756e636560448201526e103937b632b9903337b91039b2b63360891b6064820152608401610936565b6109498282611a29565b5f6115ff610d61565b61160842611a64565b61161291906121e3565b905061161e8282611aca565b60405165ffffffffffff821681526001600160a01b038316907f3377dc44241e779dd06afab5b788a35ca5f3b778836e2990bdb26a2a4b2e5ed69060200160405180910390a25050565b5f61167282611b47565b61167b42611a64565b61168591906121e3565b905061169182826118c1565b6040805165ffffffffffff8085168252831660208201527ff1038c18cf84a56e432fdbfaf746924b7ea511dfe03a6506a0ceba4888788d9b910160405180910390a15050565b5f6001600160581b0382111561173e5760405162461bcd60e51b815260206004820152602660248201527f53616665436173743a2076616c756520646f65736e27742066697420696e203860448201526538206269747360d01b6064820152608401610936565b5090565b5f8061174c610e3c565b915091506117618165ffffffffffff16151590565b801561177457504265ffffffffffff8216105b6117d15760405162461bcd60e51b815260206004820152602860248201527f416363657373436f6e74726f6c3a207472616e736665722064656c6179206e6f6044820152671d081c185cdcd95960c21b6064820152608401610936565b6117ec5f6117e76098546001600160a01b031690565b611a29565b6117f65f83611980565b5050609780546001600160d01b0319169055565b5f828152606560205260409020600101546118248161153d565b6115778383611a29565b6115515f80611aca565b5f54610100900460ff1661185e5760405162461bcd60e51b815260040161093690612209565b6109498282611b8e565b6118728282610ac4565b6109495761187f81611c33565b61188a836020611c45565b60405160200161189b929190612276565b60408051601f198184030181529082905262461bcd60e51b8252610936916004016122ea565b609854600160d01b900465ffffffffffff168015611943574265ffffffffffff8216101561191a57609854609780546001600160d01b0316600160a01b90920465ffffffffffff16600160d01b02919091179055611943565b6040517f2b1fa2edafe6f7b9e97c1a9e0c3660e645beb2dcaa2d45bdbf9beaf5472e1ec5905f90a15b50609880546001600160a01b0316600160a01b65ffffffffffff948516026001600160d01b031617600160d01b9290931691909102919091179055565b81611a1f575f6119986098546001600160a01b031690565b6001600160a01b031614611a035760405162461bcd60e51b815260206004820152602c60248201527f416363657373436f6e74726f6c3a2064656661756c742061646d696e20616c7260448201526b1958591e4819dc985b9d195960a21b6064820152608401610936565b609880546001600160a01b0319166001600160a01b0383161790555b6109498282611ddb565b81158015611a4457506098546001600160a01b038281169116145b15611a5a57609880546001600160a01b03191690555b6109498282611e60565b5f65ffffffffffff82111561173e5760405162461bcd60e51b815260206004820152602660248201527f53616665436173743a2076616c756520646f65736e27742066697420696e203460448201526538206269747360d01b6064820152608401610936565b5f611ad3610e3c565b6097805465ffffffffffff8616600160a01b026001600160d01b03199091166001600160a01b038816171790559150611b1590508165ffffffffffff16151590565b15611577576040517f8886ebfc4259abdbc16601dd8fb5678e54878f47b3c34836cfc51154a9605109905f90a1505050565b5f80611b51610d61565b90508065ffffffffffff168365ffffffffffff1611611b7957611b74838261231c565b610cc4565b610cc465ffffffffffff841662069780611ec6565b5f54610100900460ff16611bb45760405162461bcd60e51b815260040161093690612209565b6001600160a01b038116611c0a5760405162461bcd60e51b815260206004820152601e60248201527f416363657373436f6e74726f6c3a20302064656661756c742061646d696e00006044820152606401610936565b609780546001600160d01b0316600160d01b65ffffffffffff8516021790556109495f82611980565b60606106406001600160a01b03831660145b60605f611c5383600261233b565b611c5e9060026121b9565b67ffffffffffffffff811115611c7657611c76612133565b6040519080825280601f01601f191660200182016040528015611ca0576020820181803683370190505b509050600360fc1b815f81518110611cba57611cba612147565b60200101906001600160f81b03191690815f1a905350600f60fb1b81600181518110611ce857611ce8612147565b60200101906001600160f81b03191690815f1a9053505f611d0a84600261233b565b611d159060016121b9565b90505b6001811115611d8c576f181899199a1a9b1b9c1cb0b131b232b360811b85600f1660108110611d4957611d49612147565b1a60f81b828281518110611d5f57611d5f612147565b60200101906001600160f81b03191690815f1a90535060049490941c93611d8581612352565b9050611d18565b508315610cc45760405162461bcd60e51b815260206004820181905260248201527f537472696e67733a20686578206c656e67746820696e73756666696369656e746044820152606401610936565b611de58282610ac4565b610949575f8281526065602090815260408083206001600160a01b03851684529091529020805460ff19166001179055611e1c3390565b6001600160a01b0316816001600160a01b0316837f2f8788117e7eff1d82e926ec794901d17c78024a50270940304540a733656f0d60405160405180910390a45050565b611e6a8282610ac4565b15610949575f8281526065602090815260408083206001600160a01b0385168085529252808320805460ff1916905551339285917ff6391f5c32d9c69d2a47ea670b442974b53935d1edc7fd64eb21e047a839171b9190a45050565b5f818310611ed45781610cc4565b5090919050565b5f60208284031215611eeb575f80fd5b81356001600160e01b031981168114610cc4575f80fd5b80356001600160a01b0381168114611f18575f80fd5b919050565b5f60208284031215611f2d575f80fd5b610cc482611f02565b5f8151808452602080850194508084015f5b83811015611f8e57815180516001600160581b03168852838101516001600160a01b03168489015260409081015115159088015260609096019590820190600101611f48565b509495945050505050565b5f8151808452602080850194508084015f5b83811015611f8e57815187529582019590820190600101611fab565b606081525f611fd96060830186611f36565b602083820381850152611fec8287611f99565b848103604086015285518082528287019350908201905f5b81811015612022578451151583529383019391830191600101612004565b509098975050505050505050565b602081525f610cc46020830184611f36565b5f60208284031215612052575f80fd5b5035919050565b5f806040838503121561206a575f80fd5b8235915061207a60208401611f02565b90509250929050565b602081525f610cc46020830184611f99565b5f602082840312156120a5575f80fd5b813565ffffffffffff81168114610cc4575f80fd5b5f80604083850312156120cb575f80fd5b6120d483611f02565b946020939093013593505050565b5f805f80608085870312156120f5575f80fd5b6120fe85611f02565b935061210c60208601611f02565b925061211a60408601611f02565b915061212860608601611f02565b905092959194509250565b634e487b7160e01b5f52604160045260245ffd5b634e487b7160e01b5f52603260045260245ffd5b634e487b7160e01b5f52601160045260245ffd5b5f600182016121805761218061215b565b5060010190565b818103818111156106405761064061215b565b5f602082840312156121aa575f80fd5b81518015158114610cc4575f80fd5b808201808211156106405761064061215b565b5f602082840312156121dc575f80fd5b5051919050565b65ffffffffffff8181168382160190808211156122025761220261215b565b5092915050565b6020808252602b908201527f496e697469616c697a61626c653a20636f6e7472616374206973206e6f74206960408201526a6e697469616c697a696e6760a81b606082015260800190565b5f5b8381101561226e578181015183820152602001612256565b50505f910152565b7f416363657373436f6e74726f6c3a206163636f756e742000000000000000000081525f83516122ad816017850160208801612254565b7001034b99036b4b9b9b4b733903937b6329607d1b60179184019182015283516122de816028840160208801612254565b01602801949350505050565b602081525f8251806020840152612308816040850160208701612254565b601f01601f19169190910160400192915050565b65ffffffffffff8281168282160390808211156122025761220261215b565b80820281158282048414176106405761064061215b565b5f816123605761236061215b565b505f19019056fea26469706673582212201786d078d91cc2a367dc1d1c6def171299a4741aed117f14f1b733cee5cde13464736f6c63430008140033",
    "linkReferences": {}
  },
  "methodIdentifiers": {
    "BURNER_ROLE()": "282c51f3",
    "DEFAULT_ADMIN_ROLE()": "a217fddf",
    "FEE_RECIPIENT_ROLE()": "e82748ca",
    "GOVERNOR_ROLE()": "ccc57490",
    "MANAGER_ROLE()": "ec87621c",
    "MINTER_ROLE()": "d5391393",
    "PAUSER_ROLE()": "e63ab1e9",
    "REBASER_ROLE()": "83eb70e5",
    "acceptDefaultAdminTransfer()": "cefc1429",
    "beginDefaultAdminTransfer(address)": "634e93da",
    "burn(address,uint256)": "9dc29fac",
    "burns(uint256)": "a86eb292",
    "cancelDefaultAdminTransfer()": "d602b9fd",
    "changeDefaultAdminDelay(uint48)": "649a5ec7",
    "defaultAdmin()": "84ef8ffc",
    "defaultAdminDelay()": "cc8463c8",
    "defaultAdminDelayIncreaseWait()": "022d63fb",
    "flip()": "cde4efa9",
    "getAllBurns()": "03b41f74",
    "getBurnIds(address)": "462126d7",
    "getBurns(address)": "039fa5de",
    "getRoleAdmin(bytes32)": "248a9ca3",
    "grantRole(bytes32,address)": "2f2ff15d",
    "hasRole(bytes32,address)": "91d14854",
    "initialize(address,address,address,address)": "f8c8765e",
    "output()": "f20eaeb8",
    "owner()": "8da5cb5b",
    "pendingDefaultAdmin()": "cf6eefb7",
    "pendingDefaultAdminDelay()": "a1eda53c",
    "redeem(uint256)": "db006a75",
    "redeemable(uint256)": "825a926f",
    "redeemed()": "e231bff0",
    "renounceRole(bytes32,address)": "36568abe",
    "revokeRole(bytes32,address)": "d547741f",
    "rollbackDefaultAdminDelay()": "0aa6220b",
    "stflip()": "f025b209",
    "sums(uint256)": "1f564a45",
    "supportsInterface(bytes4)": "01ffc9a7",
    "totalPendingBurns()": "5fc63102"
  },
  "storageLayout": {
    "storage": [
      {
        "astId": 45871,
        "contract": "src/utils/BurnerV1.sol:BurnerV1",
        "label": "_initialized",
        "offset": 0,
        "slot": "0",
        "type": "t_uint8"
      },
      {
        "astId": 45874,
        "contract": "src/utils/BurnerV1.sol:BurnerV1",
        "label": "_initializing",
        "offset": 1,
        "slot": "0",
        "type": "t_bool"
      },
      {
        "astId": 47945,
        "contract": "src/utils/BurnerV1.sol:BurnerV1",
        "label": "__gap",
        "offset": 0,
        "slot": "1",
        "type": "t_array(t_uint256)50_storage"
      },
      {
        "astId": 48942,
        "contract": "src/utils/BurnerV1.sol:BurnerV1",
        "label": "__gap",
        "offset": 0,
        "slot": "51",
        "type": "t_array(t_uint256)50_storage"
      },
      {
        "astId": 44957,
        "contract": "src/utils/BurnerV1.sol:BurnerV1",
        "label": "_roles",
        "offset": 0,
        "slot": "101",
        "type": "t_mapping(t_bytes32,t_struct(RoleData)44952_storage)"
      },
      {
        "astId": 45252,
        "contract": "src/utils/BurnerV1.sol:BurnerV1",
        "label": "__gap",
        "offset": 0,
        "slot": "102",
        "type": "t_array(t_uint256)49_storage"
      },
      {
        "astId": 44222,
        "contract": "src/utils/BurnerV1.sol:BurnerV1",
        "label": "_pendingDefaultAdmin",
        "offset": 0,
        "slot": "151",
        "type": "t_address"
      },
      {
        "astId": 44224,
        "contract": "src/utils/BurnerV1.sol:BurnerV1",
        "label": "_pendingDefaultAdminSchedule",
        "offset": 20,
        "slot": "151",
        "type": "t_uint48"
      },
      {
        "astId": 44226,
        "contract": "src/utils/BurnerV1.sol:BurnerV1",
        "label": "_currentDelay",
        "offset": 26,
        "slot": "151",
        "type": "t_uint48"
      },
      {
        "astId": 44228,
        "contract": "src/utils/BurnerV1.sol:BurnerV1",
        "label": "_currentDefaultAdmin",
        "offset": 0,
        "slot": "152",
        "type": "t_address"
      },
      {
        "astId": 44230,
        "contract": "src/utils/BurnerV1.sol:BurnerV1",
        "label": "_pendingDelay",
        "offset": 20,
        "slot": "152",
        "type": "t_uint48"
      },
      {
        "astId": 44232,
        "contract": "src/utils/BurnerV1.sol:BurnerV1",
        "label": "_pendingDelaySchedule",
        "offset": 26,
        "slot": "152",
        "type": "t_uint48"
      },
      {
        "astId": 44916,
        "contract": "src/utils/BurnerV1.sol:BurnerV1",
        "label": "__gap",
        "offset": 0,
        "slot": "153",
        "type": "t_array(t_uint256)48_storage"
      },
      {
        "astId": 74072,
        "contract": "src/utils/BurnerV1.sol:BurnerV1",
        "label": "output",
        "offset": 0,
        "slot": "201",
        "type": "t_address"
      },
      {
        "astId": 74074,
        "contract": "src/utils/BurnerV1.sol:BurnerV1",
        "label": "redeemed",
        "offset": 0,
        "slot": "202",
        "type": "t_uint256"
      },
      {
        "astId": 74088,
        "contract": "src/utils/BurnerV1.sol:BurnerV1",
        "label": "burns",
        "offset": 0,
        "slot": "203",
        "type": "t_array(t_struct(burn_)74084_storage)dyn_storage"
      },
      {
        "astId": 74091,
        "contract": "src/utils/BurnerV1.sol:BurnerV1",
        "label": "sums",
        "offset": 0,
        "slot": "204",
        "type": "t_array(t_uint256)dyn_storage"
      },
      {
        "astId": 74094,
        "contract": "src/utils/BurnerV1.sol:BurnerV1",
        "label": "stflip",
        "offset": 0,
        "slot": "205",
        "type": "t_contract(stFlip)73252"
      },
      {
        "astId": 74097,
        "contract": "src/utils/BurnerV1.sol:BurnerV1",
        "label": "flip",
        "offset": 0,
        "slot": "206",
        "type": "t_contract(IERC20)57630"
      }
    ],
    "types": {
      "t_address": {
        "encoding": "inplace",
        "label": "address",
        "numberOfBytes": "20"
      },
      "t_array(t_struct(burn_)74084_storage)dyn_storage": {
        "encoding": "dynamic_array",
        "label": "struct BurnerV1.burn_[]",
        "numberOfBytes": "32",
        "base": "t_struct(burn_)74084_storage"
      },
      "t_array(t_uint256)48_storage": {
        "encoding": "inplace",
        "label": "uint256[48]",
        "numberOfBytes": "1536",
        "base": "t_uint256"
      },
      "t_array(t_uint256)49_storage": {
        "encoding": "inplace",
        "label": "uint256[49]",
        "numberOfBytes": "1568",
        "base": "t_uint256"
      },
      "t_array(t_uint256)50_storage": {
        "encoding": "inplace",
        "label": "uint256[50]",
        "numberOfBytes": "1600",
        "base": "t_uint256"
      },
      "t_array(t_uint256)dyn_storage": {
        "encoding": "dynamic_array",
        "label": "uint256[]",
        "numberOfBytes": "32",
        "base": "t_uint256"
      },
      "t_bool": {
        "encoding": "inplace",
        "label": "bool",
        "numberOfBytes": "1"
      },
      "t_bytes32": {
        "encoding": "inplace",
        "label": "bytes32",
        "numberOfBytes": "32"
      },
      "t_contract(IERC20)57630": {
        "encoding": "inplace",
        "label": "contract IERC20",
        "numberOfBytes": "20"
      },
      "t_contract(stFlip)73252": {
        "encoding": "inplace",
        "label": "contract stFlip",
        "numberOfBytes": "20"
      },
      "t_mapping(t_address,t_bool)": {
        "encoding": "mapping",
        "key": "t_address",
        "label": "mapping(address => bool)",
        "numberOfBytes": "32",
        "value": "t_bool"
      },
      "t_mapping(t_bytes32,t_struct(RoleData)44952_storage)": {
        "encoding": "mapping",
        "key": "t_bytes32",
        "label": "mapping(bytes32 => struct AccessControlUpgradeable.RoleData)",
        "numberOfBytes": "32",
        "value": "t_struct(RoleData)44952_storage"
      },
      "t_struct(RoleData)44952_storage": {
        "encoding": "inplace",
        "label": "struct AccessControlUpgradeable.RoleData",
        "numberOfBytes": "64",
        "members": [
          {
            "astId": 44949,
            "contract": "src/utils/BurnerV1.sol:BurnerV1",
            "label": "members",
            "offset": 0,
            "slot": "0",
            "type": "t_mapping(t_address,t_bool)"
          },
          {
            "astId": 44951,
            "contract": "src/utils/BurnerV1.sol:BurnerV1",
            "label": "adminRole",
            "offset": 0,
            "slot": "1",
            "type": "t_bytes32"
          }
        ]
      },
      "t_struct(burn_)74084_storage": {
        "encoding": "inplace",
        "label": "struct BurnerV1.burn_",
        "numberOfBytes": "32",
        "members": [
          {
            "astId": 74079,
            "contract": "src/utils/BurnerV1.sol:BurnerV1",
            "label": "amount",
            "offset": 0,
            "slot": "0",
            "type": "t_uint88"
          },
          {
            "astId": 74081,
            "contract": "src/utils/BurnerV1.sol:BurnerV1",
            "label": "user",
            "offset": 11,
            "slot": "0",
            "type": "t_address"
          },
          {
            "astId": 74083,
            "contract": "src/utils/BurnerV1.sol:BurnerV1",
            "label": "completed",
            "offset": 31,
            "slot": "0",
            "type": "t_bool"
          }
        ]
      },
      "t_uint256": {
        "encoding": "inplace",
        "label": "uint256",
        "numberOfBytes": "32"
      },
      "t_uint48": {
        "encoding": "inplace",
        "label": "uint48",
        "numberOfBytes": "6"
      },
      "t_uint8": {
        "encoding": "inplace",
        "label": "uint8",
        "numberOfBytes": "1"
      },
      "t_uint88": {
        "encoding": "inplace",
        "label": "uint88",
        "numberOfBytes": "11"
      }
    }
  },
  "id": 189
}