{
  "abi": [
    {
      "inputs": [],
      "stateMutability": "nonpayable",
      "type": "constructor"
    },
    {
      "inputs": [],
      "name": "BelowMinimumMintAmount",
      "type": "error"
    },
    {
      "anonymous": false,
      "inputs": [],
      "name": "DefaultAdminDelayChangeCanceled",
      "type": "event"
    },
    {
      "anonymous": false,
      "inputs": [
        {
          "indexed": false,
          "internalType": "uint48",
          "name": "newDelay",
          "type": "uint48"
        },
        {
          "indexed": false,
          "internalType": "uint48",
          "name": "effectSchedule",
          "type": "uint48"
        }
      ],
      "name": "DefaultAdminDelayChangeScheduled",
      "type": "event"
    },
    {
      "anonymous": false,
      "inputs": [],
      "name": "DefaultAdminTransferCanceled",
      "type": "event"
    },
    {
      "anonymous": false,
      "inputs": [
        {
          "indexed": true,
          "internalType": "address",
          "name": "newAdmin",
          "type": "address"
        },
        {
          "indexed": false,
          "internalType": "uint48",
          "name": "acceptSchedule",
          "type": "uint48"
        }
      ],
      "name": "DefaultAdminTransferScheduled",
      "type": "event"
    },
    {
      "anonymous": false,
      "inputs": [
        {
          "indexed": false,
          "internalType": "uint8",
          "name": "version",
          "type": "uint8"
        }
      ],
      "name": "Initialized",
      "type": "event"
    },
    {
      "anonymous": false,
      "inputs": [
        {
          "indexed": true,
          "internalType": "bytes32",
          "name": "role",
          "type": "bytes32"
        },
        {
          "indexed": true,
          "internalType": "bytes32",
          "name": "previousAdminRole",
          "type": "bytes32"
        },
        {
          "indexed": true,
          "internalType": "bytes32",
          "name": "newAdminRole",
          "type": "bytes32"
        }
      ],
      "name": "RoleAdminChanged",
      "type": "event"
    },
    {
      "anonymous": false,
      "inputs": [
        {
          "indexed": true,
          "internalType": "bytes32",
          "name": "role",
          "type": "bytes32"
        },
        {
          "indexed": true,
          "internalType": "address",
          "name": "account",
          "type": "address"
        },
        {
          "indexed": true,
          "internalType": "address",
          "name": "sender",
          "type": "address"
        }
      ],
      "name": "RoleGranted",
      "type": "event"
    },
    {
      "anonymous": false,
      "inputs": [
        {
          "indexed": true,
          "internalType": "bytes32",
          "name": "role",
          "type": "bytes32"
        },
        {
          "indexed": true,
          "internalType": "address",
          "name": "account",
          "type": "address"
        },
        {
          "indexed": true,
          "internalType": "address",
          "name": "sender",
          "type": "address"
        }
      ],
      "name": "RoleRevoked",
      "type": "event"
    },
    {
      "inputs": [],
      "name": "BURNER_ROLE",
      "outputs": [
        {
          "internalType": "bytes32",
          "name": "",
          "type": "bytes32"
        }
      ],
      "stateMutability": "view",
      "type": "function"
    },
    {
      "inputs": [],
      "name": "DEFAULT_ADMIN_ROLE",
      "outputs": [
        {
          "internalType": "bytes32",
          "name": "",
          "type": "bytes32"
        }
      ],
      "stateMutability": "view",
      "type": "function"
    },
    {
      "inputs": [],
      "name": "FEE_RECIPIENT_ROLE",
      "outputs": [
        {
          "internalType": "bytes32",
          "name": "",
          "type": "bytes32"
        }
      ],
      "stateMutability": "view",
      "type": "function"
    },
    {
      "inputs": [],
      "name": "GOVERNOR_ROLE",
      "outputs": [
        {
          "internalType": "bytes32",
          "name": "",
          "type": "bytes32"
        }
      ],
      "stateMutability": "view",
      "type": "function"
    },
    {
      "inputs": [],
      "name": "MANAGER_ROLE",
      "outputs": [
        {
          "internalType": "bytes32",
          "name": "",
          "type": "bytes32"
        }
      ],
      "stateMutability": "view",
      "type": "function"
    },
    {
      "inputs": [],
      "name": "MINTER_ROLE",
      "outputs": [
        {
          "internalType": "bytes32",
          "name": "",
          "type": "bytes32"
        }
      ],
      "stateMutability": "view",
      "type": "function"
    },
    {
      "inputs": [],
      "name": "PAUSER_ROLE",
      "outputs": [
        {
          "internalType": "bytes32",
          "name": "",
          "type": "bytes32"
        }
      ],
      "stateMutability": "view",
      "type": "function"
    },
    {
      "inputs": [],
      "name": "REBASER_ROLE",
      "outputs": [
        {
          "internalType": "bytes32",
          "name": "",
          "type": "bytes32"
        }
      ],
      "stateMutability": "view",
      "type": "function"
    },
    {
      "inputs": [],
      "name": "acceptDefaultAdminTransfer",
      "outputs": [],
      "stateMutability": "nonpayable",
      "type": "function"
    },
    {
      "inputs": [
        {
          "internalType": "address",
          "name": "newAdmin",
          "type": "address"
        }
      ],
      "name": "beginDefaultAdminTransfer",
      "outputs": [],
      "stateMutability": "nonpayable",
      "type": "function"
    },
    {
      "inputs": [],
      "name": "cancelDefaultAdminTransfer",
      "outputs": [],
      "stateMutability": "nonpayable",
      "type": "function"
    },
    {
      "inputs": [
        {
          "internalType": "uint48",
          "name": "newDelay",
          "type": "uint48"
        }
      ],
      "name": "changeDefaultAdminDelay",
      "outputs": [],
      "stateMutability": "nonpayable",
      "type": "function"
    },
    {
      "inputs": [],
      "name": "defaultAdmin",
      "outputs": [
        {
          "internalType": "address",
          "name": "",
          "type": "address"
        }
      ],
      "stateMutability": "view",
      "type": "function"
    },
    {
      "inputs": [],
      "name": "defaultAdminDelay",
      "outputs": [
        {
          "internalType": "uint48",
          "name": "",
          "type": "uint48"
        }
      ],
      "stateMutability": "view",
      "type": "function"
    },
    {
      "inputs": [],
      "name": "defaultAdminDelayIncreaseWait",
      "outputs": [
        {
          "internalType": "uint48",
          "name": "",
          "type": "uint48"
        }
      ],
      "stateMutability": "view",
      "type": "function"
    },
    {
      "inputs": [],
      "name": "flip",
      "outputs": [
        {
          "internalType": "contract IERC20",
          "name": "",
          "type": "address"
        }
      ],
      "stateMutability": "view",
      "type": "function"
    },
    {
      "inputs": [
        {
          "internalType": "bytes32",
          "name": "role",
          "type": "bytes32"
        }
      ],
      "name": "getRoleAdmin",
      "outputs": [
        {
          "internalType": "bytes32",
          "name": "",
          "type": "bytes32"
        }
      ],
      "stateMutability": "view",
      "type": "function"
    },
    {
      "inputs": [
        {
          "internalType": "bytes32",
          "name": "role",
          "type": "bytes32"
        },
        {
          "internalType": "address",
          "name": "account",
          "type": "address"
        }
      ],
      "name": "grantRole",
      "outputs": [],
      "stateMutability": "nonpayable",
      "type": "function"
    },
    {
      "inputs": [
        {
          "internalType": "bytes32",
          "name": "role",
          "type": "bytes32"
        },
        {
          "internalType": "address",
          "name": "account",
          "type": "address"
        }
      ],
      "name": "hasRole",
      "outputs": [
        {
          "internalType": "bool",
          "name": "",
          "type": "bool"
        }
      ],
      "stateMutability": "view",
      "type": "function"
    },
    {
      "inputs": [
        {
          "internalType": "address",
          "name": "stflip_",
          "type": "address"
        },
        {
          "internalType": "address",
          "name": "output_",
          "type": "address"
        },
        {
          "internalType": "address",
          "name": "gov_",
          "type": "address"
        },
        {
          "internalType": "address",
          "name": "flip_",
          "type": "address"
        }
      ],
      "name": "initialize",
      "outputs": [],
      "stateMutability": "nonpayable",
      "type": "function"
    },
    {
      "inputs": [
        {
          "internalType": "address",
          "name": "to",
          "type": "address"
        },
        {
          "internalType": "uint256",
          "name": "amount",
          "type": "uint256"
        }
      ],
      "name": "mint",
      "outputs": [
        {
          "internalType": "bool",
          "name": "",
          "type": "bool"
        }
      ],
      "stateMutability": "nonpayable",
      "type": "function"
    },
    {
      "inputs": [],
      "name": "output",
      "outputs": [
        {
          "internalType": "address",
          "name": "",
          "type": "address"
        }
      ],
      "stateMutability": "view",
      "type": "function"
    },
    {
      "inputs": [],
      "name": "owner",
      "outputs": [
        {
          "internalType": "address",
          "name": "",
          "type": "address"
        }
      ],
      "stateMutability": "view",
      "type": "function"
    },
    {
      "inputs": [],
      "name": "pendingDefaultAdmin",
      "outputs": [
        {
          "internalType": "address",
          "name": "newAdmin",
          "type": "address"
        },
        {
          "internalType": "uint48",
          "name": "schedule",
          "type": "uint48"
        }
      ],
      "stateMutability": "view",
      "type": "function"
    },
    {
      "inputs": [],
      "name": "pendingDefaultAdminDelay",
      "outputs": [
        {
          "internalType": "uint48",
          "name": "newDelay",
          "type": "uint48"
        },
        {
          "internalType": "uint48",
          "name": "schedule",
          "type": "uint48"
        }
      ],
      "stateMutability": "view",
      "type": "function"
    },
    {
      "inputs": [
        {
          "internalType": "bytes32",
          "name": "role",
          "type": "bytes32"
        },
        {
          "internalType": "address",
          "name": "account",
          "type": "address"
        }
      ],
      "name": "renounceRole",
      "outputs": [],
      "stateMutability": "nonpayable",
      "type": "function"
    },
    {
      "inputs": [
        {
          "internalType": "bytes32",
          "name": "role",
          "type": "bytes32"
        },
        {
          "internalType": "address",
          "name": "account",
          "type": "address"
        }
      ],
      "name": "revokeRole",
      "outputs": [],
      "stateMutability": "nonpayable",
      "type": "function"
    },
    {
      "inputs": [],
      "name": "rollbackDefaultAdminDelay",
      "outputs": [],
      "stateMutability": "nonpayable",
      "type": "function"
    },
    {
      "inputs": [],
      "name": "stflip",
      "outputs": [
        {
          "internalType": "contract stFlip",
          "name": "",
          "type": "address"
        }
      ],
      "stateMutability": "view",
      "type": "function"
    },
    {
      "inputs": [
        {
          "internalType": "bytes4",
          "name": "interfaceId",
          "type": "bytes4"
        }
      ],
      "name": "supportsInterface",
      "outputs": [
        {
          "internalType": "bool",
          "name": "",
          "type": "bool"
        }
      ],
      "stateMutability": "view",
      "type": "function"
    }
  ],
  "bytecode": {
    "object": "0x608060405234801561000f575f80fd5b5061001861001d565b6100d9565b5f54610100900460ff16156100885760405162461bcd60e51b815260206004820152602760248201527f496e697469616c697a61626c653a20636f6e747261637420697320696e697469604482015266616c697a696e6760c81b606482015260840160405180910390fd5b5f5460ff908116146100d7575f805460ff191660ff9081179091556040519081527f7f26b83ff96e1f2b6a682f133852f6798a09c465da95921460cefb38474024989060200160405180910390a15b565b61181a806100e65f395ff3fe608060405234801561000f575f80fd5b50600436106101d1575f3560e01c8063a217fddf116100fe578063d547741f1161009e578063ec87621c1161006e578063ec87621c14610476578063f025b2091461049d578063f20eaeb8146104b0578063f8c8765e146104c3575f80fd5b8063d547741f1461040d578063d602b9fd14610420578063e63ab1e914610428578063e82748ca1461044f575f80fd5b8063cde4efa9116100d9578063cde4efa91461039d578063cefc1429146103b0578063cf6eefb7146103b8578063d5391393146103e6575f80fd5b8063a217fddf14610367578063cc8463c81461036e578063ccc5749014610376575f80fd5b806340c10f191161017457806384ef8ffc1161014457806384ef8ffc146103005780638da5cb5b1461032557806391d148541461032d578063a1eda53c14610340575f80fd5b806340c10f19146102a0578063634e93da146102b3578063649a5ec7146102c657806383eb70e5146102d9575f80fd5b8063248a9ca3116101af578063248a9ca314610223578063282c51f3146102535780632f2ff15d1461027a57806336568abe1461028d575f80fd5b806301ffc9a7146101d5578063022d63fb146101fd5780630aa6220b14610219575b5f80fd5b6101e86101e33660046114b8565b6104d6565b60405190151581526020015b60405180910390f35b620697805b60405165ffffffffffff90911681526020016101f4565b610221610500565b005b6102456102313660046114df565b5f9081526065602052604090206001015490565b6040519081526020016101f4565b6102457f3c11d16cbaffd01df69ce1c404f6340ee057498f5f00246190ea54220576a84881565b610221610288366004611511565b610515565b61022161029b366004611511565b610594565b6101e86102ae36600461153b565b61067d565b6102216102c1366004611563565b610731565b6102216102d436600461157c565b610744565b6102457f5fde63b561377d1441afa201ff619faac2ff8fed70a7fbdbe7a5cb07768c0b7581565b6098546001600160a01b03165b6040516001600160a01b0390911681526020016101f4565b61030d610757565b6101e861033b366004611511565b61076f565b610348610799565b6040805165ffffffffffff9384168152929091166020830152016101f4565b6102455f81565b6102026107eb565b6102457f7935bd0ae54bc31f548c14dba4d37c5c64b3f8ca900cb468fb8abd54d5894f5581565b60cb5461030d906001600160a01b031681565b610221610849565b6103c06108c6565b604080516001600160a01b03909316835265ffffffffffff9091166020830152016101f4565b6102457f9f2df0fed2c77648de5860a4cc508cd0818c85b8b8a1ab4ceeef8d981c8956a681565b61022161041b366004611511565b6108e7565b610221610964565b6102457f65d7a28e3265b37a6474929f336521b332c1681b933f6cb9f3376673440d862a81565b6102457fb6edeab710812f8917b946c63c63b900f456e6a1abea66a90b1f8277f035664b81565b6102457f241ecf16d79d0f8dbfb92cbc07fe17840425976cf0667f022fe9877caa831b0881565b60ca5461030d906001600160a01b031681565b60c95461030d906001600160a01b031681565b6102216104d13660046115a1565b610976565b5f6001600160e01b031982166318a4c3c360e11b14806104fa57506104fa82610ad2565b92915050565b5f61050a81610b06565b610512610b10565b50565b816105865760405162461bcd60e51b815260206004820152603660248201527f416363657373436f6e74726f6c3a2063616e2774206469726563746c79206772604482015275616e742064656661756c742061646d696e20726f6c6560501b60648201526084015b60405180910390fd5b6105908282610b1c565b5050565b811580156105af57506098546001600160a01b038281169116145b15610673575f806105be6108c6565b90925090506001600160a01b0382161580156105e1575065ffffffffffff811615155b80156105f457504265ffffffffffff8216105b61065e5760405162461bcd60e51b815260206004820152603560248201527f416363657373436f6e74726f6c3a206f6e6c792063616e2072656e6f756e636560448201527420696e2074776f2064656c6179656420737465707360581b606482015260840161057d565b50506097805465ffffffffffff60a01b191690555b6105908282610b45565b5f6103e88210156106a15760405163750396f360e01b815260040160405180910390fd5b60cb5460c9546040516323b872dd60e01b81523360048201526001600160a01b039182166024820152604481018590529116906323b872dd906064016020604051808303815f875af11580156106f9573d5f803e3d5ffd5b505050506040513d601f19601f8201168201806040525081019061071d91906115f2565b506107288383610bbf565b50600192915050565b5f61073b81610b06565b61059082610c33565b5f61074e81610b06565b61059082610ca5565b5f61076a6098546001600160a01b031690565b905090565b5f9182526065602090815260408084206001600160a01b0393909316845291905290205460ff1690565b6098545f90600160d01b900465ffffffffffff1680151580156107c457504265ffffffffffff821610155b6107cf575f806107e3565b609854600160a01b900465ffffffffffff16815b915091509091565b6098545f90600160d01b900465ffffffffffff16801515801561081557504265ffffffffffff8216105b61083057609754600160d01b900465ffffffffffff16610843565b609854600160a01b900465ffffffffffff165b91505090565b5f6108526108c6565b509050336001600160a01b038216146108be5760405162461bcd60e51b815260206004820152602860248201527f416363657373436f6e74726f6c3a2070656e64696e672061646d696e206d75736044820152671d081858d8d95c1d60c21b606482015260840161057d565b610512610d14565b6097546001600160a01b03811691600160a01b90910465ffffffffffff1690565b8161095a5760405162461bcd60e51b815260206004820152603760248201527f416363657373436f6e74726f6c3a2063616e2774206469726563746c7920726560448201527f766f6b652064656661756c742061646d696e20726f6c65000000000000000000606482015260840161057d565b6105908282610ddc565b5f61096e81610b06565b610512610e00565b5f54610100900460ff161580801561099457505f54600160ff909116105b806109ad5750303b1580156109ad57505f5460ff166001145b610a105760405162461bcd60e51b815260206004820152602e60248201527f496e697469616c697a61626c653a20636f6e747261637420697320616c72656160448201526d191e481a5b9a5d1a585b1a5e995960921b606482015260840161057d565b5f805460ff191660011790558015610a31575f805461ff0019166101001790555b60ca80546001600160a01b038088166001600160a01b03199283161790925560c9805492871692909116919091179055610a6b5f84610e0a565b60cb80546001600160a01b0319166001600160a01b0384161790558015610acb575f805461ff0019169055604051600181527f7f26b83ff96e1f2b6a682f133852f6798a09c465da95921460cefb38474024989060200160405180910390a15b5050505050565b5f6001600160e01b03198216637965db0b60e01b14806104fa57506301ffc9a760e01b6001600160e01b03198316146104fa565b6105128133610e3a565b610b1a5f80610e93565b565b5f82815260656020526040902060010154610b3681610b06565b610b408383610f52565b505050565b6001600160a01b0381163314610bb55760405162461bcd60e51b815260206004820152602f60248201527f416363657373436f6e74726f6c3a2063616e206f6e6c792072656e6f756e636560448201526e103937b632b9903337b91039b2b63360891b606482015260840161057d565b6105908282610ffb565b60ca546040516340c10f1960e01b81526001600160a01b03848116600483015260248201849052909116906340c10f19906044016020604051808303815f875af1158015610c0f573d5f803e3d5ffd5b505050506040513d601f19601f82011682018060405250810190610b4091906115f2565b5f610c3c6107eb565b610c4542611036565b610c4f9190611625565b9050610c5b82826110a0565b60405165ffffffffffff821681526001600160a01b038316907f3377dc44241e779dd06afab5b788a35ca5f3b778836e2990bdb26a2a4b2e5ed69060200160405180910390a25050565b5f610caf8261111d565b610cb842611036565b610cc29190611625565b9050610cce8282610e93565b6040805165ffffffffffff8085168252831660208201527ff1038c18cf84a56e432fdbfaf746924b7ea511dfe03a6506a0ceba4888788d9b910160405180910390a15050565b5f80610d1e6108c6565b91509150610d338165ffffffffffff16151590565b8015610d4657504265ffffffffffff8216105b610da35760405162461bcd60e51b815260206004820152602860248201527f416363657373436f6e74726f6c3a207472616e736665722064656c6179206e6f6044820152671d081c185cdcd95960c21b606482015260840161057d565b610dbe5f610db96098546001600160a01b031690565b610ffb565b610dc85f83610f52565b5050609780546001600160d01b0319169055565b5f82815260656020526040902060010154610df681610b06565b610b408383610ffb565b610b1a5f806110a0565b5f54610100900460ff16610e305760405162461bcd60e51b815260040161057d9061164b565b610590828261116b565b610e44828261076f565b61059057610e5181611210565b610e5c836020611222565b604051602001610e6d9291906116b8565b60408051601f198184030181529082905262461bcd60e51b825261057d9160040161172c565b609854600160d01b900465ffffffffffff168015610f15574265ffffffffffff82161015610eec57609854609780546001600160d01b0316600160a01b90920465ffffffffffff16600160d01b02919091179055610f15565b6040517f2b1fa2edafe6f7b9e97c1a9e0c3660e645beb2dcaa2d45bdbf9beaf5472e1ec5905f90a15b50609880546001600160a01b0316600160a01b65ffffffffffff948516026001600160d01b031617600160d01b9290931691909102919091179055565b81610ff1575f610f6a6098546001600160a01b031690565b6001600160a01b031614610fd55760405162461bcd60e51b815260206004820152602c60248201527f416363657373436f6e74726f6c3a2064656661756c742061646d696e20616c7260448201526b1958591e4819dc985b9d195960a21b606482015260840161057d565b609880546001600160a01b0319166001600160a01b0383161790555b61059082826113b8565b8115801561101657506098546001600160a01b038281169116145b1561102c57609880546001600160a01b03191690555b610590828261143d565b5f65ffffffffffff82111561109c5760405162461bcd60e51b815260206004820152602660248201527f53616665436173743a2076616c756520646f65736e27742066697420696e203460448201526538206269747360d01b606482015260840161057d565b5090565b5f6110a96108c6565b6097805465ffffffffffff8616600160a01b026001600160d01b03199091166001600160a01b0388161717905591506110eb90508165ffffffffffff16151590565b15610b40576040517f8886ebfc4259abdbc16601dd8fb5678e54878f47b3c34836cfc51154a9605109905f90a1505050565b5f806111276107eb565b90508065ffffffffffff168365ffffffffffff161161114f5761114a838261175e565b611164565b61116465ffffffffffff8416620697806114a3565b9392505050565b5f54610100900460ff166111915760405162461bcd60e51b815260040161057d9061164b565b6001600160a01b0381166111e75760405162461bcd60e51b815260206004820152601e60248201527f416363657373436f6e74726f6c3a20302064656661756c742061646d696e0000604482015260640161057d565b609780546001600160d01b0316600160d01b65ffffffffffff8516021790556105905f82610f52565b60606104fa6001600160a01b03831660145b60605f61123083600261177d565b61123b906002611794565b67ffffffffffffffff811115611253576112536117a7565b6040519080825280601f01601f19166020018201604052801561127d576020820181803683370190505b509050600360fc1b815f81518110611297576112976117bb565b60200101906001600160f81b03191690815f1a905350600f60fb1b816001815181106112c5576112c56117bb565b60200101906001600160f81b03191690815f1a9053505f6112e784600261177d565b6112f2906001611794565b90505b6001811115611369576f181899199a1a9b1b9c1cb0b131b232b360811b85600f1660108110611326576113266117bb565b1a60f81b82828151811061133c5761133c6117bb565b60200101906001600160f81b03191690815f1a90535060049490941c93611362816117cf565b90506112f5565b5083156111645760405162461bcd60e51b815260206004820181905260248201527f537472696e67733a20686578206c656e67746820696e73756666696369656e74604482015260640161057d565b6113c2828261076f565b610590575f8281526065602090815260408083206001600160a01b03851684529091529020805460ff191660011790556113f93390565b6001600160a01b0316816001600160a01b0316837f2f8788117e7eff1d82e926ec794901d17c78024a50270940304540a733656f0d60405160405180910390a45050565b611447828261076f565b15610590575f8281526065602090815260408083206001600160a01b0385168085529252808320805460ff1916905551339285917ff6391f5c32d9c69d2a47ea670b442974b53935d1edc7fd64eb21e047a839171b9190a45050565b5f8183106114b15781611164565b5090919050565b5f602082840312156114c8575f80fd5b81356001600160e01b031981168114611164575f80fd5b5f602082840312156114ef575f80fd5b5035919050565b80356001600160a01b038116811461150c575f80fd5b919050565b5f8060408385031215611522575f80fd5b82359150611532602084016114f6565b90509250929050565b5f806040838503121561154c575f80fd5b611555836114f6565b946020939093013593505050565b5f60208284031215611573575f80fd5b611164826114f6565b5f6020828403121561158c575f80fd5b813565ffffffffffff81168114611164575f80fd5b5f805f80608085870312156115b4575f80fd5b6115bd856114f6565b93506115cb602086016114f6565b92506115d9604086016114f6565b91506115e7606086016114f6565b905092959194509250565b5f60208284031215611602575f80fd5b81518015158114611164575f80fd5b634e487b7160e01b5f52601160045260245ffd5b65ffffffffffff81811683821601908082111561164457611644611611565b5092915050565b6020808252602b908201527f496e697469616c697a61626c653a20636f6e7472616374206973206e6f74206960408201526a6e697469616c697a696e6760a81b606082015260800190565b5f5b838110156116b0578181015183820152602001611698565b50505f910152565b7f416363657373436f6e74726f6c3a206163636f756e742000000000000000000081525f83516116ef816017850160208801611696565b7001034b99036b4b9b9b4b733903937b6329607d1b6017918401918201528351611720816028840160208801611696565b01602801949350505050565b602081525f825180602084015261174a816040850160208701611696565b601f01601f19169190910160400192915050565b65ffffffffffff82811682821603908082111561164457611644611611565b80820281158282048414176104fa576104fa611611565b808201808211156104fa576104fa611611565b634e487b7160e01b5f52604160045260245ffd5b634e487b7160e01b5f52603260045260245ffd5b5f816117dd576117dd611611565b505f19019056fea2646970667358221220b50f419997da09103091d6b33c214b2ad88f3c7ea762896e174deb5d4054d7d264736f6c63430008140033",
    "linkReferences": {}
  },
  "methodIdentifiers": {
    "BURNER_ROLE()": "282c51f3",
    "DEFAULT_ADMIN_ROLE()": "a217fddf",
    "FEE_RECIPIENT_ROLE()": "e82748ca",
    "GOVERNOR_ROLE()": "ccc57490",
    "MANAGER_ROLE()": "ec87621c",
    "MINTER_ROLE()": "d5391393",
    "PAUSER_ROLE()": "e63ab1e9",
    "REBASER_ROLE()": "83eb70e5",
    "acceptDefaultAdminTransfer()": "cefc1429",
    "beginDefaultAdminTransfer(address)": "634e93da",
    "cancelDefaultAdminTransfer()": "d602b9fd",
    "changeDefaultAdminDelay(uint48)": "649a5ec7",
    "defaultAdmin()": "84ef8ffc",
    "defaultAdminDelay()": "cc8463c8",
    "defaultAdminDelayIncreaseWait()": "022d63fb",
    "flip()": "cde4efa9",
    "getRoleAdmin(bytes32)": "248a9ca3",
    "grantRole(bytes32,address)": "2f2ff15d",
    "hasRole(bytes32,address)": "91d14854",
    "initialize(address,address,address,address)": "f8c8765e",
    "mint(address,uint256)": "40c10f19",
    "output()": "f20eaeb8",
    "owner()": "8da5cb5b",
    "pendingDefaultAdmin()": "cf6eefb7",
    "pendingDefaultAdminDelay()": "a1eda53c",
    "renounceRole(bytes32,address)": "36568abe",
    "revokeRole(bytes32,address)": "d547741f",
    "rollbackDefaultAdminDelay()": "0aa6220b",
    "stflip()": "f025b209",
    "supportsInterface(bytes4)": "01ffc9a7"
  },
  "storageLayout": {
    "storage": [
      {
        "astId": 45871,
        "contract": "src/utils/MinterV1.sol:MinterV1",
        "label": "_initialized",
        "offset": 0,
        "slot": "0",
        "type": "t_uint8"
      },
      {
        "astId": 45874,
        "contract": "src/utils/MinterV1.sol:MinterV1",
        "label": "_initializing",
        "offset": 1,
        "slot": "0",
        "type": "t_bool"
      },
      {
        "astId": 47945,
        "contract": "src/utils/MinterV1.sol:MinterV1",
        "label": "__gap",
        "offset": 0,
        "slot": "1",
        "type": "t_array(t_uint256)50_storage"
      },
      {
        "astId": 48942,
        "contract": "src/utils/MinterV1.sol:MinterV1",
        "label": "__gap",
        "offset": 0,
        "slot": "51",
        "type": "t_array(t_uint256)50_storage"
      },
      {
        "astId": 44957,
        "contract": "src/utils/MinterV1.sol:MinterV1",
        "label": "_roles",
        "offset": 0,
        "slot": "101",
        "type": "t_mapping(t_bytes32,t_struct(RoleData)44952_storage)"
      },
      {
        "astId": 45252,
        "contract": "src/utils/MinterV1.sol:MinterV1",
        "label": "__gap",
        "offset": 0,
        "slot": "102",
        "type": "t_array(t_uint256)49_storage"
      },
      {
        "astId": 44222,
        "contract": "src/utils/MinterV1.sol:MinterV1",
        "label": "_pendingDefaultAdmin",
        "offset": 0,
        "slot": "151",
        "type": "t_address"
      },
      {
        "astId": 44224,
        "contract": "src/utils/MinterV1.sol:MinterV1",
        "label": "_pendingDefaultAdminSchedule",
        "offset": 20,
        "slot": "151",
        "type": "t_uint48"
      },
      {
        "astId": 44226,
        "contract": "src/utils/MinterV1.sol:MinterV1",
        "label": "_currentDelay",
        "offset": 26,
        "slot": "151",
        "type": "t_uint48"
      },
      {
        "astId": 44228,
        "contract": "src/utils/MinterV1.sol:MinterV1",
        "label": "_currentDefaultAdmin",
        "offset": 0,
        "slot": "152",
        "type": "t_address"
      },
      {
        "astId": 44230,
        "contract": "src/utils/MinterV1.sol:MinterV1",
        "label": "_pendingDelay",
        "offset": 20,
        "slot": "152",
        "type": "t_uint48"
      },
      {
        "astId": 44232,
        "contract": "src/utils/MinterV1.sol:MinterV1",
        "label": "_pendingDelaySchedule",
        "offset": 26,
        "slot": "152",
        "type": "t_uint48"
      },
      {
        "astId": 44916,
        "contract": "src/utils/MinterV1.sol:MinterV1",
        "label": "__gap",
        "offset": 0,
        "slot": "153",
        "type": "t_array(t_uint256)48_storage"
      },
      {
        "astId": 74579,
        "contract": "src/utils/MinterV1.sol:MinterV1",
        "label": "output",
        "offset": 0,
        "slot": "201",
        "type": "t_address"
      },
      {
        "astId": 74585,
        "contract": "src/utils/MinterV1.sol:MinterV1",
        "label": "stflip",
        "offset": 0,
        "slot": "202",
        "type": "t_contract(stFlip)73252"
      },
      {
        "astId": 74588,
        "contract": "src/utils/MinterV1.sol:MinterV1",
        "label": "flip",
        "offset": 0,
        "slot": "203",
        "type": "t_contract(IERC20)57630"
      }
    ],
    "types": {
      "t_address": {
        "encoding": "inplace",
        "label": "address",
        "numberOfBytes": "20"
      },
      "t_array(t_uint256)48_storage": {
        "encoding": "inplace",
        "label": "uint256[48]",
        "numberOfBytes": "1536",
        "base": "t_uint256"
      },
      "t_array(t_uint256)49_storage": {
        "encoding": "inplace",
        "label": "uint256[49]",
        "numberOfBytes": "1568",
        "base": "t_uint256"
      },
      "t_array(t_uint256)50_storage": {
        "encoding": "inplace",
        "label": "uint256[50]",
        "numberOfBytes": "1600",
        "base": "t_uint256"
      },
      "t_bool": {
        "encoding": "inplace",
        "label": "bool",
        "numberOfBytes": "1"
      },
      "t_bytes32": {
        "encoding": "inplace",
        "label": "bytes32",
        "numberOfBytes": "32"
      },
      "t_contract(IERC20)57630": {
        "encoding": "inplace",
        "label": "contract IERC20",
        "numberOfBytes": "20"
      },
      "t_contract(stFlip)73252": {
        "encoding": "inplace",
        "label": "contract stFlip",
        "numberOfBytes": "20"
      },
      "t_mapping(t_address,t_bool)": {
        "encoding": "mapping",
        "key": "t_address",
        "label": "mapping(address => bool)",
        "numberOfBytes": "32",
        "value": "t_bool"
      },
      "t_mapping(t_bytes32,t_struct(RoleData)44952_storage)": {
        "encoding": "mapping",
        "key": "t_bytes32",
        "label": "mapping(bytes32 => struct AccessControlUpgradeable.RoleData)",
        "numberOfBytes": "32",
        "value": "t_struct(RoleData)44952_storage"
      },
      "t_struct(RoleData)44952_storage": {
        "encoding": "inplace",
        "label": "struct AccessControlUpgradeable.RoleData",
        "numberOfBytes": "64",
        "members": [
          {
            "astId": 44949,
            "contract": "src/utils/MinterV1.sol:MinterV1",
            "label": "members",
            "offset": 0,
            "slot": "0",
            "type": "t_mapping(t_address,t_bool)"
          },
          {
            "astId": 44951,
            "contract": "src/utils/MinterV1.sol:MinterV1",
            "label": "adminRole",
            "offset": 0,
            "slot": "1",
            "type": "t_bytes32"
          }
        ]
      },
      "t_uint256": {
        "encoding": "inplace",
        "label": "uint256",
        "numberOfBytes": "32"
      },
      "t_uint48": {
        "encoding": "inplace",
        "label": "uint48",
        "numberOfBytes": "6"
      },
      "t_uint8": {
        "encoding": "inplace",
        "label": "uint8",
        "numberOfBytes": "1"
      }
    }
  },
  "id": 190
}