{
  "abi": [
    {
      "inputs": [],
      "stateMutability": "nonpayable",
      "type": "constructor"
    },
    {
      "inputs": [],
      "name": "CannotAddToNullOperator",
      "type": "error"
    },
    {
      "inputs": [],
      "name": "FeesExceedMax",
      "type": "error"
    },
    {
      "inputs": [],
      "name": "InputLengthsMustMatch",
      "type": "error"
    },
    {
      "inputs": [],
      "name": "InsufficientOutputBalance",
      "type": "error"
    },
    {
      "inputs": [],
      "name": "NotManagerOfOperator",
      "type": "error"
    },
    {
      "inputs": [],
      "name": "OperatorNotWhitelisted",
      "type": "error"
    },
    {
      "inputs": [],
      "name": "ValidatorAlreadyAdded",
      "type": "error"
    },
    {
      "inputs": [],
      "name": "ValidatorNotWhitelisted",
      "type": "error"
    },
    {
      "anonymous": false,
      "inputs": [],
      "name": "DefaultAdminDelayChangeCanceled",
      "type": "event"
    },
    {
      "anonymous": false,
      "inputs": [
        {
          "indexed": false,
          "internalType": "uint48",
          "name": "newDelay",
          "type": "uint48"
        },
        {
          "indexed": false,
          "internalType": "uint48",
          "name": "effectSchedule",
          "type": "uint48"
        }
      ],
      "name": "DefaultAdminDelayChangeScheduled",
      "type": "event"
    },
    {
      "anonymous": false,
      "inputs": [],
      "name": "DefaultAdminTransferCanceled",
      "type": "event"
    },
    {
      "anonymous": false,
      "inputs": [
        {
          "indexed": true,
          "internalType": "address",
          "name": "newAdmin",
          "type": "address"
        },
        {
          "indexed": false,
          "internalType": "uint48",
          "name": "acceptSchedule",
          "type": "uint48"
        }
      ],
      "name": "DefaultAdminTransferScheduled",
      "type": "event"
    },
    {
      "anonymous": false,
      "inputs": [
        {
          "indexed": false,
          "internalType": "uint8",
          "name": "version",
          "type": "uint8"
        }
      ],
      "name": "Initialized",
      "type": "event"
    },
    {
      "anonymous": false,
      "inputs": [
        {
          "indexed": true,
          "internalType": "string",
          "name": "name",
          "type": "string"
        },
        {
          "indexed": true,
          "internalType": "uint256",
          "name": "serviceFeeBps",
          "type": "uint256"
        },
        {
          "indexed": true,
          "internalType": "uint256",
          "name": "validatorFeeBps",
          "type": "uint256"
        },
        {
          "indexed": false,
          "internalType": "uint256",
          "name": "validatorAllowance",
          "type": "uint256"
        },
        {
          "indexed": false,
          "internalType": "address",
          "name": "manager",
          "type": "address"
        }
      ],
      "name": "OperatorAdded",
      "type": "event"
    },
    {
      "anonymous": false,
      "inputs": [
        {
          "indexed": true,
          "internalType": "uint256",
          "name": "serviceFeeBps",
          "type": "uint256"
        },
        {
          "indexed": true,
          "internalType": "uint256",
          "name": "validatorFeeBps",
          "type": "uint256"
        },
        {
          "indexed": true,
          "internalType": "uint256",
          "name": "operatorId",
          "type": "uint256"
        }
      ],
      "name": "OperatorFeeUpdated",
      "type": "event"
    },
    {
      "anonymous": false,
      "inputs": [
        {
          "indexed": true,
          "internalType": "uint256",
          "name": "operatorId",
          "type": "uint256"
        },
        {
          "indexed": true,
          "internalType": "bool",
          "name": "whitelist",
          "type": "bool"
        }
      ],
      "name": "OperatorWhitelistUpdated",
      "type": "event"
    },
    {
      "anonymous": false,
      "inputs": [
        {
          "indexed": true,
          "internalType": "bytes32",
          "name": "role",
          "type": "bytes32"
        },
        {
          "indexed": true,
          "internalType": "bytes32",
          "name": "previousAdminRole",
          "type": "bytes32"
        },
        {
          "indexed": true,
          "internalType": "bytes32",
          "name": "newAdminRole",
          "type": "bytes32"
        }
      ],
      "name": "RoleAdminChanged",
      "type": "event"
    },
    {
      "anonymous": false,
      "inputs": [
        {
          "indexed": true,
          "internalType": "bytes32",
          "name": "role",
          "type": "bytes32"
        },
        {
          "indexed": true,
          "internalType": "address",
          "name": "account",
          "type": "address"
        },
        {
          "indexed": true,
          "internalType": "address",
          "name": "sender",
          "type": "address"
        }
      ],
      "name": "RoleGranted",
      "type": "event"
    },
    {
      "anonymous": false,
      "inputs": [
        {
          "indexed": true,
          "internalType": "bytes32",
          "name": "role",
          "type": "bytes32"
        },
        {
          "indexed": true,
          "internalType": "address",
          "name": "account",
          "type": "address"
        },
        {
          "indexed": true,
          "internalType": "address",
          "name": "sender",
          "type": "address"
        }
      ],
      "name": "RoleRevoked",
      "type": "event"
    },
    {
      "anonymous": false,
      "inputs": [
        {
          "indexed": true,
          "internalType": "uint256",
          "name": "newAllowance",
          "type": "uint256"
        },
        {
          "indexed": true,
          "internalType": "uint256",
          "name": "operatorId",
          "type": "uint256"
        }
      ],
      "name": "ValidatorAllowanceUpdated",
      "type": "event"
    },
    {
      "anonymous": false,
      "inputs": [
        {
          "indexed": true,
          "internalType": "uint256",
          "name": "count",
          "type": "uint256"
        },
        {
          "indexed": true,
          "internalType": "uint256",
          "name": "operatorId",
          "type": "uint256"
        }
      ],
      "name": "ValidatorsAdded",
      "type": "event"
    },
    {
      "anonymous": false,
      "inputs": [
        {
          "indexed": true,
          "internalType": "uint256",
          "name": "count",
          "type": "uint256"
        },
        {
          "indexed": true,
          "internalType": "uint256",
          "name": "amount",
          "type": "uint256"
        }
      ],
      "name": "ValidatorsFunded",
      "type": "event"
    },
    {
      "anonymous": false,
      "inputs": [
        {
          "indexed": true,
          "internalType": "uint256",
          "name": "count",
          "type": "uint256"
        },
        {
          "indexed": true,
          "internalType": "uint256",
          "name": "amount",
          "type": "uint256"
        }
      ],
      "name": "ValidatorsRedeemed",
      "type": "event"
    },
    {
      "anonymous": false,
      "inputs": [
        {
          "indexed": true,
          "internalType": "uint256",
          "name": "count",
          "type": "uint256"
        },
        {
          "indexed": true,
          "internalType": "bool",
          "name": "whitelist",
          "type": "bool"
        },
        {
          "indexed": true,
          "internalType": "bool",
          "name": "trackBalance",
          "type": "bool"
        }
      ],
      "name": "ValidatorsStatusUpdated",
      "type": "event"
    },
    {
      "anonymous": false,
      "inputs": [
        {
          "indexed": true,
          "internalType": "uint256",
          "name": "count",
          "type": "uint256"
        },
        {
          "indexed": true,
          "internalType": "bool",
          "name": "status",
          "type": "bool"
        }
      ],
      "name": "ValidatorsTrackBalanceUpdated",
      "type": "event"
    },
    {
      "anonymous": false,
      "inputs": [
        {
          "indexed": true,
          "internalType": "uint256",
          "name": "count",
          "type": "uint256"
        },
        {
          "indexed": true,
          "internalType": "bool",
          "name": "status",
          "type": "bool"
        }
      ],
      "name": "ValidatorsWhitelistUpdated",
      "type": "event"
    },
    {
      "inputs": [],
      "name": "BURNER_ROLE",
      "outputs": [
        {
          "internalType": "bytes32",
          "name": "",
          "type": "bytes32"
        }
      ],
      "stateMutability": "view",
      "type": "function"
    },
    {
      "inputs": [],
      "name": "DEFAULT_ADMIN_ROLE",
      "outputs": [
        {
          "internalType": "bytes32",
          "name": "",
          "type": "bytes32"
        }
      ],
      "stateMutability": "view",
      "type": "function"
    },
    {
      "inputs": [],
      "name": "FEE_RECIPIENT_ROLE",
      "outputs": [
        {
          "internalType": "bytes32",
          "name": "",
          "type": "bytes32"
        }
      ],
      "stateMutability": "view",
      "type": "function"
    },
    {
      "inputs": [],
      "name": "GOVERNOR_ROLE",
      "outputs": [
        {
          "internalType": "bytes32",
          "name": "",
          "type": "bytes32"
        }
      ],
      "stateMutability": "view",
      "type": "function"
    },
    {
      "inputs": [],
      "name": "MANAGER_ROLE",
      "outputs": [
        {
          "internalType": "bytes32",
          "name": "",
          "type": "bytes32"
        }
      ],
      "stateMutability": "view",
      "type": "function"
    },
    {
      "inputs": [],
      "name": "MINTER_ROLE",
      "outputs": [
        {
          "internalType": "bytes32",
          "name": "",
          "type": "bytes32"
        }
      ],
      "stateMutability": "view",
      "type": "function"
    },
    {
      "inputs": [],
      "name": "PAUSER_ROLE",
      "outputs": [
        {
          "internalType": "bytes32",
          "name": "",
          "type": "bytes32"
        }
      ],
      "stateMutability": "view",
      "type": "function"
    },
    {
      "inputs": [],
      "name": "REBASER_ROLE",
      "outputs": [
        {
          "internalType": "bytes32",
          "name": "",
          "type": "bytes32"
        }
      ],
      "stateMutability": "view",
      "type": "function"
    },
    {
      "inputs": [],
      "name": "acceptDefaultAdminTransfer",
      "outputs": [],
      "stateMutability": "nonpayable",
      "type": "function"
    },
    {
      "inputs": [
        {
          "internalType": "address",
          "name": "manager",
          "type": "address"
        },
        {
          "internalType": "string",
          "name": "name",
          "type": "string"
        },
        {
          "internalType": "uint256",
          "name": "serviceFeeBps",
          "type": "uint256"
        },
        {
          "internalType": "uint256",
          "name": "validatorFeeBps",
          "type": "uint256"
        },
        {
          "internalType": "uint256",
          "name": "validatorAllowance",
          "type": "uint256"
        }
      ],
      "name": "addOperator",
      "outputs": [],
      "stateMutability": "nonpayable",
      "type": "function"
    },
    {
      "inputs": [
        {
          "internalType": "bytes32[]",
          "name": "addresses",
          "type": "bytes32[]"
        },
        {
          "internalType": "uint256",
          "name": "operatorId",
          "type": "uint256"
        }
      ],
      "name": "addValidators",
      "outputs": [],
      "stateMutability": "nonpayable",
      "type": "function"
    },
    {
      "inputs": [
        {
          "internalType": "address",
          "name": "newAdmin",
          "type": "address"
        }
      ],
      "name": "beginDefaultAdminTransfer",
      "outputs": [],
      "stateMutability": "nonpayable",
      "type": "function"
    },
    {
      "inputs": [],
      "name": "cancelDefaultAdminTransfer",
      "outputs": [],
      "stateMutability": "nonpayable",
      "type": "function"
    },
    {
      "inputs": [
        {
          "internalType": "uint48",
          "name": "newDelay",
          "type": "uint48"
        }
      ],
      "name": "changeDefaultAdminDelay",
      "outputs": [],
      "stateMutability": "nonpayable",
      "type": "function"
    },
    {
      "inputs": [
        {
          "internalType": "bytes32[]",
          "name": "addresses",
          "type": "bytes32[]"
        }
      ],
      "name": "computeValidatorHash",
      "outputs": [
        {
          "internalType": "bytes32",
          "name": "",
          "type": "bytes32"
        }
      ],
      "stateMutability": "pure",
      "type": "function"
    },
    {
      "inputs": [],
      "name": "defaultAdmin",
      "outputs": [
        {
          "internalType": "address",
          "name": "",
          "type": "address"
        }
      ],
      "stateMutability": "view",
      "type": "function"
    },
    {
      "inputs": [],
      "name": "defaultAdminDelay",
      "outputs": [
        {
          "internalType": "uint48",
          "name": "",
          "type": "uint48"
        }
      ],
      "stateMutability": "view",
      "type": "function"
    },
    {
      "inputs": [],
      "name": "defaultAdminDelayIncreaseWait",
      "outputs": [
        {
          "internalType": "uint48",
          "name": "",
          "type": "uint48"
        }
      ],
      "stateMutability": "view",
      "type": "function"
    },
    {
      "inputs": [],
      "name": "flip",
      "outputs": [
        {
          "internalType": "contract IERC20",
          "name": "",
          "type": "address"
        }
      ],
      "stateMutability": "view",
      "type": "function"
    },
    {
      "inputs": [
        {
          "internalType": "bytes32[]",
          "name": "addresses",
          "type": "bytes32[]"
        },
        {
          "internalType": "uint256[]",
          "name": "amounts",
          "type": "uint256[]"
        }
      ],
      "name": "fundValidators",
      "outputs": [],
      "stateMutability": "nonpayable",
      "type": "function"
    },
    {
      "inputs": [],
      "name": "getCountableValidators",
      "outputs": [
        {
          "internalType": "bytes32[]",
          "name": "",
          "type": "bytes32[]"
        }
      ],
      "stateMutability": "view",
      "type": "function"
    },
    {
      "inputs": [
        {
          "internalType": "uint256",
          "name": "id",
          "type": "uint256"
        }
      ],
      "name": "getOperatorAddresses",
      "outputs": [
        {
          "internalType": "address",
          "name": "",
          "type": "address"
        },
        {
          "internalType": "address",
          "name": "",
          "type": "address"
        }
      ],
      "stateMutability": "view",
      "type": "function"
    },
    {
      "inputs": [],
      "name": "getOperatorCount",
      "outputs": [
        {
          "internalType": "uint256",
          "name": "",
          "type": "uint256"
        }
      ],
      "stateMutability": "view",
      "type": "function"
    },
    {
      "inputs": [
        {
          "internalType": "uint256",
          "name": "id",
          "type": "uint256"
        }
      ],
      "name": "getOperatorInfo",
      "outputs": [
        {
          "internalType": "uint96",
          "name": "",
          "type": "uint96"
        },
        {
          "internalType": "uint96",
          "name": "",
          "type": "uint96"
        },
        {
          "internalType": "uint16",
          "name": "",
          "type": "uint16"
        },
        {
          "internalType": "uint16",
          "name": "",
          "type": "uint16"
        }
      ],
      "stateMutability": "view",
      "type": "function"
    },
    {
      "inputs": [
        {
          "internalType": "bytes32",
          "name": "role",
          "type": "bytes32"
        }
      ],
      "name": "getRoleAdmin",
      "outputs": [
        {
          "internalType": "bytes32",
          "name": "",
          "type": "bytes32"
        }
      ],
      "stateMutability": "view",
      "type": "function"
    },
    {
      "inputs": [
        {
          "internalType": "bytes32[]",
          "name": "addresses",
          "type": "bytes32[]"
        }
      ],
      "name": "getValidatorInfo",
      "outputs": [
        {
          "components": [
            {
              "internalType": "uint8",
              "name": "operatorId",
              "type": "uint8"
            },
            {
              "internalType": "bool",
              "name": "trackBalance",
              "type": "bool"
            }
          ],
          "internalType": "struct OutputV1.ValidatorInfo[]",
          "name": "",
          "type": "tuple[]"
        },
        {
          "internalType": "uint256",
          "name": "",
          "type": "uint256"
        },
        {
          "internalType": "bool",
          "name": "",
          "type": "bool"
        }
      ],
      "stateMutability": "view",
      "type": "function"
    },
    {
      "inputs": [],
      "name": "getValidators",
      "outputs": [
        {
          "internalType": "bytes32[]",
          "name": "",
          "type": "bytes32[]"
        }
      ],
      "stateMutability": "view",
      "type": "function"
    },
    {
      "inputs": [
        {
          "internalType": "bytes32",
          "name": "role",
          "type": "bytes32"
        },
        {
          "internalType": "address",
          "name": "account",
          "type": "address"
        }
      ],
      "name": "grantRole",
      "outputs": [],
      "stateMutability": "nonpayable",
      "type": "function"
    },
    {
      "inputs": [
        {
          "internalType": "bytes32",
          "name": "role",
          "type": "bytes32"
        },
        {
          "internalType": "address",
          "name": "account",
          "type": "address"
        }
      ],
      "name": "hasRole",
      "outputs": [
        {
          "internalType": "bool",
          "name": "",
          "type": "bool"
        }
      ],
      "stateMutability": "view",
      "type": "function"
    },
    {
      "inputs": [
        {
          "internalType": "address",
          "name": "flip_",
          "type": "address"
        },
        {
          "internalType": "address",
          "name": "burnerProxy_",
          "type": "address"
        },
        {
          "internalType": "address",
          "name": "gov_",
          "type": "address"
        },
        {
          "internalType": "address",
          "name": "manager_",
          "type": "address"
        },
        {
          "internalType": "address",
          "name": "stateChainGateway_",
          "type": "address"
        },
        {
          "internalType": "address",
          "name": "rebaser_",
          "type": "address"
        }
      ],
      "name": "initialize",
      "outputs": [],
      "stateMutability": "nonpayable",
      "type": "function"
    },
    {
      "inputs": [
        {
          "internalType": "uint256",
          "name": "",
          "type": "uint256"
        }
      ],
      "name": "operators",
      "outputs": [
        {
          "internalType": "uint96",
          "name": "staked",
          "type": "uint96"
        },
        {
          "internalType": "uint96",
          "name": "unstaked",
          "type": "uint96"
        },
        {
          "internalType": "uint16",
          "name": "serviceFeeBps",
          "type": "uint16"
        },
        {
          "internalType": "uint16",
          "name": "validatorFeeBps",
          "type": "uint16"
        },
        {
          "internalType": "bool",
          "name": "whitelisted",
          "type": "bool"
        },
        {
          "internalType": "uint8",
          "name": "validatorAllowance",
          "type": "uint8"
        },
        {
          "internalType": "address",
          "name": "manager",
          "type": "address"
        },
        {
          "internalType": "address",
          "name": "feeRecipient",
          "type": "address"
        },
        {
          "internalType": "string",
          "name": "name",
          "type": "string"
        }
      ],
      "stateMutability": "view",
      "type": "function"
    },
    {
      "inputs": [],
      "name": "owner",
      "outputs": [
        {
          "internalType": "address",
          "name": "",
          "type": "address"
        }
      ],
      "stateMutability": "view",
      "type": "function"
    },
    {
      "inputs": [],
      "name": "pendingDefaultAdmin",
      "outputs": [
        {
          "internalType": "address",
          "name": "newAdmin",
          "type": "address"
        },
        {
          "internalType": "uint48",
          "name": "schedule",
          "type": "uint48"
        }
      ],
      "stateMutability": "view",
      "type": "function"
    },
    {
      "inputs": [],
      "name": "pendingDefaultAdminDelay",
      "outputs": [
        {
          "internalType": "uint48",
          "name": "newDelay",
          "type": "uint48"
        },
        {
          "internalType": "uint48",
          "name": "schedule",
          "type": "uint48"
        }
      ],
      "stateMutability": "view",
      "type": "function"
    },
    {
      "inputs": [
        {
          "internalType": "bytes32[]",
          "name": "addresses",
          "type": "bytes32[]"
        }
      ],
      "name": "redeemValidators",
      "outputs": [],
      "stateMutability": "nonpayable",
      "type": "function"
    },
    {
      "inputs": [
        {
          "internalType": "bytes32",
          "name": "role",
          "type": "bytes32"
        },
        {
          "internalType": "address",
          "name": "account",
          "type": "address"
        }
      ],
      "name": "renounceRole",
      "outputs": [],
      "stateMutability": "nonpayable",
      "type": "function"
    },
    {
      "inputs": [
        {
          "internalType": "bytes32",
          "name": "role",
          "type": "bytes32"
        },
        {
          "internalType": "address",
          "name": "account",
          "type": "address"
        }
      ],
      "name": "revokeRole",
      "outputs": [],
      "stateMutability": "nonpayable",
      "type": "function"
    },
    {
      "inputs": [],
      "name": "rollbackDefaultAdminDelay",
      "outputs": [],
      "stateMutability": "nonpayable",
      "type": "function"
    },
    {
      "inputs": [
        {
          "internalType": "uint256",
          "name": "serviceFeeBps",
          "type": "uint256"
        },
        {
          "internalType": "uint256",
          "name": "validatorFeeBps",
          "type": "uint256"
        },
        {
          "internalType": "uint256",
          "name": "operatorId",
          "type": "uint256"
        }
      ],
      "name": "setOperatorFee",
      "outputs": [],
      "stateMutability": "nonpayable",
      "type": "function"
    },
    {
      "inputs": [
        {
          "internalType": "uint256",
          "name": "allowance",
          "type": "uint256"
        },
        {
          "internalType": "uint256",
          "name": "operatorId",
          "type": "uint256"
        }
      ],
      "name": "setOperatorValidatorAllowance",
      "outputs": [],
      "stateMutability": "nonpayable",
      "type": "function"
    },
    {
      "inputs": [
        {
          "internalType": "uint256",
          "name": "operatorId",
          "type": "uint256"
        },
        {
          "internalType": "bool",
          "name": "whitelist",
          "type": "bool"
        }
      ],
      "name": "setOperatorWhitelist",
      "outputs": [],
      "stateMutability": "nonpayable",
      "type": "function"
    },
    {
      "inputs": [
        {
          "internalType": "bytes32[]",
          "name": "addresses",
          "type": "bytes32[]"
        },
        {
          "internalType": "bool",
          "name": "whitelist",
          "type": "bool"
        },
        {
          "internalType": "bool",
          "name": "trackBalance",
          "type": "bool"
        }
      ],
      "name": "setValidatorsStatus",
      "outputs": [],
      "stateMutability": "nonpayable",
      "type": "function"
    },
    {
      "inputs": [
        {
          "internalType": "bytes32[]",
          "name": "addresses",
          "type": "bytes32[]"
        },
        {
          "internalType": "bool",
          "name": "trackBalance",
          "type": "bool"
        }
      ],
      "name": "setValidatorsTrackBalance",
      "outputs": [],
      "stateMutability": "nonpayable",
      "type": "function"
    },
    {
      "inputs": [
        {
          "internalType": "bytes32[]",
          "name": "addresses",
          "type": "bytes32[]"
        },
        {
          "internalType": "bool",
          "name": "whitelist",
          "type": "bool"
        }
      ],
      "name": "setValidatorsWhitelist",
      "outputs": [],
      "stateMutability": "nonpayable",
      "type": "function"
    },
    {
      "inputs": [],
      "name": "stateChainGateway",
      "outputs": [
        {
          "internalType": "contract StateChainGateway",
          "name": "",
          "type": "address"
        }
      ],
      "stateMutability": "view",
      "type": "function"
    },
    {
      "inputs": [
        {
          "internalType": "bytes4",
          "name": "interfaceId",
          "type": "bytes4"
        }
      ],
      "name": "supportsInterface",
      "outputs": [
        {
          "internalType": "bool",
          "name": "",
          "type": "bool"
        }
      ],
      "stateMutability": "view",
      "type": "function"
    },
    {
      "inputs": [],
      "name": "validatorAddressHash",
      "outputs": [
        {
          "internalType": "bytes32",
          "name": "",
          "type": "bytes32"
        }
      ],
      "stateMutability": "view",
      "type": "function"
    },
    {
      "inputs": [
        {
          "internalType": "uint256",
          "name": "",
          "type": "uint256"
        }
      ],
      "name": "validatorAddresses",
      "outputs": [
        {
          "internalType": "bytes32",
          "name": "",
          "type": "bytes32"
        }
      ],
      "stateMutability": "view",
      "type": "function"
    },
    {
      "inputs": [
        {
          "internalType": "bytes32",
          "name": "",
          "type": "bytes32"
        }
      ],
      "name": "validators",
      "outputs": [
        {
          "internalType": "uint8",
          "name": "operatorId",
          "type": "uint8"
        },
        {
          "internalType": "bool",
          "name": "whitelisted",
          "type": "bool"
        },
        {
          "internalType": "bool",
          "name": "trackBalance",
          "type": "bool"
        }
      ],
      "stateMutability": "view",
      "type": "function"
    },
    {
      "inputs": [],
      "name": "wrappedBurnerProxy",
      "outputs": [
        {
          "internalType": "contract BurnerV1",
          "name": "",
          "type": "address"
        }
      ],
      "stateMutability": "view",
      "type": "function"
    },
    {
      "inputs": [],
      "name": "wrappedRebaserProxy",
      "outputs": [
        {
          "internalType": "contract RebaserV1",
          "name": "",
          "type": "address"
        }
      ],
      "stateMutability": "view",
      "type": "function"
    }
  ],
  "bytecode": {
    "object": "0x608060405234801562000010575f80fd5b506200001b62000021565b620000df565b5f54610100900460ff16156200008d5760405162461bcd60e51b815260206004820152602760248201527f496e697469616c697a61626c653a20636f6e747261637420697320696e697469604482015266616c697a696e6760c81b606482015260840160405180910390fd5b5f5460ff90811614620000dd575f805460ff191660ff9081179091556040519081527f7f26b83ff96e1f2b6a682f133852f6798a09c465da95921460cefb38474024989060200160405180910390a15b565b613b6980620000ed5f395ff3fe608060405234801561000f575f80fd5b50600436106102e3575f3560e01c80639bdafcb311610195578063ce83422c116100e4578063d602b9fd1161009e578063e4de93a111610079578063e4de93a11461078d578063e63ab1e9146107a0578063e82748ca146107c7578063ec87621c146107ee575f80fd5b8063d602b9fd1461074a578063e0e4d3a714610752578063e28d490614610765575f80fd5b8063ce83422c146106a5578063cefc1429146106b8578063cf2f692a146106c0578063cf6eefb7146106e2578063d539139314610710578063d547741f14610737575f80fd5b8063c563bb6c1161014f578063cc8463c81161012a578063cc8463c814610650578063ccc5749014610658578063cde4efa91461067f578063cdffc50c14610692575f80fd5b8063c563bb6c1461062c578063c8e7ec6614610634578063cc2a9a5b1461063d575f80fd5b80639bdafcb3146105385780639bdb42b61461058e578063a1eda53c146105d6578063a217fddf146105fd578063b7ab4db514610604578063b8c8fb2114610619575f80fd5b806342ffdfaf116102515780637a16c09c1161020b57806384ef8ffc116101e657806384ef8ffc146104f95780638da5cb5b1461050a57806391d14854146105125780639974531814610525575f80fd5b80637a16c09c146104ac5780637eb0b450146104bf57806383eb70e5146104d2575f80fd5b806342ffdfaf1461040257806348812b1a146104155780634bf0b51c1461042857806361f4688814610453578063634e93da14610486578063649a5ec714610499575f80fd5b80631c9d2242116102a25780631c9d22421461036d578063248a9ca314610380578063282c51f3146103a25780632f2ff15d146103c957806334a26bc6146103dc57806336568abe146103ef575f80fd5b8062a10b4c146102e7578062f8226d146102fc57806301ffc9a71461030f578063022d63fb146103375780630aa6220b146103535780631a4a7c611461035b575b5f80fd5b6102fa6102f53660046131a2565b610802565b005b6102fa61030a3660046131ea565b610ab0565b61032261031d366004613229565b610c54565b60405190151581526020015b60405180910390f35b620697805b60405165ffffffffffff909116815260200161032e565b6102fa610c7e565b60d0545b60405190815260200161032e565b6102fa61037b366004613250565b610c93565b61035f61038e366004613270565b5f9081526065602052604090206001015490565b61035f7f3c11d16cbaffd01df69ce1c404f6340ee057498f5f00246190ea54220576a84881565b6102fa6103d736600461329b565b610d15565b6102fa6103ea3660046132d6565b610d94565b6102fa6103fd36600461329b565b610e33565b6102fa610410366004613329565b610f1c565b6102fa61042336600461338d565b611004565b60cb5461043b906001600160a01b031681565b6040516001600160a01b03909116815260200161032e565b610466610461366004613270565b6110fa565b604080516001600160a01b0393841681529290911660208301520161032e565b6102fa6104943660046133b6565b61116b565b6102fa6104a73660046133d1565b61117e565b6102fa6104ba3660046133f6565b611191565b6102fa6104cd3660046132d6565b61165e565b61035f7f5fde63b561377d1441afa201ff619faac2ff8fed70a7fbdbe7a5cb07768c0b7581565b6098546001600160a01b031661043b565b61043b6116fd565b61032261052036600461329b565b611715565b61035f610533366004613270565b61173f565b61056d610546366004613270565b60cd6020525f908152604090205460ff808216916101008104821691620100009091041683565b6040805160ff9094168452911515602084015215159082015260600161032e565b6105a161059c366004613270565b61175e565b604080516001600160601b03958616815294909316602085015261ffff9182169284019290925216606082015260800161032e565b6105de611836565b6040805165ffffffffffff93841681529290911660208301520161032e565b61035f5f81565b61060c611888565b60405161032e919061345d565b60ca5461043b906001600160a01b031681565b61060c6118de565b61035f60cf5481565b6102fa61064b3660046134a0565b611a58565b61033c611f2a565b61035f7f7935bd0ae54bc31f548c14dba4d37c5c64b3f8ca900cb468fb8abd54d5894f5581565b60cc5461043b906001600160a01b031681565b6102fa6106a036600461351e565b611f88565b60c95461043b906001600160a01b031681565b6102fa61225a565b6106d36106ce3660046131ea565b6122d7565b60405161032e939291906135b2565b6106ea612454565b604080516001600160a01b03909316835265ffffffffffff90911660208301520161032e565b61035f7f9f2df0fed2c77648de5860a4cc508cd0818c85b8b8a1ab4ceeef8d981c8956a681565b6102fa61074536600461329b565b612475565b6102fa6124f2565b61035f6107603660046131ea565b612504565b610778610773366004613270565b612536565b60405161032e99989796959493929190613660565b6102fa61079b3660046136d7565b612646565b61035f7f65d7a28e3265b37a6474929f336521b332c1681b933f6cb9f3376673440d862a81565b61035f7fb6edeab710812f8917b946c63c63b900f456e6a1abea66a90b1f8277f035664b81565b61035f5f80516020613b1483398151915281565b336001600160a01b031660d0828154811061081f5761081f6136fa565b5f9182526020909120600160049092020101546001600160a01b0316146108595760405163855aedb160e01b815260040160405180910390fd5b60d0818154811061086c5761086c6136fa565b5f918252602090912060049091020154600160e01b900460ff1615156001146108a857604051635156197b60e11b815260040160405180910390fd5b805f036108c8576040516353ed442360e01b815260040160405180910390fd5b816108d2816126bf565b60d083815481106108e5576108e56136fa565b5f91825260209091206004909102018054601d9061090e908490600160e81b900460ff16613722565b92506101000a81548160ff021916908360ff1602179055505f5b81811015610a525760cd5f868684818110610945576109456136fa565b602090810292909201358352508101919091526040015f205460ff161561097f576040516306abec9560e11b815260040160405180910390fd5b610988836126bf565b60cd5f87878581811061099d5761099d6136fa565b9050602002013581526020019081526020015f205f015f6101000a81548160ff021916908360ff1602179055505f60cd5f8787858181106109e0576109e06136fa565b9050602002013581526020019081526020015f205f0160016101000a81548160ff02191690831515021790555060ce858583818110610a2157610a216136fa565b83546001810185555f948552602094859020919094029290920135919092015550610a4b8161373b565b9050610928565b5060ce604051602001610a659190613753565b60408051601f1981840301815290829052805160209091012060cf55829082907fb2fc10739972359553b28f6bd683d1067b40d77446f7b5fae1e10d8e4004feb2905f90a350505050565b5f80516020613b14833981519152610ac781612723565b5f8281805b82811015610c1f5760c9546001600160a01b0316634e85ba01888884818110610af757610af76136fa565b905060200201356040518263ffffffff1660e01b8152600401610b1c91815260200190565b60408051808303815f875af1158015610b37573d5f803e3d5ffd5b505050506040513d601f19601f82011682018060405250810190610b5b919061378c565b9450610b6890508461272d565b60d060cd5f8a8a86818110610b7f57610b7f6136fa565b602090810292909201358352508101919091526040015f2054815460ff909116908110610bae57610bae6136fa565b5f91825260209091206004909102018054600c90610bdd908490600160601b90046001600160601b03166137b8565b92506101000a8154816001600160601b0302191690836001600160601b031602179055508382610c0d91906137df565b9150610c188161373b565b9050610acc565b50604051819083907fe1bba66264f214ec8985f6ae17443964c1b774533d755e6484a82c88a405a384905f90a3505050505050565b5f6001600160e01b031982166318a4c3c360e11b1480610c785750610c7882612794565b92915050565b5f610c8881612723565b610c906127c8565b50565b5f610c9d81612723565b610ca6836126bf565b60d08381548110610cb957610cb96136fa565b5f91825260208220600490910201805460ff93909316600160e81b0260ff60e81b1990931692909217909155604051839185917fe0c82e9d2c26517863af7ff56929bd6cf28d3902e240b26cacf038131c26bea89190a3505050565b81610d865760405162461bcd60e51b815260206004820152603660248201527f416363657373436f6e74726f6c3a2063616e2774206469726563746c79206772604482015275616e742064656661756c742061646d696e20726f6c6560501b60648201526084015b60405180910390fd5b610d9082826127d4565b5050565b5f610d9e81612723565b825f5b81811015610dfd578360cd5f888885818110610dbf57610dbf6136fa565b9050602002013581526020019081526020015f205f0160026101000a81548160ff02191690831515021790555080610df69061373b565b9050610da1565b506040518315159082907f74471079267b80a89cbe2e9c5782a840c2d4ed5273f3f01b604ccb8e8257044d905f90a35050505050565b81158015610e4e57506098546001600160a01b038281169116145b15610f12575f80610e5d612454565b90925090506001600160a01b038216158015610e80575065ffffffffffff811615155b8015610e9357504265ffffffffffff8216105b610efd5760405162461bcd60e51b815260206004820152603560248201527f416363657373436f6e74726f6c3a206f6e6c792063616e2072656e6f756e636560448201527420696e2074776f2064656c6179656420737465707360581b6064820152608401610d7d565b50506097805465ffffffffffff60a01b191690555b610d9082826127fd565b5f610f2681612723565b835f5b81811015610fc8578460cd5f898985818110610f4757610f476136fa565b9050602002013581526020019081526020015f205f0160016101000a81548160ff0219169083151502179055508360cd5f898985818110610f8a57610f8a6136fa565b9050602002013581526020019081526020015f205f0160026101000a81548160ff02191690831515021790555080610fc19061373b565b9050610f29565b50821515841515827f42fb7681f5dd1c5bdaa4815b37a31eb285c5969d227293d146e75be4e072293c60405160405180910390a4505050505050565b5f61100e81612723565b61271061101b84866137df565b111561103a57604051635429a4fd60e11b815260040160405180910390fd5b61104384612877565b60d08381548110611056576110566136fa565b905f5260205f2090600402015f0160186101000a81548161ffff021916908361ffff16021790555061108783612877565b60d0838154811061109a5761109a6136fa565b5f91825260208220600490910201805461ffff93909316600160d01b0261ffff60d01b19909316929092179091556040518391859187917fbe3f7ffed952f2073a89510b5bef2ff551848acdb598109848941a57e101bba091a450505050565b5f8060d0838154811061110f5761110f6136fa565b905f5260205f2090600402016001015f9054906101000a90046001600160a01b031660d08481548110611144576111446136fa565b5f91825260209091206002600490920201015490946001600160a01b039091169350915050565b5f61117581612723565b610d90826128d9565b5f61118881612723565b610d908261294b565b5f80516020613b148339815191526111a881612723565b838281146111c95760405163125c95b960e01b815260040160405180910390fd5b604080516060810182525f808252602082018190529181018290529080805b848110156114155760cd5f8b8b84818110611205576112056136fa565b602090810292909201358352508181019290925260409081015f208151606081018352905460ff8082168084526101008304821615159584018690526201000090920416151592820192909252955093506001146112765760405163d2ea3f1f60e01b815260040160405180910390fd5b60d08360ff168154811061128c5761128c6136fa565b5f918252602090912060049091020154600160e01b900460ff1615156001146112c857604051635156197b60e11b815260040160405180910390fd5b6112e98888838181106112dd576112dd6136fa565b9050602002013561272d565b60d08460ff16815481106112ff576112ff6136fa565b5f9182526020822060049091020180549091906113269084906001600160601b03166137b8565b82546001600160601b039182166101009390930a92830291909202199091161790555060c9546001600160a01b0316636055409b8b8b8481811061136c5761136c6136fa565b905060200201358a8a85818110611385576113856136fa565b905060200201356040518363ffffffff1660e01b81526004016113b2929190918252602082015260400190565b5f604051808303815f87803b1580156113c9575f80fd5b505af11580156113db573d5f803e3d5ffd5b505050508787828181106113f1576113f16136fa565b905060200201358261140391906137df565b915061140e8161373b565b90506111e8565b50604051819085907f5c2a6a1463525d8014567a55ba40a336867d93044c6e19dbb3577b16fcba479d905f90a360cb5f9054906101000a90046001600160a01b03166001600160a01b031663e33b89756040518163ffffffff1660e01b8152600401602060405180830381865afa158015611492573d5f803e3d5ffd5b505050506040513d601f19601f820116820180604052508101906114b691906137f2565b69ffffffffffffffffffff1660cb5f9054906101000a90046001600160a01b03166001600160a01b031663e83cbe396040518163ffffffff1660e01b8152600401602060405180830381865afa158015611512573d5f803e3d5ffd5b505050506040513d601f19601f8201168201806040525081019061153691906137f2565b69ffffffffffffffffffff1660ca5f9054906101000a90046001600160a01b03166001600160a01b0316635fc631026040518163ffffffff1660e01b8152600401602060405180830381865afa158015611592573d5f803e3d5ffd5b505050506040513d601f19601f820116820180604052508101906115b6919061381b565b6115c091906137df565b6115ca91906137df565b60cc546040516370a0823160e01b81523060048201526001600160a01b03909116906370a0823190602401602060405180830381865afa158015611610573d5f803e3d5ffd5b505050506040513d601f19601f82011682018060405250810190611634919061381b565b1015611653576040516321a1cf6160e01b815260040160405180910390fd5b505050505050505050565b5f61166881612723565b825f5b818110156116c7578360cd5f888885818110611689576116896136fa565b9050602002013581526020019081526020015f205f0160016101000a81548160ff021916908315150217905550806116c09061373b565b905061166b565b506040518315159082907f1dd0b563948bfcd93948f4095b8ca6b1c35505f22281b0882849ea264ca8843b905f90a35050505050565b5f6117106098546001600160a01b031690565b905090565b5f9182526065602090815260408084206001600160a01b0393909316845291905290205460ff1690565b60ce818154811061174e575f80fd5b5f91825260209091200154905081565b5f805f8060d08581548110611775576117756136fa565b5f91825260209091206004909102015460d080546001600160601b0390921691879081106117a5576117a56136fa565b905f5260205f2090600402015f01600c9054906101000a90046001600160601b031660d087815481106117da576117da6136fa565b905f5260205f2090600402015f0160189054906101000a900461ffff1660d0888154811061180a5761180a6136fa565b905f5260205f2090600402015f01601a9054906101000a900461ffff1693509350935093509193509193565b6098545f90600160d01b900465ffffffffffff16801515801561186157504265ffffffffffff821610155b61186c575f80611880565b609854600160a01b900465ffffffffffff16815b915091509091565b606060ce8054806020026020016040519081016040528092919081815260200182805480156118d457602002820191905f5260205f20905b8154815260200190600101908083116118c0575b5050505050905090565b60ce546060905f9081808267ffffffffffffffff81111561190157611901613832565b60405190808252806020026020018201604052801561192a578160200160208202803683370190505b5090505f5b838110156119b65760ce818154811061194a5761194a6136fa565b5f91825260208083209091015480835260cd90915260409091205490955060ff620100009091041615156001036119a6578482846119878161373b565b955081518110611999576119996136fa565b6020026020010181815250505b6119af8161373b565b905061192f565b505f8267ffffffffffffffff8111156119d1576119d1613832565b6040519080825280602002602001820160405280156119fa578160200160208202803683370190505b5090505f5b83811015611a4e57828181518110611a1957611a196136fa565b6020026020010151828281518110611a3357611a336136fa565b6020908102919091010152611a478161373b565b90506119ff565b5095945050505050565b5f54610100900460ff1615808015611a7657505f54600160ff909116105b80611a8f5750303b158015611a8f57505f5460ff166001145b611af25760405162461bcd60e51b815260206004820152602e60248201527f496e697469616c697a61626c653a20636f6e747261637420697320616c72656160448201526d191e481a5b9a5d1a585b1a5e995960921b6064820152608401610d7d565b5f805460ff191660011790558015611b13575f805461ff0019166101001790555b60cc80546001600160a01b0319166001600160a01b038916179055611b385f866129ba565b611b4f5f80516020613b14833981519152866129ea565b611b665f80516020613b14833981519152856129ea565b60c980546001600160a01b038581166001600160a01b03199283161790925560ca805489841690831617905560cb805485841692168217905560cc5460405163095ea7b360e01b815260048101929092525f1960248301529091169063095ea7b3906044016020604051808303815f875af1158015611be7573d5f803e3d5ffd5b505050506040513d601f19601f82011682018060405250810190611c0b9190613846565b5060cc5460405163095ea7b360e01b81526001600160a01b0388811660048301525f1960248301529091169063095ea7b3906044016020604051808303815f875af1158015611c5c573d5f803e3d5ffd5b505050506040513d601f19601f82011682018060405250810190611c809190613846565b5060cc5460c95460405163095ea7b360e01b81526001600160a01b0391821660048201525f19602482015291169063095ea7b3906044016020604051808303815f875af1158015611cd3573d5f803e3d5ffd5b505050506040513d601f19601f82011682018060405250810190611cf79190613846565b5060408051610120810182525f8082526020808301828152838501838152606085018481526080860185815260a087018681526001600160a01b038e811660c08a0181815260e08b019182528b51808d01909c526004808d52631b9d5b1b60e21b998d01999099526101008b019b8c5260d080546001810182559a528a517fe89d44c8fd6a9bac8af33ce47f56337617d449bf7ff3956b618c646de829cbcb9a909902998a018054985197519651955194516001600160601b039a8b166001600160c01b0319909a1699909917600160601b9a909816999099029690961763ffffffff60c01b1916600160c01b61ffff9687160261ffff60d01b191617600160d01b95909416949094029290921761ffff60e01b1916600160e01b9115159190910260ff60e81b191617600160e81b60ff9095169490940293909317845590517fe89d44c8fd6a9bac8af33ce47f56337617d449bf7ff3956b618c646de829cbcc850180546001600160a01b031990811692851692909217905590517fe89d44c8fd6a9bac8af33ce47f56337617d449bf7ff3956b618c646de829cbcd85018054909216921691909117905592519192839290917fe89d44c8fd6a9bac8af33ce47f56337617d449bf7ff3956b618c646de829cbce0190611ed890826138e6565b505050508015611f21575f805461ff0019169055604051600181527f7f26b83ff96e1f2b6a682f133852f6798a09c465da95921460cefb38474024989060200160405180910390a15b50505050505050565b6098545f90600160d01b900465ffffffffffff168015158015611f5457504265ffffffffffff8216105b611f6f57609754600160d01b900465ffffffffffff16611f82565b609854600160a01b900465ffffffffffff165b91505090565b5f611f9281612723565b612710611f9f84866137df565b1115611fbe57604051635429a4fd60e11b815260040160405180910390fd5b60408051610120810182525f80825260208201819052918101611fe087612877565b61ffff168152602001611ff286612877565b61ffff1681526001602082015260400161200b856126bf565b60ff168152602001896001600160a01b03168152602001896001600160a01b0316815260200188888080601f0160208091040260200160405190810160405280939291908181526020018383808284375f92018290525093909452505060d080546001810182559152825160049091027fe89d44c8fd6a9bac8af33ce47f56337617d449bf7ff3956b618c646de829cbcb81018054602086015160408701516060880151608089015160a08a015160ff16600160e81b0260ff60e81b19911515600160e01b029190911661ffff60e01b1961ffff938416600160d01b0261ffff60d01b1994909516600160c01b029390931663ffffffff60c01b196001600160601b03968716600160601b026001600160c01b031990981696909a169590951795909517979097169290921717161792909217825560c08401517fe89d44c8fd6a9bac8af33ce47f56337617d449bf7ff3956b618c646de829cbcc820180546001600160a01b039283166001600160a01b03199182161790915560e08601517fe89d44c8fd6a9bac8af33ce47f56337617d449bf7ff3956b618c646de829cbcd8401805491909316911617905561010084015193945084939192507fe89d44c8fd6a9bac8af33ce47f56337617d449bf7ff3956b618c646de829cbce01906121f390826138e6565b505050838588886040516122089291906139a2565b604080519182900382208783526001600160a01b038d166020840152917f6f3105c49206e3e7c9d913c17f8e6e0835ce834784e3e1b002c42e39c0adc542910160405180910390a45050505050505050565b5f612263612454565b509050336001600160a01b038216146122cf5760405162461bcd60e51b815260206004820152602860248201527f416363657373436f6e74726f6c3a2070656e64696e672061646d696e206d75736044820152671d081858d8d95c1d60c21b6064820152608401610d7d565b610c90612a93565b60605f8083818167ffffffffffffffff8111156122f6576122f6613832565b60405190808252806020026020018201604052801561233a57816020015b604080518082019091525f80825260208201528152602001906001900390816123145790505b5090505f5b828110156124105760cd5f89898481811061235c5761235c6136fa565b9050602002013581526020019081526020015f205f015f9054906101000a900460ff16828281518110612391576123916136fa565b602090810291909101015160ff909116905260cd5f8989848181106123b8576123b86136fa565b9050602002013581526020019081526020015f205f0160029054906101000a900460ff168282815181106123ee576123ee6136fa565b6020908102919091018101519115159101526124098161373b565b905061233f565b505f87876040516020016124259291906139b1565b60408051808303601f19018152919052805160209091012060cf5460d054939a93995014965090945050505050565b6097546001600160a01b03811691600160a01b90910465ffffffffffff1690565b816124e85760405162461bcd60e51b815260206004820152603760248201527f416363657373436f6e74726f6c3a2063616e2774206469726563746c7920726560448201527f766f6b652064656661756c742061646d696e20726f6c650000000000000000006064820152608401610d7d565b610d908282612b5b565b5f6124fc81612723565b610c90612b7f565b5f82826040516020016125189291906139b1565b60405160208183030381529060405280519060200120905092915050565b60d08181548110612545575f80fd5b5f91825260209091206004909102018054600182015460028301546003840180546001600160601b038086169750600160601b8604169561ffff600160c01b8704811696600160d01b81049091169560ff600160e01b8304811696600160e81b90930416946001600160a01b03918216949290911692916125c590613861565b80601f01602080910402602001604051908101604052809291908181526020018280546125f190613861565b801561263c5780601f106126135761010080835404028352916020019161263c565b820191905f5260205f20905b81548152906001019060200180831161261f57829003601f168201915b5050505050905089565b5f61265081612723565b8160d08481548110612664576126646136fa565b5f918252602082206004909102018054921515600160e01b0260ff60e01b19909316929092179091556040518315159185917f059dc4a95e5b4c9ad3940e9e4587a0bf0f52f62c2359f14bfd51cd331b1aedd79190a3505050565b5f60ff82111561271f5760405162461bcd60e51b815260206004820152602560248201527f53616665436173743a2076616c756520646f65736e27742066697420696e2038604482015264206269747360d81b6064820152608401610d7d565b5090565b610c908133612b89565b5f6001600160601b0382111561271f5760405162461bcd60e51b815260206004820152602660248201527f53616665436173743a2076616c756520646f65736e27742066697420696e203960448201526536206269747360d01b6064820152608401610d7d565b5f6001600160e01b03198216637965db0b60e01b1480610c7857506301ffc9a760e01b6001600160e01b0319831614610c78565b6127d25f80612be2565b565b5f828152606560205260409020600101546127ee81612723565b6127f883836129ea565b505050565b6001600160a01b038116331461286d5760405162461bcd60e51b815260206004820152602f60248201527f416363657373436f6e74726f6c3a2063616e206f6e6c792072656e6f756e636560448201526e103937b632b9903337b91039b2b63360891b6064820152608401610d7d565b610d908282612ca1565b5f61ffff82111561271f5760405162461bcd60e51b815260206004820152602660248201527f53616665436173743a2076616c756520646f65736e27742066697420696e203160448201526536206269747360d01b6064820152608401610d7d565b5f6128e2611f2a565b6128eb42612cdc565b6128f591906139d8565b90506129018282612d42565b60405165ffffffffffff821681526001600160a01b038316907f3377dc44241e779dd06afab5b788a35ca5f3b778836e2990bdb26a2a4b2e5ed69060200160405180910390a25050565b5f61295582612dbf565b61295e42612cdc565b61296891906139d8565b90506129748282612be2565b6040805165ffffffffffff8085168252831660208201527ff1038c18cf84a56e432fdbfaf746924b7ea511dfe03a6506a0ceba4888788d9b910160405180910390a15050565b5f54610100900460ff166129e05760405162461bcd60e51b8152600401610d7d906139f7565b610d908282612e0d565b81612a89575f612a026098546001600160a01b031690565b6001600160a01b031614612a6d5760405162461bcd60e51b815260206004820152602c60248201527f416363657373436f6e74726f6c3a2064656661756c742061646d696e20616c7260448201526b1958591e4819dc985b9d195960a21b6064820152608401610d7d565b609880546001600160a01b0319166001600160a01b0383161790555b610d908282612eb2565b5f80612a9d612454565b91509150612ab28165ffffffffffff16151590565b8015612ac557504265ffffffffffff8216105b612b225760405162461bcd60e51b815260206004820152602860248201527f416363657373436f6e74726f6c3a207472616e736665722064656c6179206e6f6044820152671d081c185cdcd95960c21b6064820152608401610d7d565b612b3d5f612b386098546001600160a01b031690565b612ca1565b612b475f836129ea565b5050609780546001600160d01b0319169055565b5f82815260656020526040902060010154612b7581612723565b6127f88383612ca1565b6127d25f80612d42565b612b938282611715565b610d9057612ba081612f37565b612bab836020612f49565b604051602001612bbc929190613a42565b60408051601f198184030181529082905262461bcd60e51b8252610d7d91600401613ab6565b609854600160d01b900465ffffffffffff168015612c64574265ffffffffffff82161015612c3b57609854609780546001600160d01b0316600160a01b90920465ffffffffffff16600160d01b02919091179055612c64565b6040517f2b1fa2edafe6f7b9e97c1a9e0c3660e645beb2dcaa2d45bdbf9beaf5472e1ec5905f90a15b50609880546001600160a01b0316600160a01b65ffffffffffff948516026001600160d01b031617600160d01b9290931691909102919091179055565b81158015612cbc57506098546001600160a01b038281169116145b15612cd257609880546001600160a01b03191690555b610d9082826130df565b5f65ffffffffffff82111561271f5760405162461bcd60e51b815260206004820152602660248201527f53616665436173743a2076616c756520646f65736e27742066697420696e203460448201526538206269747360d01b6064820152608401610d7d565b5f612d4b612454565b6097805465ffffffffffff8616600160a01b026001600160d01b03199091166001600160a01b038816171790559150612d8d90508165ffffffffffff16151590565b156127f8576040517f8886ebfc4259abdbc16601dd8fb5678e54878f47b3c34836cfc51154a9605109905f90a1505050565b5f80612dc9611f2a565b90508065ffffffffffff168365ffffffffffff1611612df157612dec8382613ac8565b612e06565b612e0665ffffffffffff841662069780613145565b9392505050565b5f54610100900460ff16612e335760405162461bcd60e51b8152600401610d7d906139f7565b6001600160a01b038116612e895760405162461bcd60e51b815260206004820152601e60248201527f416363657373436f6e74726f6c3a20302064656661756c742061646d696e00006044820152606401610d7d565b609780546001600160d01b0316600160d01b65ffffffffffff851602179055610d905f826129ea565b612ebc8282611715565b610d90575f8281526065602090815260408083206001600160a01b03851684529091529020805460ff19166001179055612ef33390565b6001600160a01b0316816001600160a01b0316837f2f8788117e7eff1d82e926ec794901d17c78024a50270940304540a733656f0d60405160405180910390a45050565b6060610c786001600160a01b03831660145b60605f612f57836002613ae7565b612f629060026137df565b67ffffffffffffffff811115612f7a57612f7a613832565b6040519080825280601f01601f191660200182016040528015612fa4576020820181803683370190505b509050600360fc1b815f81518110612fbe57612fbe6136fa565b60200101906001600160f81b03191690815f1a905350600f60fb1b81600181518110612fec57612fec6136fa565b60200101906001600160f81b03191690815f1a9053505f61300e846002613ae7565b6130199060016137df565b90505b6001811115613090576f181899199a1a9b1b9c1cb0b131b232b360811b85600f166010811061304d5761304d6136fa565b1a60f81b828281518110613063576130636136fa565b60200101906001600160f81b03191690815f1a90535060049490941c9361308981613afe565b905061301c565b508315612e065760405162461bcd60e51b815260206004820181905260248201527f537472696e67733a20686578206c656e67746820696e73756666696369656e746044820152606401610d7d565b6130e98282611715565b15610d90575f8281526065602090815260408083206001600160a01b0385168085529252808320805460ff1916905551339285917ff6391f5c32d9c69d2a47ea670b442974b53935d1edc7fd64eb21e047a839171b9190a45050565b5f8183106131535781612e06565b5090919050565b5f8083601f84011261316a575f80fd5b50813567ffffffffffffffff811115613181575f80fd5b6020830191508360208260051b850101111561319b575f80fd5b9250929050565b5f805f604084860312156131b4575f80fd5b833567ffffffffffffffff8111156131ca575f80fd5b6131d68682870161315a565b909790965060209590950135949350505050565b5f80602083850312156131fb575f80fd5b823567ffffffffffffffff811115613211575f80fd5b61321d8582860161315a565b90969095509350505050565b5f60208284031215613239575f80fd5b81356001600160e01b031981168114612e06575f80fd5b5f8060408385031215613261575f80fd5b50508035926020909101359150565b5f60208284031215613280575f80fd5b5035919050565b6001600160a01b0381168114610c90575f80fd5b5f80604083850312156132ac575f80fd5b8235915060208301356132be81613287565b809150509250929050565b8015158114610c90575f80fd5b5f805f604084860312156132e8575f80fd5b833567ffffffffffffffff8111156132fe575f80fd5b61330a8682870161315a565b909450925050602084013561331e816132c9565b809150509250925092565b5f805f806060858703121561333c575f80fd5b843567ffffffffffffffff811115613352575f80fd5b61335e8782880161315a565b9095509350506020850135613372816132c9565b91506040850135613382816132c9565b939692955090935050565b5f805f6060848603121561339f575f80fd5b505081359360208301359350604090920135919050565b5f602082840312156133c6575f80fd5b8135612e0681613287565b5f602082840312156133e1575f80fd5b813565ffffffffffff81168114612e06575f80fd5b5f805f8060408587031215613409575f80fd5b843567ffffffffffffffff80821115613420575f80fd5b61342c8883890161315a565b90965094506020870135915080821115613444575f80fd5b506134518782880161315a565b95989497509550505050565b602080825282518282018190525f9190848201906040850190845b8181101561349457835183529284019291840191600101613478565b50909695505050505050565b5f805f805f8060c087890312156134b5575f80fd5b86356134c081613287565b955060208701356134d081613287565b945060408701356134e081613287565b935060608701356134f081613287565b9250608087013561350081613287565b915060a087013561351081613287565b809150509295509295509295565b5f805f805f8060a08789031215613533575f80fd5b863561353e81613287565b9550602087013567ffffffffffffffff8082111561355a575f80fd5b818901915089601f83011261356d575f80fd5b81358181111561357b575f80fd5b8a602082850101111561358c575f80fd5b979a60209290920199509697604081013597506060810135965060800135945092505050565b606080825284519082018190525f906020906080840190828801845b828110156135fa578151805160ff168552850151151585850152604090930192908401906001016135ce565b5050509083019490945250901515604090910152919050565b5f5b8381101561362d578181015183820152602001613615565b50505f910152565b5f815180845261364c816020860160208601613613565b601f01601f19169290920160200192915050565b6001600160601b038a811682528916602082015261ffff888116604083015287166060820152851515608082015260ff851660a08201526001600160a01b0384811660c0830152831660e082015261012061010082018190525f906136c783820185613635565b9c9b505050505050505050505050565b5f80604083850312156136e8575f80fd5b8235915060208301356132be816132c9565b634e487b7160e01b5f52603260045260245ffd5b634e487b7160e01b5f52601160045260245ffd5b60ff8281168282160390811115610c7857610c7861370e565b5f6001820161374c5761374c61370e565b5060010190565b5f818354839150845f526020805f205f5b8381101561378057815485529382019360019182019101613764565b50929695505050505050565b5f806040838503121561379d575f80fd5b82516137a881613287565b6020939093015192949293505050565b6001600160601b038181168382160190808211156137d8576137d861370e565b5092915050565b80820180821115610c7857610c7861370e565b5f60208284031215613802575f80fd5b815169ffffffffffffffffffff81168114612e06575f80fd5b5f6020828403121561382b575f80fd5b5051919050565b634e487b7160e01b5f52604160045260245ffd5b5f60208284031215613856575f80fd5b8151612e06816132c9565b600181811c9082168061387557607f821691505b60208210810361389357634e487b7160e01b5f52602260045260245ffd5b50919050565b601f8211156127f8575f81815260208120601f850160051c810160208610156138bf5750805b601f850160051c820191505b818110156138de578281556001016138cb565b505050505050565b815167ffffffffffffffff81111561390057613900613832565b6139148161390e8454613861565b84613899565b602080601f831160018114613947575f84156139305750858301515b5f19600386901b1c1916600185901b1785556138de565b5f85815260208120601f198616915b8281101561397557888601518255948401946001909101908401613956565b508582101561399257878501515f19600388901b60f8161c191681555b5050505050600190811b01905550565b818382375f9101908152919050565b5f6001600160fb1b038311156139c5575f80fd5b8260051b80858437919091019392505050565b65ffffffffffff8181168382160190808211156137d8576137d861370e565b6020808252602b908201527f496e697469616c697a61626c653a20636f6e7472616374206973206e6f74206960408201526a6e697469616c697a696e6760a81b606082015260800190565b7f416363657373436f6e74726f6c3a206163636f756e742000000000000000000081525f8351613a79816017850160208801613613565b7001034b99036b4b9b9b4b733903937b6329607d1b6017918401918201528351613aaa816028840160208801613613565b01602801949350505050565b602081525f612e066020830184613635565b65ffffffffffff8281168282160390808211156137d8576137d861370e565b8082028115828204841417610c7857610c7861370e565b5f81613b0c57613b0c61370e565b505f19019056fe241ecf16d79d0f8dbfb92cbc07fe17840425976cf0667f022fe9877caa831b08a264697066735822122041633d962681a1b51d63c64d59811812a7af3b7dcfecc6de6ad586096a789aa864736f6c63430008140033",
    "linkReferences": {}
  },
  "methodIdentifiers": {
    "BURNER_ROLE()": "282c51f3",
    "DEFAULT_ADMIN_ROLE()": "a217fddf",
    "FEE_RECIPIENT_ROLE()": "e82748ca",
    "GOVERNOR_ROLE()": "ccc57490",
    "MANAGER_ROLE()": "ec87621c",
    "MINTER_ROLE()": "d5391393",
    "PAUSER_ROLE()": "e63ab1e9",
    "REBASER_ROLE()": "83eb70e5",
    "acceptDefaultAdminTransfer()": "cefc1429",
    "addOperator(address,string,uint256,uint256,uint256)": "cdffc50c",
    "addValidators(bytes32[],uint256)": "00a10b4c",
    "beginDefaultAdminTransfer(address)": "634e93da",
    "cancelDefaultAdminTransfer()": "d602b9fd",
    "changeDefaultAdminDelay(uint48)": "649a5ec7",
    "computeValidatorHash(bytes32[])": "e0e4d3a7",
    "defaultAdmin()": "84ef8ffc",
    "defaultAdminDelay()": "cc8463c8",
    "defaultAdminDelayIncreaseWait()": "022d63fb",
    "flip()": "cde4efa9",
    "fundValidators(bytes32[],uint256[])": "7a16c09c",
    "getCountableValidators()": "c563bb6c",
    "getOperatorAddresses(uint256)": "61f46888",
    "getOperatorCount()": "1a4a7c61",
    "getOperatorInfo(uint256)": "9bdb42b6",
    "getRoleAdmin(bytes32)": "248a9ca3",
    "getValidatorInfo(bytes32[])": "cf2f692a",
    "getValidators()": "b7ab4db5",
    "grantRole(bytes32,address)": "2f2ff15d",
    "hasRole(bytes32,address)": "91d14854",
    "initialize(address,address,address,address,address,address)": "cc2a9a5b",
    "operators(uint256)": "e28d4906",
    "owner()": "8da5cb5b",
    "pendingDefaultAdmin()": "cf6eefb7",
    "pendingDefaultAdminDelay()": "a1eda53c",
    "redeemValidators(bytes32[])": "00f8226d",
    "renounceRole(bytes32,address)": "36568abe",
    "revokeRole(bytes32,address)": "d547741f",
    "rollbackDefaultAdminDelay()": "0aa6220b",
    "setOperatorFee(uint256,uint256,uint256)": "48812b1a",
    "setOperatorValidatorAllowance(uint256,uint256)": "1c9d2242",
    "setOperatorWhitelist(uint256,bool)": "e4de93a1",
    "setValidatorsStatus(bytes32[],bool,bool)": "42ffdfaf",
    "setValidatorsTrackBalance(bytes32[],bool)": "34a26bc6",
    "setValidatorsWhitelist(bytes32[],bool)": "7eb0b450",
    "stateChainGateway()": "ce83422c",
    "supportsInterface(bytes4)": "01ffc9a7",
    "validatorAddressHash()": "c8e7ec66",
    "validatorAddresses(uint256)": "99745318",
    "validators(bytes32)": "9bdafcb3",
    "wrappedBurnerProxy()": "b8c8fb21",
    "wrappedRebaserProxy()": "4bf0b51c"
  },
  "storageLayout": {
    "storage": [
      {
        "astId": 45871,
        "contract": "src/utils/OutputV1.sol:OutputV1",
        "label": "_initialized",
        "offset": 0,
        "slot": "0",
        "type": "t_uint8"
      },
      {
        "astId": 45874,
        "contract": "src/utils/OutputV1.sol:OutputV1",
        "label": "_initializing",
        "offset": 1,
        "slot": "0",
        "type": "t_bool"
      },
      {
        "astId": 47945,
        "contract": "src/utils/OutputV1.sol:OutputV1",
        "label": "__gap",
        "offset": 0,
        "slot": "1",
        "type": "t_array(t_uint256)50_storage"
      },
      {
        "astId": 48942,
        "contract": "src/utils/OutputV1.sol:OutputV1",
        "label": "__gap",
        "offset": 0,
        "slot": "51",
        "type": "t_array(t_uint256)50_storage"
      },
      {
        "astId": 44957,
        "contract": "src/utils/OutputV1.sol:OutputV1",
        "label": "_roles",
        "offset": 0,
        "slot": "101",
        "type": "t_mapping(t_bytes32,t_struct(RoleData)44952_storage)"
      },
      {
        "astId": 45252,
        "contract": "src/utils/OutputV1.sol:OutputV1",
        "label": "__gap",
        "offset": 0,
        "slot": "102",
        "type": "t_array(t_uint256)49_storage"
      },
      {
        "astId": 44222,
        "contract": "src/utils/OutputV1.sol:OutputV1",
        "label": "_pendingDefaultAdmin",
        "offset": 0,
        "slot": "151",
        "type": "t_address"
      },
      {
        "astId": 44224,
        "contract": "src/utils/OutputV1.sol:OutputV1",
        "label": "_pendingDefaultAdminSchedule",
        "offset": 20,
        "slot": "151",
        "type": "t_uint48"
      },
      {
        "astId": 44226,
        "contract": "src/utils/OutputV1.sol:OutputV1",
        "label": "_currentDelay",
        "offset": 26,
        "slot": "151",
        "type": "t_uint48"
      },
      {
        "astId": 44228,
        "contract": "src/utils/OutputV1.sol:OutputV1",
        "label": "_currentDefaultAdmin",
        "offset": 0,
        "slot": "152",
        "type": "t_address"
      },
      {
        "astId": 44230,
        "contract": "src/utils/OutputV1.sol:OutputV1",
        "label": "_pendingDelay",
        "offset": 20,
        "slot": "152",
        "type": "t_uint48"
      },
      {
        "astId": 44232,
        "contract": "src/utils/OutputV1.sol:OutputV1",
        "label": "_pendingDelaySchedule",
        "offset": 26,
        "slot": "152",
        "type": "t_uint48"
      },
      {
        "astId": 44916,
        "contract": "src/utils/OutputV1.sol:OutputV1",
        "label": "__gap",
        "offset": 0,
        "slot": "153",
        "type": "t_array(t_uint256)48_storage"
      },
      {
        "astId": 74702,
        "contract": "src/utils/OutputV1.sol:OutputV1",
        "label": "stateChainGateway",
        "offset": 0,
        "slot": "201",
        "type": "t_contract(StateChainGateway)72188"
      },
      {
        "astId": 74705,
        "contract": "src/utils/OutputV1.sol:OutputV1",
        "label": "wrappedBurnerProxy",
        "offset": 0,
        "slot": "202",
        "type": "t_contract(BurnerV1)74564"
      },
      {
        "astId": 74708,
        "contract": "src/utils/OutputV1.sol:OutputV1",
        "label": "wrappedRebaserProxy",
        "offset": 0,
        "slot": "203",
        "type": "t_contract(RebaserV1)76966"
      },
      {
        "astId": 74711,
        "contract": "src/utils/OutputV1.sol:OutputV1",
        "label": "flip",
        "offset": 0,
        "slot": "204",
        "type": "t_contract(IERC20)57630"
      },
      {
        "astId": 74747,
        "contract": "src/utils/OutputV1.sol:OutputV1",
        "label": "validators",
        "offset": 0,
        "slot": "205",
        "type": "t_mapping(t_bytes32,t_struct(Validator)74718_storage)"
      },
      {
        "astId": 74750,
        "contract": "src/utils/OutputV1.sol:OutputV1",
        "label": "validatorAddresses",
        "offset": 0,
        "slot": "206",
        "type": "t_array(t_bytes32)dyn_storage"
      },
      {
        "astId": 74752,
        "contract": "src/utils/OutputV1.sol:OutputV1",
        "label": "validatorAddressHash",
        "offset": 0,
        "slot": "207",
        "type": "t_bytes32"
      },
      {
        "astId": 74756,
        "contract": "src/utils/OutputV1.sol:OutputV1",
        "label": "operators",
        "offset": 0,
        "slot": "208",
        "type": "t_array(t_struct(Operator)74742_storage)dyn_storage"
      }
    ],
    "types": {
      "t_address": {
        "encoding": "inplace",
        "label": "address",
        "numberOfBytes": "20"
      },
      "t_array(t_bytes32)dyn_storage": {
        "encoding": "dynamic_array",
        "label": "bytes32[]",
        "numberOfBytes": "32",
        "base": "t_bytes32"
      },
      "t_array(t_struct(Operator)74742_storage)dyn_storage": {
        "encoding": "dynamic_array",
        "label": "struct OutputV1.Operator[]",
        "numberOfBytes": "32",
        "base": "t_struct(Operator)74742_storage"
      },
      "t_array(t_uint256)48_storage": {
        "encoding": "inplace",
        "label": "uint256[48]",
        "numberOfBytes": "1536",
        "base": "t_uint256"
      },
      "t_array(t_uint256)49_storage": {
        "encoding": "inplace",
        "label": "uint256[49]",
        "numberOfBytes": "1568",
        "base": "t_uint256"
      },
      "t_array(t_uint256)50_storage": {
        "encoding": "inplace",
        "label": "uint256[50]",
        "numberOfBytes": "1600",
        "base": "t_uint256"
      },
      "t_bool": {
        "encoding": "inplace",
        "label": "bool",
        "numberOfBytes": "1"
      },
      "t_bytes32": {
        "encoding": "inplace",
        "label": "bytes32",
        "numberOfBytes": "32"
      },
      "t_contract(BurnerV1)74564": {
        "encoding": "inplace",
        "label": "contract BurnerV1",
        "numberOfBytes": "20"
      },
      "t_contract(IERC20)57630": {
        "encoding": "inplace",
        "label": "contract IERC20",
        "numberOfBytes": "20"
      },
      "t_contract(RebaserV1)76966": {
        "encoding": "inplace",
        "label": "contract RebaserV1",
        "numberOfBytes": "20"
      },
      "t_contract(StateChainGateway)72188": {
        "encoding": "inplace",
        "label": "contract StateChainGateway",
        "numberOfBytes": "20"
      },
      "t_mapping(t_address,t_bool)": {
        "encoding": "mapping",
        "key": "t_address",
        "label": "mapping(address => bool)",
        "numberOfBytes": "32",
        "value": "t_bool"
      },
      "t_mapping(t_bytes32,t_struct(RoleData)44952_storage)": {
        "encoding": "mapping",
        "key": "t_bytes32",
        "label": "mapping(bytes32 => struct AccessControlUpgradeable.RoleData)",
        "numberOfBytes": "32",
        "value": "t_struct(RoleData)44952_storage"
      },
      "t_mapping(t_bytes32,t_struct(Validator)74718_storage)": {
        "encoding": "mapping",
        "key": "t_bytes32",
        "label": "mapping(bytes32 => struct OutputV1.Validator)",
        "numberOfBytes": "32",
        "value": "t_struct(Validator)74718_storage"
      },
      "t_string_storage": {
        "encoding": "bytes",
        "label": "string",
        "numberOfBytes": "32"
      },
      "t_struct(Operator)74742_storage": {
        "encoding": "inplace",
        "label": "struct OutputV1.Operator",
        "numberOfBytes": "128",
        "members": [
          {
            "astId": 74725,
            "contract": "src/utils/OutputV1.sol:OutputV1",
            "label": "staked",
            "offset": 0,
            "slot": "0",
            "type": "t_uint96"
          },
          {
            "astId": 74727,
            "contract": "src/utils/OutputV1.sol:OutputV1",
            "label": "unstaked",
            "offset": 12,
            "slot": "0",
            "type": "t_uint96"
          },
          {
            "astId": 74729,
            "contract": "src/utils/OutputV1.sol:OutputV1",
            "label": "serviceFeeBps",
            "offset": 24,
            "slot": "0",
            "type": "t_uint16"
          },
          {
            "astId": 74731,
            "contract": "src/utils/OutputV1.sol:OutputV1",
            "label": "validatorFeeBps",
            "offset": 26,
            "slot": "0",
            "type": "t_uint16"
          },
          {
            "astId": 74733,
            "contract": "src/utils/OutputV1.sol:OutputV1",
            "label": "whitelisted",
            "offset": 28,
            "slot": "0",
            "type": "t_bool"
          },
          {
            "astId": 74735,
            "contract": "src/utils/OutputV1.sol:OutputV1",
            "label": "validatorAllowance",
            "offset": 29,
            "slot": "0",
            "type": "t_uint8"
          },
          {
            "astId": 74737,
            "contract": "src/utils/OutputV1.sol:OutputV1",
            "label": "manager",
            "offset": 0,
            "slot": "1",
            "type": "t_address"
          },
          {
            "astId": 74739,
            "contract": "src/utils/OutputV1.sol:OutputV1",
            "label": "feeRecipient",
            "offset": 0,
            "slot": "2",
            "type": "t_address"
          },
          {
            "astId": 74741,
            "contract": "src/utils/OutputV1.sol:OutputV1",
            "label": "name",
            "offset": 0,
            "slot": "3",
            "type": "t_string_storage"
          }
        ]
      },
      "t_struct(RoleData)44952_storage": {
        "encoding": "inplace",
        "label": "struct AccessControlUpgradeable.RoleData",
        "numberOfBytes": "64",
        "members": [
          {
            "astId": 44949,
            "contract": "src/utils/OutputV1.sol:OutputV1",
            "label": "members",
            "offset": 0,
            "slot": "0",
            "type": "t_mapping(t_address,t_bool)"
          },
          {
            "astId": 44951,
            "contract": "src/utils/OutputV1.sol:OutputV1",
            "label": "adminRole",
            "offset": 0,
            "slot": "1",
            "type": "t_bytes32"
          }
        ]
      },
      "t_struct(Validator)74718_storage": {
        "encoding": "inplace",
        "label": "struct OutputV1.Validator",
        "numberOfBytes": "32",
        "members": [
          {
            "astId": 74713,
            "contract": "src/utils/OutputV1.sol:OutputV1",
            "label": "operatorId",
            "offset": 0,
            "slot": "0",
            "type": "t_uint8"
          },
          {
            "astId": 74715,
            "contract": "src/utils/OutputV1.sol:OutputV1",
            "label": "whitelisted",
            "offset": 1,
            "slot": "0",
            "type": "t_bool"
          },
          {
            "astId": 74717,
            "contract": "src/utils/OutputV1.sol:OutputV1",
            "label": "trackBalance",
            "offset": 2,
            "slot": "0",
            "type": "t_bool"
          }
        ]
      },
      "t_uint16": {
        "encoding": "inplace",
        "label": "uint16",
        "numberOfBytes": "2"
      },
      "t_uint256": {
        "encoding": "inplace",
        "label": "uint256",
        "numberOfBytes": "32"
      },
      "t_uint48": {
        "encoding": "inplace",
        "label": "uint48",
        "numberOfBytes": "6"
      },
      "t_uint8": {
        "encoding": "inplace",
        "label": "uint8",
        "numberOfBytes": "1"
      },
      "t_uint96": {
        "encoding": "inplace",
        "label": "uint96",
        "numberOfBytes": "12"
      }
    }
  },
  "id": 191
}