{
  "abi": [
    {
      "inputs": [],
      "stateMutability": "nonpayable",
      "type": "constructor"
    },
    {
      "inputs": [
        {
          "internalType": "uint256",
          "name": "apr",
          "type": "uint256"
        }
      ],
      "name": "AprTooHigh",
      "type": "error"
    },
    {
      "inputs": [],
      "name": "ExcessiveFeeClaim",
      "type": "error"
    },
    {
      "inputs": [],
      "name": "InputLengthsMustMatch",
      "type": "error"
    },
    {
      "inputs": [],
      "name": "NotFeeRecipientOrManager",
      "type": "error"
    },
    {
      "inputs": [],
      "name": "RebaseTooSoon",
      "type": "error"
    },
    {
      "inputs": [
        {
          "internalType": "uint256",
          "name": "decrease",
          "type": "uint256"
        }
      ],
      "name": "SupplyDecreaseTooHigh",
      "type": "error"
    },
    {
      "inputs": [],
      "name": "ValidatorAddressesDoNotMatch",
      "type": "error"
    },
    {
      "anonymous": false,
      "inputs": [],
      "name": "DefaultAdminDelayChangeCanceled",
      "type": "event"
    },
    {
      "anonymous": false,
      "inputs": [
        {
          "indexed": false,
          "internalType": "uint48",
          "name": "newDelay",
          "type": "uint48"
        },
        {
          "indexed": false,
          "internalType": "uint48",
          "name": "effectSchedule",
          "type": "uint48"
        }
      ],
      "name": "DefaultAdminDelayChangeScheduled",
      "type": "event"
    },
    {
      "anonymous": false,
      "inputs": [],
      "name": "DefaultAdminTransferCanceled",
      "type": "event"
    },
    {
      "anonymous": false,
      "inputs": [
        {
          "indexed": true,
          "internalType": "address",
          "name": "newAdmin",
          "type": "address"
        },
        {
          "indexed": false,
          "internalType": "uint48",
          "name": "acceptSchedule",
          "type": "uint48"
        }
      ],
      "name": "DefaultAdminTransferScheduled",
      "type": "event"
    },
    {
      "anonymous": false,
      "inputs": [
        {
          "indexed": false,
          "internalType": "address",
          "name": "feeRecipient",
          "type": "address"
        },
        {
          "indexed": true,
          "internalType": "uint256",
          "name": "amount",
          "type": "uint256"
        },
        {
          "indexed": true,
          "internalType": "bool",
          "name": "receivedFlip",
          "type": "bool"
        },
        {
          "indexed": true,
          "internalType": "uint256",
          "name": "operatorId",
          "type": "uint256"
        }
      ],
      "name": "FeeClaim",
      "type": "event"
    },
    {
      "anonymous": false,
      "inputs": [
        {
          "indexed": false,
          "internalType": "uint8",
          "name": "version",
          "type": "uint8"
        }
      ],
      "name": "Initialized",
      "type": "event"
    },
    {
      "anonymous": false,
      "inputs": [
        {
          "indexed": true,
          "internalType": "uint256",
          "name": "newAprThreshold",
          "type": "uint256"
        }
      ],
      "name": "NewAprThreshold",
      "type": "event"
    },
    {
      "anonymous": false,
      "inputs": [
        {
          "indexed": true,
          "internalType": "uint256",
          "name": "newRebaseInterval",
          "type": "uint256"
        }
      ],
      "name": "NewRebaseInterval",
      "type": "event"
    },
    {
      "anonymous": false,
      "inputs": [
        {
          "indexed": true,
          "internalType": "uint256",
          "name": "newSlashThreshold",
          "type": "uint256"
        }
      ],
      "name": "NewSlashThreshold",
      "type": "event"
    },
    {
      "anonymous": false,
      "inputs": [
        {
          "indexed": true,
          "internalType": "uint256",
          "name": "apr",
          "type": "uint256"
        },
        {
          "indexed": true,
          "internalType": "uint256",
          "name": "stateChainBalance",
          "type": "uint256"
        },
        {
          "indexed": false,
          "internalType": "uint256",
          "name": "previousSupply",
          "type": "uint256"
        },
        {
          "indexed": true,
          "internalType": "uint256",
          "name": "newSupply",
          "type": "uint256"
        }
      ],
      "name": "RebaserRebase",
      "type": "event"
    },
    {
      "anonymous": false,
      "inputs": [
        {
          "indexed": true,
          "internalType": "bytes32",
          "name": "role",
          "type": "bytes32"
        },
        {
          "indexed": true,
          "internalType": "bytes32",
          "name": "previousAdminRole",
          "type": "bytes32"
        },
        {
          "indexed": true,
          "internalType": "bytes32",
          "name": "newAdminRole",
          "type": "bytes32"
        }
      ],
      "name": "RoleAdminChanged",
      "type": "event"
    },
    {
      "anonymous": false,
      "inputs": [
        {
          "indexed": true,
          "internalType": "bytes32",
          "name": "role",
          "type": "bytes32"
        },
        {
          "indexed": true,
          "internalType": "address",
          "name": "account",
          "type": "address"
        },
        {
          "indexed": true,
          "internalType": "address",
          "name": "sender",
          "type": "address"
        }
      ],
      "name": "RoleGranted",
      "type": "event"
    },
    {
      "anonymous": false,
      "inputs": [
        {
          "indexed": true,
          "internalType": "bytes32",
          "name": "role",
          "type": "bytes32"
        },
        {
          "indexed": true,
          "internalType": "address",
          "name": "account",
          "type": "address"
        },
        {
          "indexed": true,
          "internalType": "address",
          "name": "sender",
          "type": "address"
        }
      ],
      "name": "RoleRevoked",
      "type": "event"
    },
    {
      "inputs": [],
      "name": "BURNER_ROLE",
      "outputs": [
        {
          "internalType": "bytes32",
          "name": "",
          "type": "bytes32"
        }
      ],
      "stateMutability": "view",
      "type": "function"
    },
    {
      "inputs": [],
      "name": "DEFAULT_ADMIN_ROLE",
      "outputs": [
        {
          "internalType": "bytes32",
          "name": "",
          "type": "bytes32"
        }
      ],
      "stateMutability": "view",
      "type": "function"
    },
    {
      "inputs": [],
      "name": "FEE_RECIPIENT_ROLE",
      "outputs": [
        {
          "internalType": "bytes32",
          "name": "",
          "type": "bytes32"
        }
      ],
      "stateMutability": "view",
      "type": "function"
    },
    {
      "inputs": [],
      "name": "GOVERNOR_ROLE",
      "outputs": [
        {
          "internalType": "bytes32",
          "name": "",
          "type": "bytes32"
        }
      ],
      "stateMutability": "view",
      "type": "function"
    },
    {
      "inputs": [],
      "name": "MANAGER_ROLE",
      "outputs": [
        {
          "internalType": "bytes32",
          "name": "",
          "type": "bytes32"
        }
      ],
      "stateMutability": "view",
      "type": "function"
    },
    {
      "inputs": [],
      "name": "MINTER_ROLE",
      "outputs": [
        {
          "internalType": "bytes32",
          "name": "",
          "type": "bytes32"
        }
      ],
      "stateMutability": "view",
      "type": "function"
    },
    {
      "inputs": [],
      "name": "PAUSER_ROLE",
      "outputs": [
        {
          "internalType": "bytes32",
          "name": "",
          "type": "bytes32"
        }
      ],
      "stateMutability": "view",
      "type": "function"
    },
    {
      "inputs": [],
      "name": "REBASER_ROLE",
      "outputs": [
        {
          "internalType": "bytes32",
          "name": "",
          "type": "bytes32"
        }
      ],
      "stateMutability": "view",
      "type": "function"
    },
    {
      "inputs": [],
      "name": "acceptDefaultAdminTransfer",
      "outputs": [],
      "stateMutability": "nonpayable",
      "type": "function"
    },
    {
      "inputs": [],
      "name": "aprThresholdBps",
      "outputs": [
        {
          "internalType": "uint16",
          "name": "",
          "type": "uint16"
        }
      ],
      "stateMutability": "view",
      "type": "function"
    },
    {
      "inputs": [
        {
          "internalType": "address",
          "name": "newAdmin",
          "type": "address"
        }
      ],
      "name": "beginDefaultAdminTransfer",
      "outputs": [],
      "stateMutability": "nonpayable",
      "type": "function"
    },
    {
      "inputs": [],
      "name": "cancelDefaultAdminTransfer",
      "outputs": [],
      "stateMutability": "nonpayable",
      "type": "function"
    },
    {
      "inputs": [
        {
          "internalType": "uint48",
          "name": "newDelay",
          "type": "uint48"
        }
      ],
      "name": "changeDefaultAdminDelay",
      "outputs": [],
      "stateMutability": "nonpayable",
      "type": "function"
    },
    {
      "inputs": [
        {
          "internalType": "uint256",
          "name": "amount",
          "type": "uint256"
        },
        {
          "internalType": "bool",
          "name": "max",
          "type": "bool"
        },
        {
          "internalType": "bool",
          "name": "receiveFlip",
          "type": "bool"
        },
        {
          "internalType": "uint256",
          "name": "operatorId",
          "type": "uint256"
        }
      ],
      "name": "claimFee",
      "outputs": [],
      "stateMutability": "nonpayable",
      "type": "function"
    },
    {
      "inputs": [
        {
          "internalType": "uint256",
          "name": "amount",
          "type": "uint256"
        },
        {
          "internalType": "bool",
          "name": "max",
          "type": "bool"
        },
        {
          "internalType": "bool",
          "name": "receiveFlip",
          "type": "bool"
        }
      ],
      "name": "claimServiceFee",
      "outputs": [],
      "stateMutability": "nonpayable",
      "type": "function"
    },
    {
      "inputs": [],
      "name": "defaultAdmin",
      "outputs": [
        {
          "internalType": "address",
          "name": "",
          "type": "address"
        }
      ],
      "stateMutability": "view",
      "type": "function"
    },
    {
      "inputs": [],
      "name": "defaultAdminDelay",
      "outputs": [
        {
          "internalType": "uint48",
          "name": "",
          "type": "uint48"
        }
      ],
      "stateMutability": "view",
      "type": "function"
    },
    {
      "inputs": [],
      "name": "defaultAdminDelayIncreaseWait",
      "outputs": [
        {
          "internalType": "uint48",
          "name": "",
          "type": "uint48"
        }
      ],
      "stateMutability": "view",
      "type": "function"
    },
    {
      "inputs": [],
      "name": "flip",
      "outputs": [
        {
          "internalType": "contract IERC20",
          "name": "",
          "type": "address"
        }
      ],
      "stateMutability": "view",
      "type": "function"
    },
    {
      "inputs": [],
      "name": "getOperators",
      "outputs": [
        {
          "components": [
            {
              "internalType": "uint88",
              "name": "rewards",
              "type": "uint88"
            },
            {
              "internalType": "uint80",
              "name": "pendingFee",
              "type": "uint80"
            },
            {
              "internalType": "uint88",
              "name": "slashCounter",
              "type": "uint88"
            }
          ],
          "internalType": "struct RebaserV1.Operator[]",
          "name": "",
          "type": "tuple[]"
        }
      ],
      "stateMutability": "view",
      "type": "function"
    },
    {
      "inputs": [
        {
          "internalType": "bytes32",
          "name": "role",
          "type": "bytes32"
        }
      ],
      "name": "getRoleAdmin",
      "outputs": [
        {
          "internalType": "bytes32",
          "name": "",
          "type": "bytes32"
        }
      ],
      "stateMutability": "view",
      "type": "function"
    },
    {
      "inputs": [
        {
          "internalType": "bytes32",
          "name": "role",
          "type": "bytes32"
        },
        {
          "internalType": "address",
          "name": "account",
          "type": "address"
        }
      ],
      "name": "grantRole",
      "outputs": [],
      "stateMutability": "nonpayable",
      "type": "function"
    },
    {
      "inputs": [
        {
          "internalType": "bytes32",
          "name": "role",
          "type": "bytes32"
        },
        {
          "internalType": "address",
          "name": "account",
          "type": "address"
        }
      ],
      "name": "hasRole",
      "outputs": [
        {
          "internalType": "bool",
          "name": "",
          "type": "bool"
        }
      ],
      "stateMutability": "view",
      "type": "function"
    },
    {
      "inputs": [
        {
          "internalType": "address[8]",
          "name": "addresses",
          "type": "address[8]"
        },
        {
          "internalType": "uint256",
          "name": "aprThresholdBps_",
          "type": "uint256"
        },
        {
          "internalType": "uint256",
          "name": "slashThresholdBps_",
          "type": "uint256"
        },
        {
          "internalType": "uint256",
          "name": "rebaseInterval_",
          "type": "uint256"
        }
      ],
      "name": "initialize",
      "outputs": [],
      "stateMutability": "nonpayable",
      "type": "function"
    },
    {
      "inputs": [],
      "name": "lastRebaseTime",
      "outputs": [
        {
          "internalType": "uint32",
          "name": "",
          "type": "uint32"
        }
      ],
      "stateMutability": "view",
      "type": "function"
    },
    {
      "inputs": [
        {
          "internalType": "uint256",
          "name": "",
          "type": "uint256"
        }
      ],
      "name": "operators",
      "outputs": [
        {
          "internalType": "uint88",
          "name": "rewards",
          "type": "uint88"
        },
        {
          "internalType": "uint80",
          "name": "pendingFee",
          "type": "uint80"
        },
        {
          "internalType": "uint88",
          "name": "slashCounter",
          "type": "uint88"
        }
      ],
      "stateMutability": "view",
      "type": "function"
    },
    {
      "inputs": [],
      "name": "owner",
      "outputs": [
        {
          "internalType": "address",
          "name": "",
          "type": "address"
        }
      ],
      "stateMutability": "view",
      "type": "function"
    },
    {
      "inputs": [],
      "name": "pendingDefaultAdmin",
      "outputs": [
        {
          "internalType": "address",
          "name": "newAdmin",
          "type": "address"
        },
        {
          "internalType": "uint48",
          "name": "schedule",
          "type": "uint48"
        }
      ],
      "stateMutability": "view",
      "type": "function"
    },
    {
      "inputs": [],
      "name": "pendingDefaultAdminDelay",
      "outputs": [
        {
          "internalType": "uint48",
          "name": "newDelay",
          "type": "uint48"
        },
        {
          "internalType": "uint48",
          "name": "schedule",
          "type": "uint48"
        }
      ],
      "stateMutability": "view",
      "type": "function"
    },
    {
      "inputs": [
        {
          "internalType": "uint256",
          "name": "epoch",
          "type": "uint256"
        },
        {
          "internalType": "uint256[]",
          "name": "validatorBalances",
          "type": "uint256[]"
        },
        {
          "internalType": "bytes32[]",
          "name": "addresses",
          "type": "bytes32[]"
        },
        {
          "internalType": "bool",
          "name": "takeFee",
          "type": "bool"
        }
      ],
      "name": "rebase",
      "outputs": [],
      "stateMutability": "nonpayable",
      "type": "function"
    },
    {
      "inputs": [],
      "name": "rebaseInterval",
      "outputs": [
        {
          "internalType": "uint32",
          "name": "",
          "type": "uint32"
        }
      ],
      "stateMutability": "view",
      "type": "function"
    },
    {
      "inputs": [
        {
          "internalType": "bytes32",
          "name": "role",
          "type": "bytes32"
        },
        {
          "internalType": "address",
          "name": "account",
          "type": "address"
        }
      ],
      "name": "renounceRole",
      "outputs": [],
      "stateMutability": "nonpayable",
      "type": "function"
    },
    {
      "inputs": [
        {
          "internalType": "bytes32",
          "name": "role",
          "type": "bytes32"
        },
        {
          "internalType": "address",
          "name": "account",
          "type": "address"
        }
      ],
      "name": "revokeRole",
      "outputs": [],
      "stateMutability": "nonpayable",
      "type": "function"
    },
    {
      "inputs": [],
      "name": "rollbackDefaultAdminDelay",
      "outputs": [],
      "stateMutability": "nonpayable",
      "type": "function"
    },
    {
      "inputs": [],
      "name": "servicePendingFee",
      "outputs": [
        {
          "internalType": "uint80",
          "name": "",
          "type": "uint80"
        }
      ],
      "stateMutability": "view",
      "type": "function"
    },
    {
      "inputs": [
        {
          "internalType": "uint256",
          "name": "aprThresholdBps_",
          "type": "uint256"
        }
      ],
      "name": "setAprThresholdBps",
      "outputs": [],
      "stateMutability": "nonpayable",
      "type": "function"
    },
    {
      "inputs": [
        {
          "internalType": "uint256",
          "name": "rebaseInterval_",
          "type": "uint256"
        }
      ],
      "name": "setRebaseInterval",
      "outputs": [],
      "stateMutability": "nonpayable",
      "type": "function"
    },
    {
      "inputs": [
        {
          "internalType": "uint256",
          "name": "slashThresholdBps_",
          "type": "uint256"
        }
      ],
      "name": "setSlashThresholdBps",
      "outputs": [],
      "stateMutability": "nonpayable",
      "type": "function"
    },
    {
      "inputs": [],
      "name": "slashThresholdBps",
      "outputs": [
        {
          "internalType": "uint16",
          "name": "",
          "type": "uint16"
        }
      ],
      "stateMutability": "view",
      "type": "function"
    },
    {
      "inputs": [],
      "name": "stflip",
      "outputs": [
        {
          "internalType": "contract stFlip",
          "name": "",
          "type": "address"
        }
      ],
      "stateMutability": "view",
      "type": "function"
    },
    {
      "inputs": [
        {
          "internalType": "bytes4",
          "name": "interfaceId",
          "type": "bytes4"
        }
      ],
      "name": "supportsInterface",
      "outputs": [
        {
          "internalType": "bool",
          "name": "",
          "type": "bool"
        }
      ],
      "stateMutability": "view",
      "type": "function"
    },
    {
      "inputs": [],
      "name": "totalOperatorPendingFee",
      "outputs": [
        {
          "internalType": "uint80",
          "name": "",
          "type": "uint80"
        }
      ],
      "stateMutability": "view",
      "type": "function"
    },
    {
      "inputs": [],
      "name": "wrappedBurnerProxy",
      "outputs": [
        {
          "internalType": "contract BurnerV1",
          "name": "",
          "type": "address"
        }
      ],
      "stateMutability": "view",
      "type": "function"
    },
    {
      "inputs": [],
      "name": "wrappedMinterProxy",
      "outputs": [
        {
          "internalType": "contract MinterV1",
          "name": "",
          "type": "address"
        }
      ],
      "stateMutability": "view",
      "type": "function"
    },
    {
      "inputs": [],
      "name": "wrappedOutputProxy",
      "outputs": [
        {
          "internalType": "contract OutputV1",
          "name": "",
          "type": "address"
        }
      ],
      "stateMutability": "view",
      "type": "function"
    }
  ],
  "bytecode": {
    "object": "0x608060405234801562000010575f80fd5b506200001b62000021565b620000df565b5f54610100900460ff16156200008d5760405162461bcd60e51b815260206004820152602760248201527f496e697469616c697a61626c653a20636f6e747261637420697320696e697469604482015266616c697a696e6760c81b606482015260840160405180910390fd5b5f5460ff90811614620000dd575f805460ff191660ff9081179091556040519081527f7f26b83ff96e1f2b6a682f133852f6798a09c465da95921460cefb38474024989060200160405180910390a15b565b6133c180620000ed5f395ff3fe608060405234801561000f575f80fd5b5060043610610276575f3560e01c80638da5cb5b11610156578063d547741f116100ca578063e82748ca11610084578063e82748ca146106b4578063e83cbe39146106db578063ec87621c146106f5578063ef037fb914610709578063f025b2091461071c578063f063b32d1461072f575f80fd5b8063d547741f146105b6578063d602b9fd146105c9578063d81b3a2b146105d1578063e28d4906146105e4578063e33b89751461065b578063e63ab1e91461068d575f80fd5b8063cc8463c81161011b578063cc8463c814610517578063ccc574901461051f578063cde4efa914610546578063cefc142914610559578063cf6eefb714610561578063d53913931461058f575f80fd5b80638da5cb5b146104bb57806391d14854146104c3578063a1eda53c146104d6578063a217fddf146104fd578063b8c8fb2114610504575f80fd5b8063282c51f3116101ed5780634754b7a1116101b25780634754b7a114610433578063634e93da14610446578063649a5ec71461045957806383eb70e51461046c57806384ef8ffc1461049357806389edeb74146104a4575f80fd5b8063282c51f3146103bf5780632f2ff15d146103e657806336568abe146103f95780633f6c17ad1461040c57806343a1c54714610420575f80fd5b806310e481d51161023e57806310e481d5146102ee57806310fe237e1461030f5780631924063e1461033a578063248a9ca314610367578063258373851461039757806327a099d8146103aa575f80fd5b806301ffc9a71461027a578063022d63fb146102a2578063064d9d3d146102be5780630aa6220b146102d3578063109fc167146102db575b5f80fd5b61028d610288366004612b75565b610742565b60405190151581526020015b60405180910390f35b620697805b60405165ffffffffffff9091168152602001610299565b6102d16102cc366004612b9c565b61076c565b005b6102d16107c3565b6102d16102e9366004612bc0565b6107d8565b60c9546102fc9061ffff1681565b60405161ffff9091168152602001610299565b60cc54610322906001600160a01b031681565b6040516001600160a01b039091168152602001610299565b60c95461035290640100000000900463ffffffff1681565b60405163ffffffff9091168152602001610299565b610389610375366004612b9c565b5f9081526065602052604090206001015490565b604051908152602001610299565b6102d16103a5366004612b9c565b610ad2565b6103b2610b32565b6040516102999190612c05565b6103897f3c11d16cbaffd01df69ce1c404f6340ee057498f5f00246190ea54220576a84881565b6102d16103f4366004612c87565b610ca4565b6102d1610407366004612c87565b610d23565b60c9546102fc9062010000900461ffff1681565b6102d161042e366004612cb5565b610e0c565b6102d1610441366004612cf5565b611122565b6102d1610454366004612d34565b61133e565b6102d1610467366004612d4f565b611351565b6103897f5fde63b561377d1441afa201ff619faac2ff8fed70a7fbdbe7a5cb07768c0b7581565b6098546001600160a01b0316610322565b60c95461035290600160401b900463ffffffff1681565b610322611364565b61028d6104d1366004612c87565b61137c565b6104de6113a6565b6040805165ffffffffffff938416815292909116602083015201610299565b6103895f81565b60ca54610322906001600160a01b031681565b6102a76113f8565b6103897f7935bd0ae54bc31f548c14dba4d37c5c64b3f8ca900cb468fb8abd54d5894f5581565b60cd54610322906001600160a01b031681565b6102d1611456565b6105696114d3565b604080516001600160a01b03909316835265ffffffffffff909116602083015201610299565b6103897f9f2df0fed2c77648de5860a4cc508cd0818c85b8b8a1ab4ceeef8d981c8956a681565b6102d16105c4366004612c87565b6114f4565b6102d1611571565b60cb54610322906001600160a01b031681565b6106296105f2366004612b9c565b60cf6020525f90815260409020546001600160581b03808216916001600160501b03600160581b82041691600160a81b9091041683565b604080516001600160581b0394851681526001600160501b039093166020840152921691810191909152606001610299565b60c95461067590600160601b90046001600160501b031681565b6040516001600160501b039091168152602001610299565b6103897f65d7a28e3265b37a6474929f336521b332c1681b933f6cb9f3376673440d862a81565b6103897fb6edeab710812f8917b946c63c63b900f456e6a1abea66a90b1f8277f035664b81565b60c95461067590600160b01b90046001600160501b031681565b6103895f8051602061336c83398151915281565b6102d1610717366004612b9c565b611583565b60ce54610322906001600160a01b031681565b6102d161073d366004612dbc565b6115ee565b5f6001600160e01b031982166318a4c3c360e11b1480610766575061076682611949565b92915050565b5f6107768161197d565b61077f82611987565b60c9805461ffff191661ffff9290921691909117905560405182907f7c7727b8bcaa6689ef7201134e70a50faa03adb9d4cf96a905dffa8ea06047dd905f90a25050565b5f6107cd8161197d565b6107d56119ed565b50565b5f81815260cf60205260408082205460cb549151630c3e8d1160e31b8152600481018590528392600160581b9092046001600160501b0316916001600160a01b0316906361f46888906024016040805180830381865afa15801561083e573d5f803e3d5ffd5b505050506040513d601f19601f820116820180604052508101906108629190612e42565b90935091508515801561087457508087115b156108925760405163968af5a360e01b815260040160405180910390fd5b336001600160a01b038316148015906108b45750336001600160a01b03841614155b156108d2576040516310e9258960e11b815260040160405180910390fd5b5f866108de57876108e0565b815b90506108eb816119f9565b5f86815260cf602052604090208054600b90610918908490600160581b90046001600160501b0316612e83565b92506101000a8154816001600160501b0302191690836001600160501b03160217905550610945816119f9565b60c98054601690610967908490600160b01b90046001600160501b0316612e83565b92506101000a8154816001600160501b0302191690836001600160501b031602179055508515156001151503610a195760cd5460cb546040516323b872dd60e01b81526001600160a01b039182166004820152336024820152604481018490529116906323b872dd906064016020604051808303815f875af11580156109ef573d5f803e3d5ffd5b505050506040513d601f19601f82011682018060405250810190610a139190612eb3565b50610a8d565b60ce546040516340c10f1960e01b8152336004820152602481018390526001600160a01b03909116906340c10f19906044016020604051808303815f875af1158015610a67573d5f803e3d5ffd5b505050506040513d601f19601f82011682018060405250810190610a8b9190612eb3565b505b60405133815285908715159083907f170c902c4edcafb19ffe45aca96f240dcab1cc90c1f852ac1b9a8645bc105d079060200160405180910390a45050505050505050565b5f610adc8161197d565b610ae582611987565b60c9805461ffff92909216620100000263ffff00001990921691909117905560405182907fe4b0ed8ccd0452d63e30d46c6da86090092d34892df8b873ab5ba7b4aa060eee905f90a25050565b60605f60cb5f9054906101000a90046001600160a01b03166001600160a01b0316631a4a7c616040518163ffffffff1660e01b8152600401602060405180830381865afa158015610b85573d5f803e3d5ffd5b505050506040513d601f19601f82011682018060405250810190610ba99190612ece565b90505f8167ffffffffffffffff811115610bc557610bc5612ee5565b604051908082528060200260200182016040528015610c0e57816020015b604080516060810182525f80825260208083018290529282015282525f19909201910181610be35790505b5090505f5b82811015610c9d575f81815260cf6020908152604091829020825160608101845290546001600160581b0380821683526001600160501b03600160581b83041693830193909352600160a81b9004909116918101919091528251839083908110610c7f57610c7f612ef9565b60200260200101819052508080610c9590612f0d565b915050610c13565b5092915050565b81610d155760405162461bcd60e51b815260206004820152603660248201527f416363657373436f6e74726f6c3a2063616e2774206469726563746c79206772604482015275616e742064656661756c742061646d696e20726f6c6560501b60648201526084015b60405180910390fd5b610d1f8282611a60565b5050565b81158015610d3e57506098546001600160a01b038281169116145b15610e02575f80610d4d6114d3565b90925090506001600160a01b038216158015610d70575065ffffffffffff811615155b8015610d8357504265ffffffffffff8216105b610ded5760405162461bcd60e51b815260206004820152603560248201527f416363657373436f6e74726f6c3a206f6e6c792063616e2072656e6f756e636560448201527420696e2074776f2064656c6179656420737465707360581b6064820152608401610d0c565b50506097805465ffffffffffff60a01b191690555b610d1f8282611a89565b5f54610100900460ff1615808015610e2a57505f54600160ff909116105b80610e435750303b158015610e4357505f5460ff166001145b610ea65760405162461bcd60e51b815260206004820152602e60248201527f496e697469616c697a61626c653a20636f6e747261637420697320616c72656160448201526d191e481a5b9a5d1a585b1a5e995960921b6064820152608401610d0c565b5f805460ff191660011790558015610ec7575f805461ff0019166101001790555b610ed46020860186612d34565b60cd80546001600160a01b0319166001600160a01b0392909216919091179055610f046040860160208701612d34565b60ca80546001600160a01b0319166001600160a01b0392909216919091179055610f3d5f610f386060880160408901612d34565b611b03565b610f6a5f8051602061336c8339815191528660025b602002016020810190610f659190612d34565b611b33565b610f835f8051602061336c833981519152866004610f52565b610faf7fb6edeab710812f8917b946c63c63b900f456e6a1abea66a90b1f8277f035664b866003610f52565b610fbf60c0860160a08701612d34565b60ce80546001600160a01b0319166001600160a01b0392909216919091179055610fef60e0860160c08701612d34565b60cb80546001600160a01b0319166001600160a01b0392909216919091179055611020610100860160e08701612d34565b60cc80546001600160a01b0319166001600160a01b039290921691909117905561104983611987565b60c960026101000a81548161ffff021916908361ffff16021790555061106e84611987565b60c9805461ffff191661ffff9290921691909117905561108d82611bdc565b60c960086101000a81548163ffffffff021916908363ffffffff1602179055506110b642611bdc565b60c960046101000a81548163ffffffff021916908363ffffffff160217905550801561111b575f805461ff0019169055604051600181527f7f26b83ff96e1f2b6a682f133852f6798a09c465da95921460cefb38474024989060200160405180910390a15b5050505050565b7fb6edeab710812f8917b946c63c63b900f456e6a1abea66a90b1f8277f035664b61114c8161197d565b8215801561116b575060c954600160601b90046001600160501b031684115b156111895760405163968af5a360e01b815260040160405180910390fd5b5f8361119557846111a9565b60c954600160601b90046001600160501b03165b90506111b4816119f9565b60c98054600c906111d6908490600160601b90046001600160501b0316612e83565b92506101000a8154816001600160501b0302191690836001600160501b0316021790555082151560011515036112885760cd5460cb546040516323b872dd60e01b81526001600160a01b039182166004820152336024820152604481018490529116906323b872dd906064016020604051808303815f875af115801561125e573d5f803e3d5ffd5b505050506040513d601f19601f820116820180604052508101906112829190612eb3565b506112fc565b60ce546040516340c10f1960e01b8152336004820152602481018390526001600160a01b03909116906340c10f19906044016020604051808303815f875af11580156112d6573d5f803e3d5ffd5b505050506040513d601f19601f820116820180604052508101906112fa9190612eb3565b505b6040513381525f908415159083907f170c902c4edcafb19ffe45aca96f240dcab1cc90c1f852ac1b9a8645bc105d079060200160405180910390a45050505050565b5f6113488161197d565b610d1f82611c40565b5f61135b8161197d565b610d1f82611cb2565b5f6113776098546001600160a01b031690565b905090565b5f9182526065602090815260408084206001600160a01b0393909316845291905290205460ff1690565b6098545f90600160d01b900465ffffffffffff1680151580156113d157504265ffffffffffff821610155b6113dc575f806113f0565b609854600160a01b900465ffffffffffff16815b915091509091565b6098545f90600160d01b900465ffffffffffff16801515801561142257504265ffffffffffff8216105b61143d57609754600160d01b900465ffffffffffff16611450565b609854600160a01b900465ffffffffffff165b91505090565b5f61145f6114d3565b509050336001600160a01b038216146114cb5760405162461bcd60e51b815260206004820152602860248201527f416363657373436f6e74726f6c3a2070656e64696e672061646d696e206d75736044820152671d081858d8d95c1d60c21b6064820152608401610d0c565b6107d5611d21565b6097546001600160a01b03811691600160a01b90910465ffffffffffff1690565b816115675760405162461bcd60e51b815260206004820152603760248201527f416363657373436f6e74726f6c3a2063616e2774206469726563746c7920726560448201527f766f6b652064656661756c742061646d696e20726f6c650000000000000000006064820152608401610d0c565b610d1f8282611de9565b5f61157b8161197d565b6107d5611e0d565b5f61158d8161197d565b61159682611bdc565b60c9805463ffffffff92909216600160401b026bffffffff00000000000000001990921691909117905560405182907fa2f43834a98afe051fecdf3ad4e6e49e5269d09038972451b2daf178cc7b46cc905f90a25050565b5f8051602061336c8339815191526116058161197d565b60c9545f9061162290640100000000900463ffffffff1642612f25565b60c954909150600160401b900463ffffffff168110156116555760405163bb6e6ce160e01b815260040160405180910390fd5b8584146116755760405163125c95b960e01b815260040160405180910390fd5b5f806116848989898989611e17565b915091505f60ce5f9054906101000a90046001600160a01b03166001600160a01b03166318160ddd6040518163ffffffff1660e01b8152600401602060405180830381865afa1580156116d9573d5f803e3d5ffd5b505050506040513d601f19601f820116820180604052508101906116fd9190612ece565b60c95460ca5460408051632fe3188160e11b815290519394505f938693600160601b90046001600160501b0316926001600160a01b031691635fc631029160048083019260209291908290030181865afa15801561175d573d5f803e3d5ffd5b505050506040513d601f19601f820116820180604052508101906117819190612ece565b60cd5460cb546040516370a0823160e01b81526001600160a01b0391821660048201529116906370a0823190602401602060405180830381865afa1580156117cb573d5f803e3d5ffd5b505050506040513d601f19601f820116820180604052508101906117ef9190612ece565b6117f99088612f38565b6118039190612f25565b61180d9190612f25565b6118179190612f25565b90505f61182586848461208b565b905060ce5f9054906101000a90046001600160a01b03166001600160a01b0316638f490d708e8460c960089054906101000a900463ffffffff166040518463ffffffff1660e01b815260040161189493929190928352602083019190915263ffffffff16604082015260600190565b6020604051808303815f875af11580156118b0573d5f803e3d5ffd5b505050506040513d601f19601f820116820180604052508101906118d49190612eb3565b506118de42611bdc565b60c960046101000a81548163ffffffff021916908363ffffffff1602179055508185827f4bebbc153c41fda68c534243bcaa82e56806356863b729e66205708d51cf5cce8660405161193291815260200190565b60405180910390a450505050505050505050505050565b5f6001600160e01b03198216637965db0b60e01b148061076657506301ffc9a760e01b6001600160e01b0319831614610766565b6107d581336121b0565b5f61ffff8211156119e95760405162461bcd60e51b815260206004820152602660248201527f53616665436173743a2076616c756520646f65736e27742066697420696e203160448201526536206269747360d01b6064820152608401610d0c565b5090565b6119f75f80612209565b565b5f6001600160501b038211156119e95760405162461bcd60e51b815260206004820152602660248201527f53616665436173743a2076616c756520646f65736e27742066697420696e203860448201526530206269747360d01b6064820152608401610d0c565b5f82815260656020526040902060010154611a7a8161197d565b611a848383611b33565b505050565b6001600160a01b0381163314611af95760405162461bcd60e51b815260206004820152602f60248201527f416363657373436f6e74726f6c3a2063616e206f6e6c792072656e6f756e636560448201526e103937b632b9903337b91039b2b63360891b6064820152608401610d0c565b610d1f82826122c8565b5f54610100900460ff16611b295760405162461bcd60e51b8152600401610d0c90612f4b565b610d1f8282612303565b81611bd2575f611b4b6098546001600160a01b031690565b6001600160a01b031614611bb65760405162461bcd60e51b815260206004820152602c60248201527f416363657373436f6e74726f6c3a2064656661756c742061646d696e20616c7260448201526b1958591e4819dc985b9d195960a21b6064820152608401610d0c565b609880546001600160a01b0319166001600160a01b0383161790555b610d1f82826123a8565b5f63ffffffff8211156119e95760405162461bcd60e51b815260206004820152602660248201527f53616665436173743a2076616c756520646f65736e27742066697420696e203360448201526532206269747360d01b6064820152608401610d0c565b5f611c496113f8565b611c524261242d565b611c5c9190612f96565b9050611c688282612493565b60405165ffffffffffff821681526001600160a01b038316907f3377dc44241e779dd06afab5b788a35ca5f3b778836e2990bdb26a2a4b2e5ed69060200160405180910390a25050565b5f611cbc82612510565b611cc54261242d565b611ccf9190612f96565b9050611cdb8282612209565b6040805165ffffffffffff8085168252831660208201527ff1038c18cf84a56e432fdbfaf746924b7ea511dfe03a6506a0ceba4888788d9b910160405180910390a15050565b5f80611d2b6114d3565b91509150611d408165ffffffffffff16151590565b8015611d5357504265ffffffffffff8216105b611db05760405162461bcd60e51b815260206004820152602860248201527f416363657373436f6e74726f6c3a207472616e736665722064656c6179206e6f6044820152671d081c185cdcd95960c21b6064820152608401610d0c565b611dcb5f611dc66098546001600160a01b031690565b6122c8565b611dd55f83611b33565b5050609780546001600160d01b0319169055565b5f82815260656020526040902060010154611e038161197d565b611a8483836122c8565b6119f75f80612493565b60cb54604051636797b49560e11b81525f9182918291829182918291829182916001600160a01b039091169063cf2f692a90611e59908e908e90600401612fb5565b5f60405180830381865afa158015611e73573d5f803e3d5ffd5b505050506040513d5f823e601f3d908101601f19168201604052611e9a9190810190613046565b9250925092505f8267ffffffffffffffff811115611eba57611eba612ee5565b604051908082528060200260200182016040528015611ee3578160200160208202803683370190505b5090508115155f03611f08576040516308d8296f60e01b815260040160405180910390fd5b8c8b14611f285760405163125c95b960e01b815260040160405180910390fd5b83515f5b81811015611ff557858181518110611f4657611f46612ef9565b60200260200101516020015115156001151503611fe5578f8f82818110611f6f57611f6f612ef9565b9050602002013583878381518110611f8957611f89612ef9565b60200260200101515f015160ff1681518110611fa757611fa7612ef9565b60200260200101818151611fbb9190612f38565b9052508f8f82818110611fd057611fd0612ef9565b9050602002013589611fe29190612f38565b98505b611fee81612f0d565b9050611f2c565b50600195505b838610156120455761202782878151811061201857612018612ef9565b6020026020010151878d61255e565b6120319088612f38565b96508561203d81612f0d565b965050611ffb565b61204e876119f9565b60c980546001600160501b0392909216600160b01b026001600160b01b039092169190911790555095975093955050505050509550959350505050565b5f808383111561215057655af3107a40006301e133806120b387670de0b6b3a7640000613141565b6120bd9190613158565b670de0b6b3a7640000866120d18783613141565b6120db9190613158565b6120e59190612f25565b6120f790670de0b6b3a7640000613141565b6121019190613158565b61210b9190613158565b60c95490915061ffff16612120826001612f38565b1061214b57612130816001612f38565b60405162f637e760e51b8152600401610d0c91815260200190565b6121a8565b5f8461215e85612710613141565b6121689190613158565b61217490612710612f25565b60c95490915062010000900461ffff1681106121a65760405163e27d543960e01b815260048101829052602401610d0c565b505b949350505050565b6121ba828261137c565b610d1f576121c7816128eb565b6121d28360206128fd565b6040516020016121e3929190613199565b60408051601f198184030181529082905262461bcd60e51b8252610d0c9160040161320d565b609854600160d01b900465ffffffffffff16801561228b574265ffffffffffff8216101561226257609854609780546001600160d01b0316600160a01b90920465ffffffffffff16600160d01b0291909117905561228b565b6040517f2b1fa2edafe6f7b9e97c1a9e0c3660e645beb2dcaa2d45bdbf9beaf5472e1ec5905f90a15b50609880546001600160a01b0316600160a01b65ffffffffffff948516026001600160d01b031617600160d01b9290931691909102919091179055565b811580156122e357506098546001600160a01b038281169116145b156122f957609880546001600160a01b03191690555b610d1f8282612a93565b5f54610100900460ff166123295760405162461bcd60e51b8152600401610d0c90612f4b565b6001600160a01b03811661237f5760405162461bcd60e51b815260206004820152601e60248201527f416363657373436f6e74726f6c3a20302064656661756c742061646d696e00006044820152606401610d0c565b609780546001600160d01b0316600160d01b65ffffffffffff851602179055610d1f5f82611b33565b6123b2828261137c565b610d1f575f8281526065602090815260408083206001600160a01b03851684529091529020805460ff191660011790556123e93390565b6001600160a01b0316816001600160a01b0316837f2f8788117e7eff1d82e926ec794901d17c78024a50270940304540a733656f0d60405160405180910390a45050565b5f65ffffffffffff8211156119e95760405162461bcd60e51b815260206004820152602660248201527f53616665436173743a2076616c756520646f65736e27742066697420696e203460448201526538206269747360d01b6064820152608401610d0c565b5f61249c6114d3565b6097805465ffffffffffff8616600160a01b026001600160d01b03199091166001600160a01b0388161717905591506124de90508165ffffffffffff16151590565b15611a84576040517f8886ebfc4259abdbc16601dd8fb5678e54878f47b3c34836cfc51154a9605109905f90a1505050565b5f8061251a6113f8565b90508065ffffffffffff168365ffffffffffff16116125425761253d838261323f565b612557565b61255765ffffffffffff841662069780612af9565b9392505050565b60cb54604051634deda15b60e11b8152600481018490525f91829182918291829182916001600160a01b0390911690639bdb42b690602401608060405180830381865afa1580156125b1573d5f803e3d5ffd5b505050506040513d601f19601f820116820180604052508101906125d59190613285565b5f8c815260cf602052604081205494985092965090945092506001600160581b03600160a81b830481169261260b9116876132d6565b6001600160601b031690505f82866001600160601b031661262c9190612f38565b905081612639828e612f38565b1061284e5780821115612661576126508183612f25565b61265a908d612f25565b9750612678565b61266b8282612f25565b612675908d612f38565b97505b828811156127ef5782156126ad576126908389612f25565b5f8c815260cf6020526040902080546001600160a81b0316905597505b6126b6886119f9565b5f8c815260cf6020526040812080546001600160501b0393909316929091906126e99084906001600160581b03166132f6565b92506101000a8154816001600160581b0302191690836001600160581b0316021790555089151560011515036127ea5761273c61271061272d61ffff87168b613141565b6127379190613158565b6119f9565b5f8c815260cf602052604090208054600b90612769908490600160581b90046001600160501b0316613316565b92506101000a8154816001600160501b0302191690836001600160501b031602179055506127a36127108661ffff168a61272d9190613141565b60c98054600c906127c5908490600160601b90046001600160501b0316613316565b92506101000a8154816001600160501b0302191690836001600160501b031602179055505b6128bd565b6127f888612b0e565b5f8c815260cf602052604090208054601590612825908490600160a81b90046001600160581b0316613336565b92506101000a8154816001600160581b0302191690836001600160581b031602179055506128bd565b61286b8c61285c8385612f25565b6128669190612f25565b612b0e565b5f8c815260cf602052604090208054601590612898908490600160a81b90046001600160581b03166132f6565b92506101000a8154816001600160581b0302191690836001600160581b031602179055505b5050505f978852505060cf6020525050604090932054600160581b90046001600160501b0316949350505050565b60606107666001600160a01b03831660145b60605f61290b836002613141565b612916906002612f38565b67ffffffffffffffff81111561292e5761292e612ee5565b6040519080825280601f01601f191660200182016040528015612958576020820181803683370190505b509050600360fc1b815f8151811061297257612972612ef9565b60200101906001600160f81b03191690815f1a905350600f60fb1b816001815181106129a0576129a0612ef9565b60200101906001600160f81b03191690815f1a9053505f6129c2846002613141565b6129cd906001612f38565b90505b6001811115612a44576f181899199a1a9b1b9c1cb0b131b232b360811b85600f1660108110612a0157612a01612ef9565b1a60f81b828281518110612a1757612a17612ef9565b60200101906001600160f81b03191690815f1a90535060049490941c93612a3d81613356565b90506129d0565b5083156125575760405162461bcd60e51b815260206004820181905260248201527f537472696e67733a20686578206c656e67746820696e73756666696369656e746044820152606401610d0c565b612a9d828261137c565b15610d1f575f8281526065602090815260408083206001600160a01b0385168085529252808320805460ff1916905551339285917ff6391f5c32d9c69d2a47ea670b442974b53935d1edc7fd64eb21e047a839171b9190a45050565b5f818310612b075781612557565b5090919050565b5f6001600160581b038211156119e95760405162461bcd60e51b815260206004820152602660248201527f53616665436173743a2076616c756520646f65736e27742066697420696e203860448201526538206269747360d01b6064820152608401610d0c565b5f60208284031215612b85575f80fd5b81356001600160e01b031981168114612557575f80fd5b5f60208284031215612bac575f80fd5b5035919050565b80151581146107d5575f80fd5b5f805f8060808587031215612bd3575f80fd5b843593506020850135612be581612bb3565b92506040850135612bf581612bb3565b9396929550929360600135925050565b602080825282518282018190525f919060409081850190868401855b82811015612c6657815180516001600160581b039081168652878201516001600160501b03168887015290860151168585015260609093019290850190600101612c21565b5091979650505050505050565b6001600160a01b03811681146107d5575f80fd5b5f8060408385031215612c98575f80fd5b823591506020830135612caa81612c73565b809150509250929050565b5f805f806101608587031215612cc9575f80fd5b610100850186811115612cda575f80fd5b94969435955050506101208501359261014086013592509050565b5f805f60608486031215612d07575f80fd5b833592506020840135612d1981612bb3565b91506040840135612d2981612bb3565b809150509250925092565b5f60208284031215612d44575f80fd5b813561255781612c73565b5f60208284031215612d5f575f80fd5b813565ffffffffffff81168114612557575f80fd5b5f8083601f840112612d84575f80fd5b50813567ffffffffffffffff811115612d9b575f80fd5b6020830191508360208260051b8501011115612db5575f80fd5b9250929050565b5f805f805f8060808789031215612dd1575f80fd5b86359550602087013567ffffffffffffffff80821115612def575f80fd5b612dfb8a838b01612d74565b90975095506040890135915080821115612e13575f80fd5b50612e2089828a01612d74565b9094509250506060870135612e3481612bb3565b809150509295509295509295565b5f8060408385031215612e53575f80fd5b8251612e5e81612c73565b6020840151909250612caa81612c73565b634e487b7160e01b5f52601160045260245ffd5b6001600160501b03828116828216039080821115610c9d57610c9d612e6f565b8051612eae81612bb3565b919050565b5f60208284031215612ec3575f80fd5b815161255781612bb3565b5f60208284031215612ede575f80fd5b5051919050565b634e487b7160e01b5f52604160045260245ffd5b634e487b7160e01b5f52603260045260245ffd5b5f60018201612f1e57612f1e612e6f565b5060010190565b8181038181111561076657610766612e6f565b8082018082111561076657610766612e6f565b6020808252602b908201527f496e697469616c697a61626c653a20636f6e7472616374206973206e6f74206960408201526a6e697469616c697a696e6760a81b606082015260800190565b65ffffffffffff818116838216019080821115610c9d57610c9d612e6f565b602080825281018290525f6001600160fb1b03831115612fd3575f80fd5b8260051b80856040850137919091016040019392505050565b6040805190810167ffffffffffffffff8111828210171561300f5761300f612ee5565b60405290565b604051601f8201601f1916810167ffffffffffffffff8111828210171561303e5761303e612ee5565b604052919050565b5f805f60608486031215613058575f80fd5b835167ffffffffffffffff8082111561306f575f80fd5b818601915086601f830112613082575f80fd5b815160208282111561309657613096612ee5565b6130a4818360051b01613015565b828152818101935060069290921b8401810191898311156130c3575f80fd5b938101935b8285101561311e576040858b0312156130e0575f8081fd5b6130e8612fec565b855160ff811681146130f9575f8081fd5b81528583015161310881612bb3565b81840152845260409490940193928101926130c8565b809750508088015195505050505061313860408501612ea3565b90509250925092565b808202811582820484141761076657610766612e6f565b5f8261317257634e487b7160e01b5f52601260045260245ffd5b500490565b5f5b83811015613191578181015183820152602001613179565b50505f910152565b7f416363657373436f6e74726f6c3a206163636f756e742000000000000000000081525f83516131d0816017850160208801613177565b7001034b99036b4b9b9b4b733903937b6329607d1b6017918401918201528351613201816028840160208801613177565b01602801949350505050565b602081525f825180602084015261322b816040850160208701613177565b601f01601f19169190910160400192915050565b65ffffffffffff828116828216039080821115610c9d57610c9d612e6f565b80516001600160601b0381168114612eae575f80fd5b805161ffff81168114612eae575f80fd5b5f805f8060808587031215613298575f80fd5b6132a18561325e565b93506132af6020860161325e565b92506132bd60408601613274565b91506132cb60608601613274565b905092959194509250565b6001600160601b03818116838216019080821115610c9d57610c9d612e6f565b6001600160581b03818116838216019080821115610c9d57610c9d612e6f565b6001600160501b03818116838216019080821115610c9d57610c9d612e6f565b6001600160581b03828116828216039080821115610c9d57610c9d612e6f565b5f8161336457613364612e6f565b505f19019056fe241ecf16d79d0f8dbfb92cbc07fe17840425976cf0667f022fe9877caa831b08a26469706673582212204af0679f72c3899b26c5094b7e444e0cba53d77894fe2c9b4ecd6f405510942e64736f6c63430008140033",
    "linkReferences": {}
  },
  "methodIdentifiers": {
    "BURNER_ROLE()": "282c51f3",
    "DEFAULT_ADMIN_ROLE()": "a217fddf",
    "FEE_RECIPIENT_ROLE()": "e82748ca",
    "GOVERNOR_ROLE()": "ccc57490",
    "MANAGER_ROLE()": "ec87621c",
    "MINTER_ROLE()": "d5391393",
    "PAUSER_ROLE()": "e63ab1e9",
    "REBASER_ROLE()": "83eb70e5",
    "acceptDefaultAdminTransfer()": "cefc1429",
    "aprThresholdBps()": "10e481d5",
    "beginDefaultAdminTransfer(address)": "634e93da",
    "cancelDefaultAdminTransfer()": "d602b9fd",
    "changeDefaultAdminDelay(uint48)": "649a5ec7",
    "claimFee(uint256,bool,bool,uint256)": "109fc167",
    "claimServiceFee(uint256,bool,bool)": "4754b7a1",
    "defaultAdmin()": "84ef8ffc",
    "defaultAdminDelay()": "cc8463c8",
    "defaultAdminDelayIncreaseWait()": "022d63fb",
    "flip()": "cde4efa9",
    "getOperators()": "27a099d8",
    "getRoleAdmin(bytes32)": "248a9ca3",
    "grantRole(bytes32,address)": "2f2ff15d",
    "hasRole(bytes32,address)": "91d14854",
    "initialize(address[8],uint256,uint256,uint256)": "43a1c547",
    "lastRebaseTime()": "1924063e",
    "operators(uint256)": "e28d4906",
    "owner()": "8da5cb5b",
    "pendingDefaultAdmin()": "cf6eefb7",
    "pendingDefaultAdminDelay()": "a1eda53c",
    "rebase(uint256,uint256[],bytes32[],bool)": "f063b32d",
    "rebaseInterval()": "89edeb74",
    "renounceRole(bytes32,address)": "36568abe",
    "revokeRole(bytes32,address)": "d547741f",
    "rollbackDefaultAdminDelay()": "0aa6220b",
    "servicePendingFee()": "e33b8975",
    "setAprThresholdBps(uint256)": "064d9d3d",
    "setRebaseInterval(uint256)": "ef037fb9",
    "setSlashThresholdBps(uint256)": "25837385",
    "slashThresholdBps()": "3f6c17ad",
    "stflip()": "f025b209",
    "supportsInterface(bytes4)": "01ffc9a7",
    "totalOperatorPendingFee()": "e83cbe39",
    "wrappedBurnerProxy()": "b8c8fb21",
    "wrappedMinterProxy()": "10fe237e",
    "wrappedOutputProxy()": "d81b3a2b"
  },
  "storageLayout": {
    "storage": [
      {
        "astId": 45871,
        "contract": "src/utils/RebaserV1.sol:RebaserV1",
        "label": "_initialized",
        "offset": 0,
        "slot": "0",
        "type": "t_uint8"
      },
      {
        "astId": 45874,
        "contract": "src/utils/RebaserV1.sol:RebaserV1",
        "label": "_initializing",
        "offset": 1,
        "slot": "0",
        "type": "t_bool"
      },
      {
        "astId": 47945,
        "contract": "src/utils/RebaserV1.sol:RebaserV1",
        "label": "__gap",
        "offset": 0,
        "slot": "1",
        "type": "t_array(t_uint256)50_storage"
      },
      {
        "astId": 48942,
        "contract": "src/utils/RebaserV1.sol:RebaserV1",
        "label": "__gap",
        "offset": 0,
        "slot": "51",
        "type": "t_array(t_uint256)50_storage"
      },
      {
        "astId": 44957,
        "contract": "src/utils/RebaserV1.sol:RebaserV1",
        "label": "_roles",
        "offset": 0,
        "slot": "101",
        "type": "t_mapping(t_bytes32,t_struct(RoleData)44952_storage)"
      },
      {
        "astId": 45252,
        "contract": "src/utils/RebaserV1.sol:RebaserV1",
        "label": "__gap",
        "offset": 0,
        "slot": "102",
        "type": "t_array(t_uint256)49_storage"
      },
      {
        "astId": 44222,
        "contract": "src/utils/RebaserV1.sol:RebaserV1",
        "label": "_pendingDefaultAdmin",
        "offset": 0,
        "slot": "151",
        "type": "t_address"
      },
      {
        "astId": 44224,
        "contract": "src/utils/RebaserV1.sol:RebaserV1",
        "label": "_pendingDefaultAdminSchedule",
        "offset": 20,
        "slot": "151",
        "type": "t_uint48"
      },
      {
        "astId": 44226,
        "contract": "src/utils/RebaserV1.sol:RebaserV1",
        "label": "_currentDelay",
        "offset": 26,
        "slot": "151",
        "type": "t_uint48"
      },
      {
        "astId": 44228,
        "contract": "src/utils/RebaserV1.sol:RebaserV1",
        "label": "_currentDefaultAdmin",
        "offset": 0,
        "slot": "152",
        "type": "t_address"
      },
      {
        "astId": 44230,
        "contract": "src/utils/RebaserV1.sol:RebaserV1",
        "label": "_pendingDelay",
        "offset": 20,
        "slot": "152",
        "type": "t_uint48"
      },
      {
        "astId": 44232,
        "contract": "src/utils/RebaserV1.sol:RebaserV1",
        "label": "_pendingDelaySchedule",
        "offset": 26,
        "slot": "152",
        "type": "t_uint48"
      },
      {
        "astId": 44916,
        "contract": "src/utils/RebaserV1.sol:RebaserV1",
        "label": "__gap",
        "offset": 0,
        "slot": "153",
        "type": "t_array(t_uint256)48_storage"
      },
      {
        "astId": 75932,
        "contract": "src/utils/RebaserV1.sol:RebaserV1",
        "label": "aprThresholdBps",
        "offset": 0,
        "slot": "201",
        "type": "t_uint16"
      },
      {
        "astId": 75934,
        "contract": "src/utils/RebaserV1.sol:RebaserV1",
        "label": "slashThresholdBps",
        "offset": 2,
        "slot": "201",
        "type": "t_uint16"
      },
      {
        "astId": 75936,
        "contract": "src/utils/RebaserV1.sol:RebaserV1",
        "label": "lastRebaseTime",
        "offset": 4,
        "slot": "201",
        "type": "t_uint32"
      },
      {
        "astId": 75938,
        "contract": "src/utils/RebaserV1.sol:RebaserV1",
        "label": "rebaseInterval",
        "offset": 8,
        "slot": "201",
        "type": "t_uint32"
      },
      {
        "astId": 75940,
        "contract": "src/utils/RebaserV1.sol:RebaserV1",
        "label": "servicePendingFee",
        "offset": 12,
        "slot": "201",
        "type": "t_uint80"
      },
      {
        "astId": 75942,
        "contract": "src/utils/RebaserV1.sol:RebaserV1",
        "label": "totalOperatorPendingFee",
        "offset": 22,
        "slot": "201",
        "type": "t_uint80"
      },
      {
        "astId": 75945,
        "contract": "src/utils/RebaserV1.sol:RebaserV1",
        "label": "wrappedBurnerProxy",
        "offset": 0,
        "slot": "202",
        "type": "t_contract(BurnerV1)74564"
      },
      {
        "astId": 75948,
        "contract": "src/utils/RebaserV1.sol:RebaserV1",
        "label": "wrappedOutputProxy",
        "offset": 0,
        "slot": "203",
        "type": "t_contract(OutputV1)75869"
      },
      {
        "astId": 75951,
        "contract": "src/utils/RebaserV1.sol:RebaserV1",
        "label": "wrappedMinterProxy",
        "offset": 0,
        "slot": "204",
        "type": "t_contract(MinterV1)74683"
      },
      {
        "astId": 75954,
        "contract": "src/utils/RebaserV1.sol:RebaserV1",
        "label": "flip",
        "offset": 0,
        "slot": "205",
        "type": "t_contract(IERC20)57630"
      },
      {
        "astId": 75957,
        "contract": "src/utils/RebaserV1.sol:RebaserV1",
        "label": "stflip",
        "offset": 0,
        "slot": "206",
        "type": "t_contract(stFlip)73252"
      },
      {
        "astId": 75969,
        "contract": "src/utils/RebaserV1.sol:RebaserV1",
        "label": "operators",
        "offset": 0,
        "slot": "207",
        "type": "t_mapping(t_uint256,t_struct(Operator)75964_storage)"
      }
    ],
    "types": {
      "t_address": {
        "encoding": "inplace",
        "label": "address",
        "numberOfBytes": "20"
      },
      "t_array(t_uint256)48_storage": {
        "encoding": "inplace",
        "label": "uint256[48]",
        "numberOfBytes": "1536",
        "base": "t_uint256"
      },
      "t_array(t_uint256)49_storage": {
        "encoding": "inplace",
        "label": "uint256[49]",
        "numberOfBytes": "1568",
        "base": "t_uint256"
      },
      "t_array(t_uint256)50_storage": {
        "encoding": "inplace",
        "label": "uint256[50]",
        "numberOfBytes": "1600",
        "base": "t_uint256"
      },
      "t_bool": {
        "encoding": "inplace",
        "label": "bool",
        "numberOfBytes": "1"
      },
      "t_bytes32": {
        "encoding": "inplace",
        "label": "bytes32",
        "numberOfBytes": "32"
      },
      "t_contract(BurnerV1)74564": {
        "encoding": "inplace",
        "label": "contract BurnerV1",
        "numberOfBytes": "20"
      },
      "t_contract(IERC20)57630": {
        "encoding": "inplace",
        "label": "contract IERC20",
        "numberOfBytes": "20"
      },
      "t_contract(MinterV1)74683": {
        "encoding": "inplace",
        "label": "contract MinterV1",
        "numberOfBytes": "20"
      },
      "t_contract(OutputV1)75869": {
        "encoding": "inplace",
        "label": "contract OutputV1",
        "numberOfBytes": "20"
      },
      "t_contract(stFlip)73252": {
        "encoding": "inplace",
        "label": "contract stFlip",
        "numberOfBytes": "20"
      },
      "t_mapping(t_address,t_bool)": {
        "encoding": "mapping",
        "key": "t_address",
        "label": "mapping(address => bool)",
        "numberOfBytes": "32",
        "value": "t_bool"
      },
      "t_mapping(t_bytes32,t_struct(RoleData)44952_storage)": {
        "encoding": "mapping",
        "key": "t_bytes32",
        "label": "mapping(bytes32 => struct AccessControlUpgradeable.RoleData)",
        "numberOfBytes": "32",
        "value": "t_struct(RoleData)44952_storage"
      },
      "t_mapping(t_uint256,t_struct(Operator)75964_storage)": {
        "encoding": "mapping",
        "key": "t_uint256",
        "label": "mapping(uint256 => struct RebaserV1.Operator)",
        "numberOfBytes": "32",
        "value": "t_struct(Operator)75964_storage"
      },
      "t_struct(Operator)75964_storage": {
        "encoding": "inplace",
        "label": "struct RebaserV1.Operator",
        "numberOfBytes": "32",
        "members": [
          {
            "astId": 75959,
            "contract": "src/utils/RebaserV1.sol:RebaserV1",
            "label": "rewards",
            "offset": 0,
            "slot": "0",
            "type": "t_uint88"
          },
          {
            "astId": 75961,
            "contract": "src/utils/RebaserV1.sol:RebaserV1",
            "label": "pendingFee",
            "offset": 11,
            "slot": "0",
            "type": "t_uint80"
          },
          {
            "astId": 75963,
            "contract": "src/utils/RebaserV1.sol:RebaserV1",
            "label": "slashCounter",
            "offset": 21,
            "slot": "0",
            "type": "t_uint88"
          }
        ]
      },
      "t_struct(RoleData)44952_storage": {
        "encoding": "inplace",
        "label": "struct AccessControlUpgradeable.RoleData",
        "numberOfBytes": "64",
        "members": [
          {
            "astId": 44949,
            "contract": "src/utils/RebaserV1.sol:RebaserV1",
            "label": "members",
            "offset": 0,
            "slot": "0",
            "type": "t_mapping(t_address,t_bool)"
          },
          {
            "astId": 44951,
            "contract": "src/utils/RebaserV1.sol:RebaserV1",
            "label": "adminRole",
            "offset": 0,
            "slot": "1",
            "type": "t_bytes32"
          }
        ]
      },
      "t_uint16": {
        "encoding": "inplace",
        "label": "uint16",
        "numberOfBytes": "2"
      },
      "t_uint256": {
        "encoding": "inplace",
        "label": "uint256",
        "numberOfBytes": "32"
      },
      "t_uint32": {
        "encoding": "inplace",
        "label": "uint32",
        "numberOfBytes": "4"
      },
      "t_uint48": {
        "encoding": "inplace",
        "label": "uint48",
        "numberOfBytes": "6"
      },
      "t_uint8": {
        "encoding": "inplace",
        "label": "uint8",
        "numberOfBytes": "1"
      },
      "t_uint80": {
        "encoding": "inplace",
        "label": "uint80",
        "numberOfBytes": "10"
      },
      "t_uint88": {
        "encoding": "inplace",
        "label": "uint88",
        "numberOfBytes": "11"
      }
    }
  },
  "id": 193
}