{
  "abi": [
    {
      "inputs": [],
      "stateMutability": "nonpayable",
      "type": "constructor"
    },
    {
      "inputs": [],
      "name": "BurnIsPaused",
      "type": "error"
    },
    {
      "inputs": [],
      "name": "MintIsPaused",
      "type": "error"
    },
    {
      "inputs": [],
      "name": "RebaseIsPaused",
      "type": "error"
    },
    {
      "inputs": [],
      "name": "TransferIsPaused",
      "type": "error"
    },
    {
      "anonymous": false,
      "inputs": [
        {
          "indexed": true,
          "internalType": "address",
          "name": "owner",
          "type": "address"
        },
        {
          "indexed": true,
          "internalType": "address",
          "name": "spender",
          "type": "address"
        },
        {
          "indexed": false,
          "internalType": "uint256",
          "name": "amount",
          "type": "uint256"
        }
      ],
      "name": "Approval",
      "type": "event"
    },
    {
      "anonymous": false,
      "inputs": [],
      "name": "DefaultAdminDelayChangeCanceled",
      "type": "event"
    },
    {
      "anonymous": false,
      "inputs": [
        {
          "indexed": false,
          "internalType": "uint48",
          "name": "newDelay",
          "type": "uint48"
        },
        {
          "indexed": false,
          "internalType": "uint48",
          "name": "effectSchedule",
          "type": "uint48"
        }
      ],
      "name": "DefaultAdminDelayChangeScheduled",
      "type": "event"
    },
    {
      "anonymous": false,
      "inputs": [],
      "name": "DefaultAdminTransferCanceled",
      "type": "event"
    },
    {
      "anonymous": false,
      "inputs": [
        {
          "indexed": true,
          "internalType": "address",
          "name": "newAdmin",
          "type": "address"
        },
        {
          "indexed": false,
          "internalType": "uint48",
          "name": "acceptSchedule",
          "type": "uint48"
        }
      ],
      "name": "DefaultAdminTransferScheduled",
      "type": "event"
    },
    {
      "anonymous": false,
      "inputs": [
        {
          "indexed": false,
          "internalType": "uint8",
          "name": "version",
          "type": "uint8"
        }
      ],
      "name": "Initialized",
      "type": "event"
    },
    {
      "anonymous": false,
      "inputs": [
        {
          "indexed": false,
          "internalType": "address",
          "name": "to",
          "type": "address"
        },
        {
          "indexed": false,
          "internalType": "uint256",
          "name": "amount",
          "type": "uint256"
        }
      ],
      "name": "Mint",
      "type": "event"
    },
    {
      "anonymous": false,
      "inputs": [
        {
          "indexed": false,
          "internalType": "uint256",
          "name": "epoch",
          "type": "uint256"
        },
        {
          "indexed": false,
          "internalType": "uint256",
          "name": "currentSupply",
          "type": "uint256"
        },
        {
          "indexed": false,
          "internalType": "uint256",
          "name": "newSupply",
          "type": "uint256"
        },
        {
          "indexed": false,
          "internalType": "uint256",
          "name": "rebaseInterval",
          "type": "uint256"
        }
      ],
      "name": "Rebase",
      "type": "event"
    },
    {
      "anonymous": false,
      "inputs": [
        {
          "indexed": true,
          "internalType": "bytes32",
          "name": "role",
          "type": "bytes32"
        },
        {
          "indexed": true,
          "internalType": "bytes32",
          "name": "previousAdminRole",
          "type": "bytes32"
        },
        {
          "indexed": true,
          "internalType": "bytes32",
          "name": "newAdminRole",
          "type": "bytes32"
        }
      ],
      "name": "RoleAdminChanged",
      "type": "event"
    },
    {
      "anonymous": false,
      "inputs": [
        {
          "indexed": true,
          "internalType": "bytes32",
          "name": "role",
          "type": "bytes32"
        },
        {
          "indexed": true,
          "internalType": "address",
          "name": "account",
          "type": "address"
        },
        {
          "indexed": true,
          "internalType": "address",
          "name": "sender",
          "type": "address"
        }
      ],
      "name": "RoleGranted",
      "type": "event"
    },
    {
      "anonymous": false,
      "inputs": [
        {
          "indexed": true,
          "internalType": "bytes32",
          "name": "role",
          "type": "bytes32"
        },
        {
          "indexed": true,
          "internalType": "address",
          "name": "account",
          "type": "address"
        },
        {
          "indexed": true,
          "internalType": "address",
          "name": "sender",
          "type": "address"
        }
      ],
      "name": "RoleRevoked",
      "type": "event"
    },
    {
      "anonymous": false,
      "inputs": [
        {
          "indexed": true,
          "internalType": "address",
          "name": "from",
          "type": "address"
        },
        {
          "indexed": true,
          "internalType": "address",
          "name": "to",
          "type": "address"
        },
        {
          "indexed": false,
          "internalType": "uint256",
          "name": "amount",
          "type": "uint256"
        }
      ],
      "name": "Transfer",
      "type": "event"
    },
    {
      "inputs": [],
      "name": "BURNER_ROLE",
      "outputs": [
        {
          "internalType": "bytes32",
          "name": "",
          "type": "bytes32"
        }
      ],
      "stateMutability": "view",
      "type": "function"
    },
    {
      "inputs": [],
      "name": "CLOCK_MODE",
      "outputs": [
        {
          "internalType": "string",
          "name": "",
          "type": "string"
        }
      ],
      "stateMutability": "pure",
      "type": "function"
    },
    {
      "inputs": [],
      "name": "DEFAULT_ADMIN_ROLE",
      "outputs": [
        {
          "internalType": "bytes32",
          "name": "",
          "type": "bytes32"
        }
      ],
      "stateMutability": "view",
      "type": "function"
    },
    {
      "inputs": [],
      "name": "FEE_RECIPIENT_ROLE",
      "outputs": [
        {
          "internalType": "bytes32",
          "name": "",
          "type": "bytes32"
        }
      ],
      "stateMutability": "view",
      "type": "function"
    },
    {
      "inputs": [],
      "name": "GOVERNOR_ROLE",
      "outputs": [
        {
          "internalType": "bytes32",
          "name": "",
          "type": "bytes32"
        }
      ],
      "stateMutability": "view",
      "type": "function"
    },
    {
      "inputs": [],
      "name": "MANAGER_ROLE",
      "outputs": [
        {
          "internalType": "bytes32",
          "name": "",
          "type": "bytes32"
        }
      ],
      "stateMutability": "view",
      "type": "function"
    },
    {
      "inputs": [],
      "name": "MINTER_ROLE",
      "outputs": [
        {
          "internalType": "bytes32",
          "name": "",
          "type": "bytes32"
        }
      ],
      "stateMutability": "view",
      "type": "function"
    },
    {
      "inputs": [],
      "name": "PAUSER_ROLE",
      "outputs": [
        {
          "internalType": "bytes32",
          "name": "",
          "type": "bytes32"
        }
      ],
      "stateMutability": "view",
      "type": "function"
    },
    {
      "inputs": [],
      "name": "REBASER_ROLE",
      "outputs": [
        {
          "internalType": "bytes32",
          "name": "",
          "type": "bytes32"
        }
      ],
      "stateMutability": "view",
      "type": "function"
    },
    {
      "inputs": [],
      "name": "acceptDefaultAdminTransfer",
      "outputs": [],
      "stateMutability": "nonpayable",
      "type": "function"
    },
    {
      "inputs": [
        {
          "internalType": "address",
          "name": "owner_",
          "type": "address"
        },
        {
          "internalType": "address",
          "name": "spender",
          "type": "address"
        }
      ],
      "name": "allowance",
      "outputs": [
        {
          "internalType": "uint256",
          "name": "",
          "type": "uint256"
        }
      ],
      "stateMutability": "view",
      "type": "function"
    },
    {
      "inputs": [
        {
          "internalType": "address",
          "name": "spender",
          "type": "address"
        },
        {
          "internalType": "uint256",
          "name": "value",
          "type": "uint256"
        }
      ],
      "name": "approve",
      "outputs": [
        {
          "internalType": "bool",
          "name": "",
          "type": "bool"
        }
      ],
      "stateMutability": "nonpayable",
      "type": "function"
    },
    {
      "inputs": [
        {
          "internalType": "address",
          "name": "account",
          "type": "address"
        },
        {
          "internalType": "uint256",
          "name": "timepoint",
          "type": "uint256"
        }
      ],
      "name": "balanceOf",
      "outputs": [
        {
          "internalType": "uint256",
          "name": "",
          "type": "uint256"
        }
      ],
      "stateMutability": "view",
      "type": "function"
    },
    {
      "inputs": [
        {
          "internalType": "address",
          "name": "who",
          "type": "address"
        }
      ],
      "name": "balanceOf",
      "outputs": [
        {
          "internalType": "uint256",
          "name": "",
          "type": "uint256"
        }
      ],
      "stateMutability": "view",
      "type": "function"
    },
    {
      "inputs": [],
      "name": "balancePerShare",
      "outputs": [
        {
          "internalType": "uint256",
          "name": "",
          "type": "uint256"
        }
      ],
      "stateMutability": "view",
      "type": "function"
    },
    {
      "inputs": [],
      "name": "balanceToShareDecimals",
      "outputs": [
        {
          "internalType": "uint256",
          "name": "",
          "type": "uint256"
        }
      ],
      "stateMutability": "view",
      "type": "function"
    },
    {
      "inputs": [
        {
          "internalType": "uint256",
          "name": "balance",
          "type": "uint256"
        }
      ],
      "name": "balanceToShares",
      "outputs": [
        {
          "internalType": "uint256",
          "name": "",
          "type": "uint256"
        }
      ],
      "stateMutability": "view",
      "type": "function"
    },
    {
      "inputs": [
        {
          "internalType": "address",
          "name": "newAdmin",
          "type": "address"
        }
      ],
      "name": "beginDefaultAdminTransfer",
      "outputs": [],
      "stateMutability": "nonpayable",
      "type": "function"
    },
    {
      "inputs": [
        {
          "internalType": "uint256",
          "name": "value",
          "type": "uint256"
        },
        {
          "internalType": "address",
          "name": "refundee",
          "type": "address"
        }
      ],
      "name": "burn",
      "outputs": [
        {
          "internalType": "bool",
          "name": "",
          "type": "bool"
        }
      ],
      "stateMutability": "nonpayable",
      "type": "function"
    },
    {
      "inputs": [],
      "name": "burnPaused",
      "outputs": [
        {
          "internalType": "bool",
          "name": "",
          "type": "bool"
        }
      ],
      "stateMutability": "view",
      "type": "function"
    },
    {
      "inputs": [],
      "name": "cancelDefaultAdminTransfer",
      "outputs": [],
      "stateMutability": "nonpayable",
      "type": "function"
    },
    {
      "inputs": [
        {
          "internalType": "uint48",
          "name": "newDelay",
          "type": "uint48"
        }
      ],
      "name": "changeDefaultAdminDelay",
      "outputs": [],
      "stateMutability": "nonpayable",
      "type": "function"
    },
    {
      "inputs": [],
      "name": "clock",
      "outputs": [
        {
          "internalType": "uint48",
          "name": "",
          "type": "uint48"
        }
      ],
      "stateMutability": "view",
      "type": "function"
    },
    {
      "inputs": [],
      "name": "decimals",
      "outputs": [
        {
          "internalType": "uint8",
          "name": "",
          "type": "uint8"
        }
      ],
      "stateMutability": "view",
      "type": "function"
    },
    {
      "inputs": [],
      "name": "defaultAdmin",
      "outputs": [
        {
          "internalType": "address",
          "name": "",
          "type": "address"
        }
      ],
      "stateMutability": "view",
      "type": "function"
    },
    {
      "inputs": [],
      "name": "defaultAdminDelay",
      "outputs": [
        {
          "internalType": "uint48",
          "name": "",
          "type": "uint48"
        }
      ],
      "stateMutability": "view",
      "type": "function"
    },
    {
      "inputs": [],
      "name": "defaultAdminDelayIncreaseWait",
      "outputs": [
        {
          "internalType": "uint48",
          "name": "",
          "type": "uint48"
        }
      ],
      "stateMutability": "view",
      "type": "function"
    },
    {
      "inputs": [
        {
          "internalType": "address",
          "name": "",
          "type": "address"
        }
      ],
      "name": "delegate",
      "outputs": [],
      "stateMutability": "nonpayable",
      "type": "function"
    },
    {
      "inputs": [
        {
          "internalType": "address",
          "name": "account",
          "type": "address"
        }
      ],
      "name": "delegates",
      "outputs": [
        {
          "internalType": "address",
          "name": "",
          "type": "address"
        }
      ],
      "stateMutability": "view",
      "type": "function"
    },
    {
      "inputs": [
        {
          "internalType": "uint256",
          "name": "timepoint",
          "type": "uint256"
        }
      ],
      "name": "getPastTotalSupply",
      "outputs": [
        {
          "internalType": "uint256",
          "name": "",
          "type": "uint256"
        }
      ],
      "stateMutability": "view",
      "type": "function"
    },
    {
      "inputs": [
        {
          "internalType": "address",
          "name": "account",
          "type": "address"
        },
        {
          "internalType": "uint256",
          "name": "timepoint",
          "type": "uint256"
        }
      ],
      "name": "getPastVotes",
      "outputs": [
        {
          "internalType": "uint256",
          "name": "",
          "type": "uint256"
        }
      ],
      "stateMutability": "view",
      "type": "function"
    },
    {
      "inputs": [
        {
          "internalType": "bytes32",
          "name": "role",
          "type": "bytes32"
        }
      ],
      "name": "getRoleAdmin",
      "outputs": [
        {
          "internalType": "bytes32",
          "name": "",
          "type": "bytes32"
        }
      ],
      "stateMutability": "view",
      "type": "function"
    },
    {
      "inputs": [
        {
          "internalType": "address",
          "name": "account",
          "type": "address"
        }
      ],
      "name": "getVotes",
      "outputs": [
        {
          "internalType": "uint256",
          "name": "",
          "type": "uint256"
        }
      ],
      "stateMutability": "view",
      "type": "function"
    },
    {
      "inputs": [
        {
          "internalType": "address",
          "name": "account",
          "type": "address"
        },
        {
          "internalType": "uint256",
          "name": "timepoint",
          "type": "uint256"
        }
      ],
      "name": "getVotes",
      "outputs": [
        {
          "internalType": "uint256",
          "name": "",
          "type": "uint256"
        }
      ],
      "stateMutability": "view",
      "type": "function"
    },
    {
      "inputs": [
        {
          "internalType": "bytes32",
          "name": "role",
          "type": "bytes32"
        },
        {
          "internalType": "address",
          "name": "account",
          "type": "address"
        }
      ],
      "name": "grantRole",
      "outputs": [],
      "stateMutability": "nonpayable",
      "type": "function"
    },
    {
      "inputs": [
        {
          "internalType": "bytes32",
          "name": "role",
          "type": "bytes32"
        },
        {
          "internalType": "address",
          "name": "account",
          "type": "address"
        }
      ],
      "name": "hasRole",
      "outputs": [
        {
          "internalType": "bool",
          "name": "",
          "type": "bool"
        }
      ],
      "stateMutability": "view",
      "type": "function"
    },
    {
      "inputs": [
        {
          "internalType": "string",
          "name": "name_",
          "type": "string"
        },
        {
          "internalType": "string",
          "name": "symbol_",
          "type": "string"
        },
        {
          "internalType": "uint8",
          "name": "decimals_",
          "type": "uint8"
        },
        {
          "internalType": "address",
          "name": "gov_",
          "type": "address"
        },
        {
          "internalType": "uint256",
          "name": "initialSupply_",
          "type": "uint256"
        },
        {
          "internalType": "address",
          "name": "burner",
          "type": "address"
        },
        {
          "internalType": "address",
          "name": "minter",
          "type": "address"
        },
        {
          "internalType": "address",
          "name": "rebaser",
          "type": "address"
        }
      ],
      "name": "initialize",
      "outputs": [],
      "stateMutability": "nonpayable",
      "type": "function"
    },
    {
      "inputs": [],
      "name": "lastSnapshotTime",
      "outputs": [
        {
          "internalType": "uint32",
          "name": "",
          "type": "uint32"
        }
      ],
      "stateMutability": "view",
      "type": "function"
    },
    {
      "inputs": [
        {
          "internalType": "address",
          "name": "to",
          "type": "address"
        },
        {
          "internalType": "uint256",
          "name": "amount",
          "type": "uint256"
        }
      ],
      "name": "mint",
      "outputs": [
        {
          "internalType": "bool",
          "name": "",
          "type": "bool"
        }
      ],
      "stateMutability": "nonpayable",
      "type": "function"
    },
    {
      "inputs": [],
      "name": "mintPaused",
      "outputs": [
        {
          "internalType": "bool",
          "name": "",
          "type": "bool"
        }
      ],
      "stateMutability": "view",
      "type": "function"
    },
    {
      "inputs": [],
      "name": "name",
      "outputs": [
        {
          "internalType": "string",
          "name": "",
          "type": "string"
        }
      ],
      "stateMutability": "view",
      "type": "function"
    },
    {
      "inputs": [
        {
          "internalType": "uint256",
          "name": "snapshot",
          "type": "uint256"
        }
      ],
      "name": "newSnapshotTime",
      "outputs": [
        {
          "internalType": "bool",
          "name": "",
          "type": "bool"
        }
      ],
      "stateMutability": "nonpayable",
      "type": "function"
    },
    {
      "inputs": [],
      "name": "owner",
      "outputs": [
        {
          "internalType": "address",
          "name": "",
          "type": "address"
        }
      ],
      "stateMutability": "view",
      "type": "function"
    },
    {
      "inputs": [
        {
          "internalType": "bool",
          "name": "status",
          "type": "bool"
        }
      ],
      "name": "pauseBurn",
      "outputs": [
        {
          "internalType": "bool",
          "name": "",
          "type": "bool"
        }
      ],
      "stateMutability": "nonpayable",
      "type": "function"
    },
    {
      "inputs": [
        {
          "internalType": "bool",
          "name": "status",
          "type": "bool"
        }
      ],
      "name": "pauseMint",
      "outputs": [
        {
          "internalType": "bool",
          "name": "",
          "type": "bool"
        }
      ],
      "stateMutability": "nonpayable",
      "type": "function"
    },
    {
      "inputs": [
        {
          "internalType": "bool",
          "name": "status",
          "type": "bool"
        }
      ],
      "name": "pauseRebase",
      "outputs": [
        {
          "internalType": "bool",
          "name": "",
          "type": "bool"
        }
      ],
      "stateMutability": "nonpayable",
      "type": "function"
    },
    {
      "inputs": [
        {
          "internalType": "bool",
          "name": "status",
          "type": "bool"
        }
      ],
      "name": "pauseTransfer",
      "outputs": [
        {
          "internalType": "bool",
          "name": "",
          "type": "bool"
        }
      ],
      "stateMutability": "nonpayable",
      "type": "function"
    },
    {
      "inputs": [],
      "name": "pendingDefaultAdmin",
      "outputs": [
        {
          "internalType": "address",
          "name": "newAdmin",
          "type": "address"
        },
        {
          "internalType": "uint48",
          "name": "schedule",
          "type": "uint48"
        }
      ],
      "stateMutability": "view",
      "type": "function"
    },
    {
      "inputs": [],
      "name": "pendingDefaultAdminDelay",
      "outputs": [
        {
          "internalType": "uint48",
          "name": "newDelay",
          "type": "uint48"
        },
        {
          "internalType": "uint48",
          "name": "schedule",
          "type": "uint48"
        }
      ],
      "stateMutability": "view",
      "type": "function"
    },
    {
      "inputs": [],
      "name": "preSyncSupply",
      "outputs": [
        {
          "internalType": "uint96",
          "name": "",
          "type": "uint96"
        }
      ],
      "stateMutability": "view",
      "type": "function"
    },
    {
      "inputs": [],
      "name": "rebasePaused",
      "outputs": [
        {
          "internalType": "bool",
          "name": "",
          "type": "bool"
        }
      ],
      "stateMutability": "view",
      "type": "function"
    },
    {
      "inputs": [
        {
          "internalType": "bytes32",
          "name": "role",
          "type": "bytes32"
        },
        {
          "internalType": "address",
          "name": "account",
          "type": "address"
        }
      ],
      "name": "renounceRole",
      "outputs": [],
      "stateMutability": "nonpayable",
      "type": "function"
    },
    {
      "inputs": [
        {
          "internalType": "address",
          "name": "token",
          "type": "address"
        },
        {
          "internalType": "address",
          "name": "to",
          "type": "address"
        },
        {
          "internalType": "uint256",
          "name": "amount",
          "type": "uint256"
        }
      ],
      "name": "rescueTokens",
      "outputs": [
        {
          "internalType": "bool",
          "name": "",
          "type": "bool"
        }
      ],
      "stateMutability": "nonpayable",
      "type": "function"
    },
    {
      "inputs": [
        {
          "internalType": "bytes32",
          "name": "role",
          "type": "bytes32"
        },
        {
          "internalType": "address",
          "name": "account",
          "type": "address"
        }
      ],
      "name": "revokeRole",
      "outputs": [],
      "stateMutability": "nonpayable",
      "type": "function"
    },
    {
      "inputs": [],
      "name": "rewardsToSync",
      "outputs": [
        {
          "internalType": "uint96",
          "name": "",
          "type": "uint96"
        }
      ],
      "stateMutability": "view",
      "type": "function"
    },
    {
      "inputs": [],
      "name": "rollbackDefaultAdminDelay",
      "outputs": [],
      "stateMutability": "nonpayable",
      "type": "function"
    },
    {
      "inputs": [],
      "name": "shareDecimals",
      "outputs": [
        {
          "internalType": "uint256",
          "name": "",
          "type": "uint256"
        }
      ],
      "stateMutability": "view",
      "type": "function"
    },
    {
      "inputs": [
        {
          "internalType": "address",
          "name": "who",
          "type": "address"
        }
      ],
      "name": "sharesOf",
      "outputs": [
        {
          "internalType": "uint256",
          "name": "",
          "type": "uint256"
        }
      ],
      "stateMutability": "view",
      "type": "function"
    },
    {
      "inputs": [
        {
          "internalType": "uint256",
          "name": "shares",
          "type": "uint256"
        }
      ],
      "name": "sharesToBalance",
      "outputs": [
        {
          "internalType": "uint256",
          "name": "",
          "type": "uint256"
        }
      ],
      "stateMutability": "view",
      "type": "function"
    },
    {
      "inputs": [
        {
          "internalType": "bytes4",
          "name": "interfaceId",
          "type": "bytes4"
        }
      ],
      "name": "supportsInterface",
      "outputs": [
        {
          "internalType": "bool",
          "name": "",
          "type": "bool"
        }
      ],
      "stateMutability": "view",
      "type": "function"
    },
    {
      "inputs": [],
      "name": "symbol",
      "outputs": [
        {
          "internalType": "string",
          "name": "",
          "type": "string"
        }
      ],
      "stateMutability": "view",
      "type": "function"
    },
    {
      "inputs": [],
      "name": "syncEnd",
      "outputs": [
        {
          "internalType": "uint32",
          "name": "",
          "type": "uint32"
        }
      ],
      "stateMutability": "view",
      "type": "function"
    },
    {
      "inputs": [],
      "name": "syncStart",
      "outputs": [
        {
          "internalType": "uint32",
          "name": "",
          "type": "uint32"
        }
      ],
      "stateMutability": "view",
      "type": "function"
    },
    {
      "inputs": [
        {
          "internalType": "uint256",
          "name": "epoch",
          "type": "uint256"
        },
        {
          "internalType": "uint256",
          "name": "newSupply",
          "type": "uint256"
        },
        {
          "internalType": "uint256",
          "name": "syncInterval",
          "type": "uint256"
        }
      ],
      "name": "syncSupply",
      "outputs": [
        {
          "internalType": "bool",
          "name": "",
          "type": "bool"
        }
      ],
      "stateMutability": "nonpayable",
      "type": "function"
    },
    {
      "inputs": [],
      "name": "totalShares",
      "outputs": [
        {
          "internalType": "uint256",
          "name": "",
          "type": "uint256"
        }
      ],
      "stateMutability": "view",
      "type": "function"
    },
    {
      "inputs": [],
      "name": "totalSupply",
      "outputs": [
        {
          "internalType": "uint256",
          "name": "",
          "type": "uint256"
        }
      ],
      "stateMutability": "view",
      "type": "function"
    },
    {
      "inputs": [
        {
          "internalType": "uint256",
          "name": "timepoint",
          "type": "uint256"
        }
      ],
      "name": "totalSupplyAt",
      "outputs": [
        {
          "internalType": "uint256",
          "name": "",
          "type": "uint256"
        }
      ],
      "stateMutability": "view",
      "type": "function"
    },
    {
      "inputs": [],
      "name": "totalSupplyRaw",
      "outputs": [
        {
          "internalType": "uint256",
          "name": "",
          "type": "uint256"
        }
      ],
      "stateMutability": "view",
      "type": "function"
    },
    {
      "inputs": [
        {
          "internalType": "address",
          "name": "to",
          "type": "address"
        },
        {
          "internalType": "uint256",
          "name": "value",
          "type": "uint256"
        }
      ],
      "name": "transfer",
      "outputs": [
        {
          "internalType": "bool",
          "name": "",
          "type": "bool"
        }
      ],
      "stateMutability": "nonpayable",
      "type": "function"
    },
    {
      "inputs": [
        {
          "internalType": "address",
          "name": "from",
          "type": "address"
        },
        {
          "internalType": "address",
          "name": "to",
          "type": "address"
        },
        {
          "internalType": "uint256",
          "name": "value",
          "type": "uint256"
        }
      ],
      "name": "transferFrom",
      "outputs": [
        {
          "internalType": "bool",
          "name": "",
          "type": "bool"
        }
      ],
      "stateMutability": "nonpayable",
      "type": "function"
    },
    {
      "inputs": [],
      "name": "transferPaused",
      "outputs": [
        {
          "internalType": "bool",
          "name": "",
          "type": "bool"
        }
      ],
      "stateMutability": "view",
      "type": "function"
    }
  ],
  "bytecode": {
    "object": "0x608060405234801562000010575f80fd5b506200001b62000021565b620000df565b5f54610100900460ff16156200008d5760405162461bcd60e51b815260206004820152602760248201527f496e697469616c697a61626c653a20636f6e747261637420697320696e697469604482015266616c697a696e6760c81b606482015260840160405180910390fd5b5f5460ff90811614620000dd575f805460ff191660ff9081179091556040519081527f7f26b83ff96e1f2b6a682f133852f6798a09c465da95921460cefb38474024989060200160405180910390a15b565b6133da80620000ed5f395ff3fe608060405234801561000f575f80fd5b506004361061040b575f3560e01c80638da5cb5b11610221578063cefc14291161012a578063e63ab1e9116100b4578063f30e6e7711610084578063f30e6e77146109af578063f3ab777b146109c2578063f5eb42dc146109d5578063fb2cb34e146109e8578063fcd3533c146109fa575f80fd5b8063e63ab1e91461094d578063e82748ca14610961578063eb9019d41461040f578063ec87621c14610988575f80fd5b8063d602b9fd116100fa578063d602b9fd146108d3578063d684534e146108db578063d8ddf18f146108ef578063dd62ed3e14610902578063e34fed821461093a575f80fd5b8063cefc142914610876578063cf6eefb71461087e578063d5391393146108ac578063d547741f146108c0575f80fd5b80639ab24eb0116101ab578063a9059cbb1161017b578063a9059cbb14610808578063be74baf21461081b578063cc8463c814610834578063ccc574901461083c578063cea9d26f14610863575f80fd5b80639ab24eb0146107bf578063a1eda53c146107d2578063a217fddf146107f9578063a781a3fd14610800575f80fd5b806391ddadf4116101f157806391ddadf41461078357806394086eca1461078957806395d89b411461079157806396d6d2fb14610799578063981b24d0146107ac575f80fd5b80638da5cb5b146107425780638e539e8c1461074a5780638f490d701461075d57806391d1485414610770575f80fd5b806335191a9d11610323578063587cde1e116102ad57806370a082311161027d57806370a08231146106dd5780637478c9e0146106f05780637e4831d31461070a57806383eb70e51461071d57806384ef8ffc14610731575f80fd5b8063587cde1e1461067d5780635c19a95c146106a6578063634e93da146106b7578063649a5ec7146106ca575f80fd5b80633af8e5eb116102f35780633af8e5eb1461060857806340c10f19146106195780634bf5d7e91461062c57806353735f371461065657806353ca9f2414610669575f80fd5b806335191a9d146105d057806336568abe146105da5780633a46b1a8146105ed5780633a98ef3914610600575f80fd5b806318160ddd116103a4578063248a9ca311610374578063248a9ca314610523578063282c51f3146105455780632f2ff15d1461056c578063313ce5671461057f5780633141b2d71461059e575f80fd5b806318160ddd146104e25780631be8db96146104ea5780631ecc17c4146104fd57806323b872dd14610510575f80fd5b806307655464116103df5780630765546414610489578063095ea7b3146104ae5780630aa6220b146104c15780630b80d4f3146104cb575f80fd5b8062fdd58e1461040f57806301ffc9a714610435578063022d63fb1461045857806306fdde0314610474575b5f80fd5b61042261041d366004612c75565b610a0d565b6040519081526020015b60405180910390f35b610448610443366004612c9d565b610a21565b604051901515815260200161042c565b620697805b60405165ffffffffffff909116815260200161042c565b61047c610a45565b60405161042c9190612ce6565b60cd546104999063ffffffff1681565b60405163ffffffff909116815260200161042c565b6104486104bc366004612c75565b610ad1565b6104c9610b3c565b005b60cd5461049990600160201b900463ffffffff1681565b610422610b4e565b6104486104f8366004612d25565b610b5c565b61044861050b366004612d25565b610b96565b61044861051e366004612d40565b610bcd565b610422610531366004612d79565b5f9081526065602052604090206001015490565b6104227f3c11d16cbaffd01df69ce1c404f6340ee057498f5f00246190ea54220576a84881565b6104c961057a366004612d90565b610c62565b60cb5461058c9060ff1681565b60405160ff909116815260200161042c565b60cd546105b890600160401b90046001600160601b031681565b6040516001600160601b03909116815260200161042c565b610422620f424081565b6104c96105e8366004612d90565b610ce1565b6104226105fb366004612c75565b610dca565b610422610e52565b61042269d3c21bcecceda100000081565b610448610627366004612c75565b610e5b565b60408051808201909152600e81526d06d6f64653d74696d657374616d760941b602082015261047c565b610422610664366004612d79565b610eb7565b60cb5461044890600160201b900460ff1681565b61068e61068b366004612dba565b90565b6040516001600160a01b03909116815260200161042c565b6104c96106b4366004612dba565b50565b6104c96106c5366004612dba565b610ec1565b6104c96106d8366004612dd3565b610ed4565b6104226106eb366004612dba565b610ee7565b60cd546105b890600160a01b90046001600160601b031681565b60cb546104489062010000900460ff1681565b6104225f8051602061338583398151915281565b6098546001600160a01b031661068e565b61068e610ef1565b610422610758366004612d79565b610f04565b61044861076b366004612df8565b610f76565b61044861077e366004612d90565b61117d565b4261045d565b6104226111a7565b61047c6111b0565b6104486107a7366004612d79565b6111bd565b6104226107ba366004612d79565b611223565b6104226107cd366004612dba565b61122d565b6107da61124d565b6040805165ffffffffffff93841681529290911660208301520161042c565b6104225f81565b61042261129f565b610448610816366004612c75565b6112b3565b60cb546104999065010000000000900463ffffffff1681565b61045d6112f6565b6104227f7935bd0ae54bc31f548c14dba4d37c5c64b3f8ca900cb468fb8abd54d5894f5581565b610448610871366004612d40565b611354565b6104c96113db565b610886611458565b604080516001600160a01b03909316835265ffffffffffff90911660208301520161042c565b6104225f8051602061336583398151915281565b6104c96108ce366004612d90565b611479565b6104c96114f6565b60cb54610448906301000000900460ff1681565b6104226108fd366004612d79565b611508565b610422610910366004612e21565b6001600160a01b039182165f90815260cc6020908152604080832093909416825291909152205490565b6104c9610948366004612ee6565b611512565b6104225f8051602061334583398151915281565b6104227fb6edeab710812f8917b946c63c63b900f456e6a1abea66a90b1f8277f035664b81565b6104227f241ecf16d79d0f8dbfb92cbc07fe17840425976cf0667f022fe9877caa831b0881565b6104486109bd366004612d25565b611796565b6104486109d0366004612d25565b6117cf565b6104226109e3366004612dba565b61180b565b60cb5461044890610100900460ff1681565b610448610a08366004612d90565b611815565b5f610a188383610dca565b90505b92915050565b5f6001600160e01b031982166318a4c3c360e11b1480610a1b5750610a1b8261187a565b60c98054610a5290612fa7565b80601f0160208091040260200160405190810160405280929190818152602001828054610a7e90612fa7565b8015610ac95780601f10610aa057610100808354040283529160200191610ac9565b820191905f5260205f20905b815481529060010190602001808311610aac57829003601f168201915b505050505081565b335f81815260cc602090815260408083206001600160a01b038716808552925280832085905551919290917f8c5be1e5ebec7d5bd14f71427d1e84f3dd0314c0f7b2291e5b200ac8c7c3b92590610b2b9086815260200190565b60405180910390a350600192915050565b5f610b46816118ae565b6106b46118b8565b5f610b576118c4565b905090565b5f5f80516020613345833981519152610b74816118ae565b60cb805463ff0000001916630100000085151502179055600191505b50919050565b5f5f80516020613345833981519152610bae816118ae565b60cb80548415156101000261ff00199091161790556001915050919050565b60cb545f90610100900460ff161515600103610bfc57604051630a31f55760e31b815260040160405180910390fd5b6001600160a01b0384165f90815260cc60209081526040808320338452909152902054610c2a908390612fed565b6001600160a01b0385165f90815260cc60209081526040808320338452909152902055610c588484846118db565b5060019392505050565b81610cd35760405162461bcd60e51b815260206004820152603660248201527f416363657373436f6e74726f6c3a2063616e2774206469726563746c79206772604482015275616e742064656661756c742061646d696e20726f6c6560501b60648201526084015b60405180910390fd5b610cdd8282611a05565b5050565b81158015610cfc57506098546001600160a01b038281169116145b15610dc0575f80610d0b611458565b90925090506001600160a01b038216158015610d2e575065ffffffffffff811615155b8015610d4157504265ffffffffffff8216105b610dab5760405162461bcd60e51b815260206004820152603560248201527f416363657373436f6e74726f6c3a206f6e6c792063616e2072656e6f756e636560448201527420696e2074776f2064656c6179656420737465707360581b6064820152608401610cca565b50506097805465ffffffffffff60a01b191690555b610cdd8282611a2e565b5f4265ffffffffffff168210610e195760405162461bcd60e51b81526020600482015260146024820152730566f7465733a20667574757265206c6f6f6b75760641b6044820152606401610cca565b610e42610e2583611aa8565b6001600160a01b0385165f90815260fb6020526040902090611b10565b6001600160e01b03169392505050565b5f610b57611bbe565b5f5f80516020613365833981519152610e73816118ae565b60cb5462010000900460ff161515600103610ea157604051632c7e18c160e11b815260040160405180910390fd5b610eab8484611bd7565b600191505b5092915050565b5f610a1b82611c29565b5f610ecb816118ae565b610cdd82611c74565b5f610ede816118ae565b610cdd82611ce6565b5f610a1b82611d4e565b5f610b576098546001600160a01b031690565b5f4265ffffffffffff168210610f535760405162461bcd60e51b81526020600482015260146024820152730566f7465733a20667574757265206c6f6f6b75760641b6044820152606401610cca565b610f67610f5f83611aa8565b60fc90611b10565b6001600160e01b031692915050565b5f5f80516020613385833981519152610f8e816118ae565b60cb54600160201b900460ff161515600103610fbd57604051631a4a812960e21b815260040160405180910390fd5b5f610fc66118c4565b90508085101561105c57610fd985611d60565b60cd805467ffffffffffffffff16600160401b6001600160601b0393909316929092026001600160a01b031691909117905561101442611aa8565b60cd60046101000a81548163ffffffff021916908363ffffffff16021790555061103d42611aa8565b60cd805463ffffffff191663ffffffff92909216919091179055611129565b61106581611d60565b60cd80546001600160601b0392909216600160401b0273ffffffffffffffffffffffff0000000000000000199092169190911790556110ac6110a78287612fed565b611d60565b60cd80546001600160601b0392909216600160a01b026001600160a01b039092169190911790556110e56110e08542613000565b611aa8565b60cd60046101000a81548163ffffffff021916908363ffffffff16021790555061110e42611aa8565b60cd805463ffffffff191663ffffffff929092169190911790555b6040805187815260208101839052908101869052606081018590527f73fc076a6dc311c86aa8be0baa48f246eeb171cb2728ea07541508e63767d9de9060800160405180910390a150600195945050505050565b5f9182526065602090815260408084206001600160a01b0393909316845291905290205460ff1690565b5f610b57611dc7565b60ca8054610a5290612fa7565b5f7f7935bd0ae54bc31f548c14dba4d37c5c64b3f8ca900cb468fb8abd54d5894f556111e8816118ae565b6111f183611aa8565b60cb805463ffffffff92909216650100000000000268ffffffff00000000001990921691909117905550600192915050565b5f610a1b82610f04565b6001600160a01b0381165f90815260fb60205260408120610f6790611e07565b6098545f90600160d01b900465ffffffffffff16801515801561127857504265ffffffffffff821610155b611283575f80611297565b609854600160a01b900465ffffffffffff16815b915091509091565b5f610b5769d3c21bcecceda1000000611c29565b60cb545f90610100900460ff1615156001036112e257604051630a31f55760e31b815260040160405180910390fd5b6112ed3384846118db565b50600192915050565b6098545f90600160d01b900465ffffffffffff16801515801561132057504265ffffffffffff8216105b61133b57609754600160d01b900465ffffffffffff1661134e565b609854600160a01b900465ffffffffffff165b91505090565b5f8061135f816118ae565b60405163a9059cbb60e01b81526001600160a01b0385811660048301526024820185905286169063a9059cbb906044016020604051808303815f875af11580156113ab573d5f803e3d5ffd5b505050506040513d601f19601f820116820180604052508101906113cf9190613013565b50600195945050505050565b5f6113e4611458565b509050336001600160a01b038216146114505760405162461bcd60e51b815260206004820152602860248201527f416363657373436f6e74726f6c3a2070656e64696e672061646d696e206d75736044820152671d081858d8d95c1d60c21b6064820152608401610cca565b6106b4611e3e565b6097546001600160a01b03811691600160a01b90910465ffffffffffff1690565b816114ec5760405162461bcd60e51b815260206004820152603760248201527f416363657373436f6e74726f6c3a2063616e2774206469726563746c7920726560448201527f766f6b652064656661756c742061646d696e20726f6c650000000000000000006064820152608401610cca565b610cdd8282611f06565b5f611500816118ae565b6106b4611f2a565b5f610a1b82611f34565b5f54610100900460ff161580801561153057505f54600160ff909116105b806115495750303b15801561154957505f5460ff166001145b6115ac5760405162461bcd60e51b815260206004820152602e60248201527f496e697469616c697a61626c653a20636f6e747261637420697320616c72656160448201526d191e481a5b9a5d1a585b1a5e995960921b6064820152608401610cca565b5f805460ff1916600117905580156115cd575f805461ff0019166101001790555b60c96115d98a8261307b565b5060ca6115e6898261307b565b5060cb805460ff191660ff89161790556115ff85611d60565b60cd805467ffffffffffffffff16600160401b6001600160601b0393909316929092026001600160a01b031691909117905561163a42611aa8565b60cd60046101000a81548163ffffffff021916908363ffffffff16021790555061166342611aa8565b60cd805463ffffffff191663ffffffff929092169190911790556116885f87876118db565b6116925f87611f6b565b6116a95f8051602061338583398151915287611f9b565b6116c05f8051602061336583398151915287611f9b565b6116d75f8051602061334583398151915287611f9b565b6117017f3c11d16cbaffd01df69ce1c404f6340ee057498f5f00246190ea54220576a84885611f9b565b6117185f8051602061336583398151915284611f9b565b61172f5f8051602061336583398151915283611f9b565b6117465f8051602061338583398151915283611f9b565b801561178b575f805461ff0019169055604051600181527f7f26b83ff96e1f2b6a682f133852f6798a09c465da95921460cefb38474024989060200160405180910390a15b505050505050505050565b5f5f805160206133458339815191526117ae816118ae565b60cb8054841515620100000262ff0000199091161790556001915050919050565b5f5f805160206133458339815191526117e7816118ae565b60cb8054841515600160201b0264ff00000000199091161790556001915050919050565b5f610a1b8261122d565b60cb545f906301000000900460ff161515600103611846576040516302f85e9b60e21b815260040160405180910390fd5b7f3c11d16cbaffd01df69ce1c404f6340ee057498f5f00246190ea54220576a848611870816118ae565b610eab8484612044565b5f6001600160e01b03198216637965db0b60e01b1480610a1b57506301ffc9a760e01b6001600160e01b0319831614610a1b565b6106b4813361204f565b6118c25f806120a8565b565b5f620f42406118d1611dc7565b610b57919061314b565b5f6118e582611f34565b90506001600160a01b038416611949576118fe82611d60565b60cd8054600890611920908490600160401b90046001600160601b031661316a565b92506101000a8154816001600160601b0302191690836001600160601b031602179055506119a7565b6001600160a01b0383166119a75761196082611d60565b60cd8054600890611982908490600160401b90046001600160601b031661318a565b92506101000a8154816001600160601b0302191690836001600160601b031602179055505b6119b2848483612167565b826001600160a01b0316846001600160a01b03167fddf252ad1be2c89b69c2b068fc378daa952ba7f163c4a11628f55a4df523b3ef846040516119f791815260200190565b60405180910390a350505050565b5f82815260656020526040902060010154611a1f816118ae565b611a298383611f9b565b505050565b6001600160a01b0381163314611a9e5760405162461bcd60e51b815260206004820152602f60248201527f416363657373436f6e74726f6c3a2063616e206f6e6c792072656e6f756e636560448201526e103937b632b9903337b91039b2b63360891b6064820152608401610cca565b610cdd82826121bb565b5f63ffffffff821115611b0c5760405162461bcd60e51b815260206004820152602660248201527f53616665436173743a2076616c756520646f65736e27742066697420696e203360448201526532206269747360d01b6064820152608401610cca565b5090565b81545f9081816005811115611b6a575f611b29846121f6565b611b339085612fed565b5f8881526020902090915081015463ffffffff9081169087161015611b5a57809150611b68565b611b65816001613000565b92505b505b5f611b77878785856122da565b90508015611bb157611b9b87611b8e600184612fed565b5f91825260209091200190565b54600160201b90046001600160e01b0316611bb3565b5f5b979650505050505050565b5f611bc960fc611e07565b6001600160e01b0316905090565b611be25f83836118db565b604080516001600160a01b0384168152602081018390527f0f6798a560793a54c3bcfe86a93cde1e73087d944c0ea20544137d412139688591015b60405180910390a15050565b5f80611c33611bbe565b90508015611c6057611c5b611c46611dc7565b611c53620f4240846131aa565b859190612335565b611c6d565b611c6d620f42408461314b565b9392505050565b5f611c7d6112f6565b611c8642612350565b611c9091906131c1565b9050611c9c82826123b6565b60405165ffffffffffff821681526001600160a01b038316907f3377dc44241e779dd06afab5b788a35ca5f3b778836e2990bdb26a2a4b2e5ed69060200160405180910390a25050565b5f611cf082612433565b611cf942612350565b611d0391906131c1565b9050611d0f82826120a8565b6040805165ffffffffffff8085168252831660208201527ff1038c18cf84a56e432fdbfaf746924b7ea511dfe03a6506a0ceba4888788d9b9101611c1d565b5f610a1b611d5b8361122d565b611c29565b5f6001600160601b03821115611b0c5760405162461bcd60e51b815260206004820152602660248201527f53616665436173743a2076616c756520646f65736e27742066697420696e203960448201526536206269747360d01b6064820152608401610cca565b5f805f80611dd3612475565b91945092509050611de882620f424083612335565b611df5620f4240856131aa565b611dff9190613000565b935050505090565b80545f908015611e3657611e2083611b8e600184612fed565b54600160201b90046001600160e01b0316611c6d565b5f9392505050565b5f80611e48611458565b91509150611e5d8165ffffffffffff16151590565b8015611e7057504265ffffffffffff8216105b611ecd5760405162461bcd60e51b815260206004820152602860248201527f416363657373436f6e74726f6c3a207472616e736665722064656c6179206e6f6044820152671d081c185cdcd95960c21b6064820152608401610cca565b611ee85f611ee36098546001600160a01b031690565b6121bb565b611ef25f83611f9b565b5050609780546001600160d01b0319169055565b5f82815260656020526040902060010154611f20816118ae565b611a2983836121bb565b6118c25f806123b6565b5f80611f3e611bbe565b90508015611f5e57611c5b611f56620f4240836131aa565b611c53611dc7565b611c6d620f4240846131aa565b5f54610100900460ff16611f915760405162461bcd60e51b8152600401610cca906131e0565b610cdd828261255a565b8161203a575f611fb36098546001600160a01b031690565b6001600160a01b03161461201e5760405162461bcd60e51b815260206004820152602c60248201527f416363657373436f6e74726f6c3a2064656661756c742061646d696e20616c7260448201526b1958591e4819dc985b9d195960a21b6064820152608401610cca565b609880546001600160a01b0319166001600160a01b0383161790555b610cdd82826125ff565b610cdd815f846118db565b612059828261117d565b610cdd5761206681612684565b612071836020612696565b60405160200161208292919061322b565b60408051601f198184030181529082905262461bcd60e51b8252610cca91600401612ce6565b609854600160d01b900465ffffffffffff16801561212a574265ffffffffffff8216101561210157609854609780546001600160d01b0316600160a01b90920465ffffffffffff16600160d01b0291909117905561212a565b6040517f2b1fa2edafe6f7b9e97c1a9e0c3660e645beb2dcaa2d45bdbf9beaf5472e1ec5905f90a15b50609880546001600160a01b0316600160a01b65ffffffffffff948516026001600160d01b031617600160d01b9290931691909102919091179055565b6001600160a01b03831661218e5761218b60fc61282c61218684612837565b61289f565b50505b6001600160a01b0382166121b0576121ad60fc6128e061218684612837565b50505b611a298383836128eb565b811580156121d657506098546001600160a01b038281169116145b156121ec57609880546001600160a01b03191690555b610cdd828261298f565b5f815f0361220557505f919050565b5f6001612211846129f5565b901c6001901b9050600181848161222a5761222a613137565b048201901c9050600181848161224257612242613137565b048201901c9050600181848161225a5761225a613137565b048201901c9050600181848161227257612272613137565b048201901c9050600181848161228a5761228a613137565b048201901c905060018184816122a2576122a2613137565b048201901c905060018184816122ba576122ba613137565b048201901c9050611c6d818285816122d4576122d4613137565b04612a88565b5f5b8183101561232d575f6122ef8484612a9d565b5f8781526020902090915063ffffffff86169082015463ffffffff16111561231957809250612327565b612324816001613000565b93505b506122dc565b509392505050565b5f825f190484118302158202612349575f80fd5b5091020490565b5f65ffffffffffff821115611b0c5760405162461bcd60e51b815260206004820152602660248201527f53616665436173743a2076616c756520646f65736e27742066697420696e203460448201526538206269747360d01b6064820152608401610cca565b5f6123bf611458565b6097805465ffffffffffff8616600160a01b026001600160d01b03199091166001600160a01b03881617179055915061240190508165ffffffffffff16151590565b15611a29576040517f8886ebfc4259abdbc16601dd8fb5678e54878f47b3c34836cfc51154a9605109905f90a1505050565b5f8061243d6112f6565b90508065ffffffffffff168365ffffffffffff161161246057611c5b838261329f565b611c6d65ffffffffffff841662069780612a88565b5f805f8061248242611aa8565b60cd5490915063ffffffff600160201b8204811691818116916001600160601b03600160401b8304811692600160a01b90041690851684116124d9576001600160601b039182169891169650600195509350505050565b8263ffffffff168563ffffffff160361250557506001600160601b0316965f9650600195509350505050565b5f61251084876132be565b6125299063ffffffff166001600160601b0384166131aa565b90505f61253685876132be565b6001600160601b039094169a9199505063ffffffff92909216965090945050505050565b5f54610100900460ff166125805760405162461bcd60e51b8152600401610cca906131e0565b6001600160a01b0381166125d65760405162461bcd60e51b815260206004820152601e60248201527f416363657373436f6e74726f6c3a20302064656661756c742061646d696e00006044820152606401610cca565b609780546001600160d01b0316600160d01b65ffffffffffff851602179055610cdd5f82611f9b565b612609828261117d565b610cdd575f8281526065602090815260408083206001600160a01b03851684529091529020805460ff191660011790556126403390565b6001600160a01b0316816001600160a01b0316837f2f8788117e7eff1d82e926ec794901d17c78024a50270940304540a733656f0d60405160405180910390a45050565b6060610a1b6001600160a01b03831660145b60605f6126a48360026131aa565b6126af906002613000565b67ffffffffffffffff8111156126c7576126c7612e49565b6040519080825280601f01601f1916602001820160405280156126f1576020820181803683370190505b509050600360fc1b815f8151811061270b5761270b6132db565b60200101906001600160f81b03191690815f1a905350600f60fb1b81600181518110612739576127396132db565b60200101906001600160f81b03191690815f1a9053505f61275b8460026131aa565b612766906001613000565b90505b60018111156127dd576f181899199a1a9b1b9c1cb0b131b232b360811b85600f166010811061279a5761279a6132db565b1a60f81b8282815181106127b0576127b06132db565b60200101906001600160f81b03191690815f1a90535060049490941c936127d6816132ef565b9050612769565b508315610a185760405162461bcd60e51b815260206004820181905260248201527f537472696e67733a20686578206c656e67746820696e73756666696369656e746044820152606401610cca565b5f610a188284613304565b5f6001600160e01b03821115611b0c5760405162461bcd60e51b815260206004820152602760248201527f53616665436173743a2076616c756520646f65736e27742066697420696e20326044820152663234206269747360c81b6064820152608401610cca565b5f806128d36128b54265ffffffffffff16611aa8565b6128cb6128c188611e07565b868863ffffffff16565b879190612ab7565b915091505b935093915050565b5f610a188284613324565b816001600160a01b0316836001600160a01b03161415801561290c57505f81115b15611a29576001600160a01b0383161561294e576001600160a01b0383165f90815260fb602052604081208190612949906128e061218686612837565b505050505b6001600160a01b03821615611a29576001600160a01b0382165f90815260fb6020526040812081906129869061282c61218686612837565b50505050505050565b612999828261117d565b15610cdd575f8281526065602090815260408083206001600160a01b0385168085529252808320805460ff1916905551339285917ff6391f5c32d9c69d2a47ea670b442974b53935d1edc7fd64eb21e047a839171b9190a45050565b5f80608083901c15612a0957608092831c92015b604083901c15612a1b57604092831c92015b602083901c15612a2d57602092831c92015b601083901c15612a3f57601092831c92015b600883901c15612a5157600892831c92015b600483901c15612a6357600492831c92015b600283901c15612a7557600292831c92015b600183901c15610a1b5760010192915050565b5f818310612a965781610a18565b5090919050565b5f612aab600284841861314b565b610a1890848416613000565b5f806128d385858582545f9081908015612c02575f612adb87611b8e600185612fed565b60408051808201909152905463ffffffff808216808452600160201b9092046001600160e01b031660208401529192509087161015612b5c5760405162461bcd60e51b815260206004820152601b60248201527f436865636b706f696e743a2064656372656173696e67206b65797300000000006044820152606401610cca565b805163ffffffff808816911603612ba45784612b7d88611b8e600186612fed565b80546001600160e01b0392909216600160201b0263ffffffff909216919091179055612bf2565b6040805180820190915263ffffffff80881682526001600160e01b0380881660208085019182528b54600181018d555f8d81529190912094519151909216600160201b029216919091179101555b6020015192508391506128d89050565b50506040805180820190915263ffffffff80851682526001600160e01b0380851660208085019182528854600181018a555f8a815291822095519251909316600160201b0291909316179201919091559050816128d8565b80356001600160a01b0381168114612c70575f80fd5b919050565b5f8060408385031215612c86575f80fd5b612c8f83612c5a565b946020939093013593505050565b5f60208284031215612cad575f80fd5b81356001600160e01b031981168114610a18575f80fd5b5f5b83811015612cde578181015183820152602001612cc6565b50505f910152565b602081525f8251806020840152612d04816040850160208701612cc4565b601f01601f19169190910160400192915050565b80151581146106b4575f80fd5b5f60208284031215612d35575f80fd5b8135610a1881612d18565b5f805f60608486031215612d52575f80fd5b612d5b84612c5a565b9250612d6960208501612c5a565b9150604084013590509250925092565b5f60208284031215612d89575f80fd5b5035919050565b5f8060408385031215612da1575f80fd5b82359150612db160208401612c5a565b90509250929050565b5f60208284031215612dca575f80fd5b610a1882612c5a565b5f60208284031215612de3575f80fd5b813565ffffffffffff81168114610a18575f80fd5b5f805f60608486031215612e0a575f80fd5b505081359360208301359350604090920135919050565b5f8060408385031215612e32575f80fd5b612e3b83612c5a565b9150612db160208401612c5a565b634e487b7160e01b5f52604160045260245ffd5b5f82601f830112612e6c575f80fd5b813567ffffffffffffffff80821115612e8757612e87612e49565b604051601f8301601f19908116603f01168101908282118183101715612eaf57612eaf612e49565b81604052838152866020858801011115612ec7575f80fd5b836020870160208301375f602085830101528094505050505092915050565b5f805f805f805f80610100898b031215612efe575f80fd5b883567ffffffffffffffff80821115612f15575f80fd5b612f218c838d01612e5d565b995060208b0135915080821115612f36575f80fd5b50612f438b828c01612e5d565b975050604089013560ff81168114612f59575f80fd5b9550612f6760608a01612c5a565b945060808901359350612f7c60a08a01612c5a565b9250612f8a60c08a01612c5a565b9150612f9860e08a01612c5a565b90509295985092959890939650565b600181811c90821680612fbb57607f821691505b602082108103610b9057634e487b7160e01b5f52602260045260245ffd5b634e487b7160e01b5f52601160045260245ffd5b81810381811115610a1b57610a1b612fd9565b80820180821115610a1b57610a1b612fd9565b5f60208284031215613023575f80fd5b8151610a1881612d18565b601f821115611a29575f81815260208120601f850160051c810160208610156130545750805b601f850160051c820191505b8181101561307357828155600101613060565b505050505050565b815167ffffffffffffffff81111561309557613095612e49565b6130a9816130a38454612fa7565b8461302e565b602080601f8311600181146130dc575f84156130c55750858301515b5f19600386901b1c1916600185901b178555613073565b5f85815260208120601f198616915b8281101561310a578886015182559484019460019091019084016130eb565b508582101561312757878501515f19600388901b60f8161c191681555b5050505050600190811b01905550565b634e487b7160e01b5f52601260045260245ffd5b5f8261316557634e487b7160e01b5f52601260045260245ffd5b500490565b6001600160601b03818116838216019080821115610eb057610eb0612fd9565b6001600160601b03828116828216039080821115610eb057610eb0612fd9565b8082028115828204841417610a1b57610a1b612fd9565b65ffffffffffff818116838216019080821115610eb057610eb0612fd9565b6020808252602b908201527f496e697469616c697a61626c653a20636f6e7472616374206973206e6f74206960408201526a6e697469616c697a696e6760a81b606082015260800190565b7f416363657373436f6e74726f6c3a206163636f756e742000000000000000000081525f8351613262816017850160208801612cc4565b7001034b99036b4b9b9b4b733903937b6329607d1b6017918401918201528351613293816028840160208801612cc4565b01602801949350505050565b65ffffffffffff828116828216039080821115610eb057610eb0612fd9565b63ffffffff828116828216039080821115610eb057610eb0612fd9565b634e487b7160e01b5f52603260045260245ffd5b5f816132fd576132fd612fd9565b505f190190565b6001600160e01b03818116838216019080821115610eb057610eb0612fd9565b6001600160e01b03828116828216039080821115610eb057610eb0612fd956fe65d7a28e3265b37a6474929f336521b332c1681b933f6cb9f3376673440d862a9f2df0fed2c77648de5860a4cc508cd0818c85b8b8a1ab4ceeef8d981c8956a65fde63b561377d1441afa201ff619faac2ff8fed70a7fbdbe7a5cb07768c0b75a26469706673582212207715bd46f67be6913d00f42b3723e3790323142f1647d534a287189e4c37eec264736f6c63430008140033",
    "linkReferences": {}
  },
  "methodIdentifiers": {
    "BURNER_ROLE()": "282c51f3",
    "CLOCK_MODE()": "4bf5d7e9",
    "DEFAULT_ADMIN_ROLE()": "a217fddf",
    "FEE_RECIPIENT_ROLE()": "e82748ca",
    "GOVERNOR_ROLE()": "ccc57490",
    "MANAGER_ROLE()": "ec87621c",
    "MINTER_ROLE()": "d5391393",
    "PAUSER_ROLE()": "e63ab1e9",
    "REBASER_ROLE()": "83eb70e5",
    "acceptDefaultAdminTransfer()": "cefc1429",
    "allowance(address,address)": "dd62ed3e",
    "approve(address,uint256)": "095ea7b3",
    "balanceOf(address)": "70a08231",
    "balanceOf(address,uint256)": "00fdd58e",
    "balancePerShare()": "a781a3fd",
    "balanceToShareDecimals()": "35191a9d",
    "balanceToShares(uint256)": "d8ddf18f",
    "beginDefaultAdminTransfer(address)": "634e93da",
    "burn(uint256,address)": "fcd3533c",
    "burnPaused()": "d684534e",
    "cancelDefaultAdminTransfer()": "d602b9fd",
    "changeDefaultAdminDelay(uint48)": "649a5ec7",
    "clock()": "91ddadf4",
    "decimals()": "313ce567",
    "defaultAdmin()": "84ef8ffc",
    "defaultAdminDelay()": "cc8463c8",
    "defaultAdminDelayIncreaseWait()": "022d63fb",
    "delegate(address)": "5c19a95c",
    "delegates(address)": "587cde1e",
    "getPastTotalSupply(uint256)": "8e539e8c",
    "getPastVotes(address,uint256)": "3a46b1a8",
    "getRoleAdmin(bytes32)": "248a9ca3",
    "getVotes(address)": "9ab24eb0",
    "getVotes(address,uint256)": "eb9019d4",
    "grantRole(bytes32,address)": "2f2ff15d",
    "hasRole(bytes32,address)": "91d14854",
    "initialize(string,string,uint8,address,uint256,address,address,address)": "e34fed82",
    "lastSnapshotTime()": "be74baf2",
    "mint(address,uint256)": "40c10f19",
    "mintPaused()": "7e4831d3",
    "name()": "06fdde03",
    "newSnapshotTime(uint256)": "96d6d2fb",
    "owner()": "8da5cb5b",
    "pauseBurn(bool)": "1be8db96",
    "pauseMint(bool)": "f30e6e77",
    "pauseRebase(bool)": "f3ab777b",
    "pauseTransfer(bool)": "1ecc17c4",
    "pendingDefaultAdmin()": "cf6eefb7",
    "pendingDefaultAdminDelay()": "a1eda53c",
    "preSyncSupply()": "3141b2d7",
    "rebasePaused()": "53ca9f24",
    "renounceRole(bytes32,address)": "36568abe",
    "rescueTokens(address,address,uint256)": "cea9d26f",
    "revokeRole(bytes32,address)": "d547741f",
    "rewardsToSync()": "7478c9e0",
    "rollbackDefaultAdminDelay()": "0aa6220b",
    "shareDecimals()": "3af8e5eb",
    "sharesOf(address)": "f5eb42dc",
    "sharesToBalance(uint256)": "53735f37",
    "supportsInterface(bytes4)": "01ffc9a7",
    "symbol()": "95d89b41",
    "syncEnd()": "0b80d4f3",
    "syncStart()": "07655464",
    "syncSupply(uint256,uint256,uint256)": "8f490d70",
    "totalShares()": "3a98ef39",
    "totalSupply()": "18160ddd",
    "totalSupplyAt(uint256)": "981b24d0",
    "totalSupplyRaw()": "94086eca",
    "transfer(address,uint256)": "a9059cbb",
    "transferFrom(address,address,uint256)": "23b872dd",
    "transferPaused()": "fb2cb34e"
  },
  "storageLayout": {
    "storage": [
      {
        "astId": 45871,
        "contract": "src/token/stFlip.sol:stFlip",
        "label": "_initialized",
        "offset": 0,
        "slot": "0",
        "type": "t_uint8"
      },
      {
        "astId": 45874,
        "contract": "src/token/stFlip.sol:stFlip",
        "label": "_initializing",
        "offset": 1,
        "slot": "0",
        "type": "t_bool"
      },
      {
        "astId": 47945,
        "contract": "src/token/stFlip.sol:stFlip",
        "label": "__gap",
        "offset": 0,
        "slot": "1",
        "type": "t_array(t_uint256)50_storage"
      },
      {
        "astId": 48942,
        "contract": "src/token/stFlip.sol:stFlip",
        "label": "__gap",
        "offset": 0,
        "slot": "51",
        "type": "t_array(t_uint256)50_storage"
      },
      {
        "astId": 44957,
        "contract": "src/token/stFlip.sol:stFlip",
        "label": "_roles",
        "offset": 0,
        "slot": "101",
        "type": "t_mapping(t_bytes32,t_struct(RoleData)44952_storage)"
      },
      {
        "astId": 45252,
        "contract": "src/token/stFlip.sol:stFlip",
        "label": "__gap",
        "offset": 0,
        "slot": "102",
        "type": "t_array(t_uint256)49_storage"
      },
      {
        "astId": 44222,
        "contract": "src/token/stFlip.sol:stFlip",
        "label": "_pendingDefaultAdmin",
        "offset": 0,
        "slot": "151",
        "type": "t_address"
      },
      {
        "astId": 44224,
        "contract": "src/token/stFlip.sol:stFlip",
        "label": "_pendingDefaultAdminSchedule",
        "offset": 20,
        "slot": "151",
        "type": "t_uint48"
      },
      {
        "astId": 44226,
        "contract": "src/token/stFlip.sol:stFlip",
        "label": "_currentDelay",
        "offset": 26,
        "slot": "151",
        "type": "t_uint48"
      },
      {
        "astId": 44228,
        "contract": "src/token/stFlip.sol:stFlip",
        "label": "_currentDefaultAdmin",
        "offset": 0,
        "slot": "152",
        "type": "t_address"
      },
      {
        "astId": 44230,
        "contract": "src/token/stFlip.sol:stFlip",
        "label": "_pendingDelay",
        "offset": 20,
        "slot": "152",
        "type": "t_uint48"
      },
      {
        "astId": 44232,
        "contract": "src/token/stFlip.sol:stFlip",
        "label": "_pendingDelaySchedule",
        "offset": 26,
        "slot": "152",
        "type": "t_uint48"
      },
      {
        "astId": 44916,
        "contract": "src/token/stFlip.sol:stFlip",
        "label": "__gap",
        "offset": 0,
        "slot": "153",
        "type": "t_array(t_uint256)48_storage"
      },
      {
        "astId": 73259,
        "contract": "src/token/stFlip.sol:stFlip",
        "label": "name",
        "offset": 0,
        "slot": "201",
        "type": "t_string_storage"
      },
      {
        "astId": 73262,
        "contract": "src/token/stFlip.sol:stFlip",
        "label": "symbol",
        "offset": 0,
        "slot": "202",
        "type": "t_string_storage"
      },
      {
        "astId": 73265,
        "contract": "src/token/stFlip.sol:stFlip",
        "label": "decimals",
        "offset": 0,
        "slot": "203",
        "type": "t_uint8"
      },
      {
        "astId": 73268,
        "contract": "src/token/stFlip.sol:stFlip",
        "label": "transferPaused",
        "offset": 1,
        "slot": "203",
        "type": "t_bool"
      },
      {
        "astId": 73271,
        "contract": "src/token/stFlip.sol:stFlip",
        "label": "mintPaused",
        "offset": 2,
        "slot": "203",
        "type": "t_bool"
      },
      {
        "astId": 73274,
        "contract": "src/token/stFlip.sol:stFlip",
        "label": "burnPaused",
        "offset": 3,
        "slot": "203",
        "type": "t_bool"
      },
      {
        "astId": 73277,
        "contract": "src/token/stFlip.sol:stFlip",
        "label": "rebasePaused",
        "offset": 4,
        "slot": "203",
        "type": "t_bool"
      },
      {
        "astId": 73280,
        "contract": "src/token/stFlip.sol:stFlip",
        "label": "lastSnapshotTime",
        "offset": 5,
        "slot": "203",
        "type": "t_uint32"
      },
      {
        "astId": 73299,
        "contract": "src/token/stFlip.sol:stFlip",
        "label": "_allowedBalances",
        "offset": 0,
        "slot": "204",
        "type": "t_mapping(t_address,t_mapping(t_address,t_uint256))"
      },
      {
        "astId": 73302,
        "contract": "src/token/stFlip.sol:stFlip",
        "label": "syncStart",
        "offset": 0,
        "slot": "205",
        "type": "t_uint32"
      },
      {
        "astId": 73305,
        "contract": "src/token/stFlip.sol:stFlip",
        "label": "syncEnd",
        "offset": 4,
        "slot": "205",
        "type": "t_uint32"
      },
      {
        "astId": 73308,
        "contract": "src/token/stFlip.sol:stFlip",
        "label": "preSyncSupply",
        "offset": 8,
        "slot": "205",
        "type": "t_uint96"
      },
      {
        "astId": 73311,
        "contract": "src/token/stFlip.sol:stFlip",
        "label": "rewardsToSync",
        "offset": 20,
        "slot": "205",
        "type": "t_uint96"
      },
      {
        "astId": 73315,
        "contract": "src/token/stFlip.sol:stFlip",
        "label": "__gap",
        "offset": 0,
        "slot": "206",
        "type": "t_array(t_uint256)45_storage"
      },
      {
        "astId": 45484,
        "contract": "src/token/stFlip.sol:stFlip",
        "label": "_delegateCheckpoints",
        "offset": 0,
        "slot": "251",
        "type": "t_mapping(t_address,t_struct(Trace224)46904_storage)"
      },
      {
        "astId": 45488,
        "contract": "src/token/stFlip.sol:stFlip",
        "label": "_totalCheckpoints",
        "offset": 0,
        "slot": "252",
        "type": "t_struct(Trace224)46904_storage"
      },
      {
        "astId": 45804,
        "contract": "src/token/stFlip.sol:stFlip",
        "label": "__gap",
        "offset": 0,
        "slot": "253",
        "type": "t_array(t_uint256)48_storage"
      }
    ],
    "types": {
      "t_address": {
        "encoding": "inplace",
        "label": "address",
        "numberOfBytes": "20"
      },
      "t_array(t_struct(Checkpoint224)46909_storage)dyn_storage": {
        "encoding": "dynamic_array",
        "label": "struct CheckpointsUpgradeable.Checkpoint224[]",
        "numberOfBytes": "32",
        "base": "t_struct(Checkpoint224)46909_storage"
      },
      "t_array(t_uint256)45_storage": {
        "encoding": "inplace",
        "label": "uint256[45]",
        "numberOfBytes": "1440",
        "base": "t_uint256"
      },
      "t_array(t_uint256)48_storage": {
        "encoding": "inplace",
        "label": "uint256[48]",
        "numberOfBytes": "1536",
        "base": "t_uint256"
      },
      "t_array(t_uint256)49_storage": {
        "encoding": "inplace",
        "label": "uint256[49]",
        "numberOfBytes": "1568",
        "base": "t_uint256"
      },
      "t_array(t_uint256)50_storage": {
        "encoding": "inplace",
        "label": "uint256[50]",
        "numberOfBytes": "1600",
        "base": "t_uint256"
      },
      "t_bool": {
        "encoding": "inplace",
        "label": "bool",
        "numberOfBytes": "1"
      },
      "t_bytes32": {
        "encoding": "inplace",
        "label": "bytes32",
        "numberOfBytes": "32"
      },
      "t_mapping(t_address,t_bool)": {
        "encoding": "mapping",
        "key": "t_address",
        "label": "mapping(address => bool)",
        "numberOfBytes": "32",
        "value": "t_bool"
      },
      "t_mapping(t_address,t_mapping(t_address,t_uint256))": {
        "encoding": "mapping",
        "key": "t_address",
        "label": "mapping(address => mapping(address => uint256))",
        "numberOfBytes": "32",
        "value": "t_mapping(t_address,t_uint256)"
      },
      "t_mapping(t_address,t_struct(Trace224)46904_storage)": {
        "encoding": "mapping",
        "key": "t_address",
        "label": "mapping(address => struct CheckpointsUpgradeable.Trace224)",
        "numberOfBytes": "32",
        "value": "t_struct(Trace224)46904_storage"
      },
      "t_mapping(t_address,t_uint256)": {
        "encoding": "mapping",
        "key": "t_address",
        "label": "mapping(address => uint256)",
        "numberOfBytes": "32",
        "value": "t_uint256"
      },
      "t_mapping(t_bytes32,t_struct(RoleData)44952_storage)": {
        "encoding": "mapping",
        "key": "t_bytes32",
        "label": "mapping(bytes32 => struct AccessControlUpgradeable.RoleData)",
        "numberOfBytes": "32",
        "value": "t_struct(RoleData)44952_storage"
      },
      "t_string_storage": {
        "encoding": "bytes",
        "label": "string",
        "numberOfBytes": "32"
      },
      "t_struct(Checkpoint224)46909_storage": {
        "encoding": "inplace",
        "label": "struct CheckpointsUpgradeable.Checkpoint224",
        "numberOfBytes": "32",
        "members": [
          {
            "astId": 46906,
            "contract": "src/token/stFlip.sol:stFlip",
            "label": "_key",
            "offset": 0,
            "slot": "0",
            "type": "t_uint32"
          },
          {
            "astId": 46908,
            "contract": "src/token/stFlip.sol:stFlip",
            "label": "_value",
            "offset": 4,
            "slot": "0",
            "type": "t_uint224"
          }
        ]
      },
      "t_struct(RoleData)44952_storage": {
        "encoding": "inplace",
        "label": "struct AccessControlUpgradeable.RoleData",
        "numberOfBytes": "64",
        "members": [
          {
            "astId": 44949,
            "contract": "src/token/stFlip.sol:stFlip",
            "label": "members",
            "offset": 0,
            "slot": "0",
            "type": "t_mapping(t_address,t_bool)"
          },
          {
            "astId": 44951,
            "contract": "src/token/stFlip.sol:stFlip",
            "label": "adminRole",
            "offset": 0,
            "slot": "1",
            "type": "t_bytes32"
          }
        ]
      },
      "t_struct(Trace224)46904_storage": {
        "encoding": "inplace",
        "label": "struct CheckpointsUpgradeable.Trace224",
        "numberOfBytes": "32",
        "members": [
          {
            "astId": 46903,
            "contract": "src/token/stFlip.sol:stFlip",
            "label": "_checkpoints",
            "offset": 0,
            "slot": "0",
            "type": "t_array(t_struct(Checkpoint224)46909_storage)dyn_storage"
          }
        ]
      },
      "t_uint224": {
        "encoding": "inplace",
        "label": "uint224",
        "numberOfBytes": "28"
      },
      "t_uint256": {
        "encoding": "inplace",
        "label": "uint256",
        "numberOfBytes": "32"
      },
      "t_uint32": {
        "encoding": "inplace",
        "label": "uint32",
        "numberOfBytes": "4"
      },
      "t_uint48": {
        "encoding": "inplace",
        "label": "uint48",
        "numberOfBytes": "6"
      },
      "t_uint8": {
        "encoding": "inplace",
        "label": "uint8",
        "numberOfBytes": "1"
      },
      "t_uint96": {
        "encoding": "inplace",
        "label": "uint96",
        "numberOfBytes": "12"
      }
    }
  },
  "id": 186
}